:020000040800F2
:10000000286B0020A10D0108BF0D0108C10D0108DA
:10001000C30D0108C50D0108C70D0108000000004F
:10002000000000000000000000000000C90D0108F1
:10003000CB0D010800000000D3BC0008CF0D010863
:10004000D10D0108D10D0108D10D0108D10D010814
:10005000D10D0108D10D0108D10D0108D10D010804
:10006000D10D0108D10D0108D10D0108D10D0108F4
:10007000D10D0108D10D0108D10D0108D10D0108E4
:10008000D10D0108D10D0108D10D01084FB10008B3
:100090004FB00008D10D0108D10D0108D10D0108A4
:1000A000D10D0108D10D0108D10D0108D10D0108B4
:1000B00097CC0008E7650008D10D0108D10D0108B3
:1000C000D10D0108D10D0108D10D010825660008E8
:1000D000D10D0108D10D0108D10D0108D10D010884
:1000E000D10D0108B9610008D10D0108D10D010839
:1000F000D10D0108D10D0108D10D0108D10D010864
:10010000D10D0108D10D010899CE0008D10D0108CB
:10011000D10D0108D10D0108D10D0108C1CC000895
:10012000D10D0108D10D0108D10D0108D10D010833
:10013000D10D0108D10D0108D10D0108D10D010823
:10014000D10D0108D10D0108D10D0108D10D010813
:10015000D10D0108D10D0108D10D0108D10D010803
:10016000D10D0108D10D0108D10D0108D10D0108F3
:10017000D10D0108D10D0108D10D0108D10D0108E3
:10018000D10D0108D10D010800F002F800F0B2F81D
:100190000AA090E8000C82448344AAF10107DA45E2
:1001A00001D100F0A7F8AFF2090EBAE80F0013F082
:1001B000010F18BFFB1A43F001031847FC6401004C
:1001C0001C6501000A444FF0000C10F8013B13F0CD
:1001D000070408BF10F8014B1D1108BF10F8015BA0
:1001E000641E05D010F8016B641E01F8016BF9D193
:1001F00013F0080F1EBF10F8014BAD1C0C1B09D1EA
:100200006D1E58BF01F801CBFAD505E014F8016B5B
:1002100001F8016B6D1EF9D59142D6D370470000ED
:100220000023002400250026103A28BF78C1FBD8FF
:10023000520728BF30C148BF0B6070476E2910F0CD
:100240009586702910F0E586662914F033816529BA
:1002500014F03081672914F02D81612914F02C816C
:1002600003681B0A28BF41F08001692910F042860B
:10027000642910F03F86752910F03C866F2911F033
:100280003D85782910F0B186E92911F0D784E42959
:1002900011F0D484F52911F0D184EF2911F03A85B9
:1002A000F82910F0B0860368DB0928BF41F080010F
:1002B000632911F05884732911F05D84E32911F04A
:1002C0009587F32911F09A87002070471FB514F025
:1002D000E7F811F06DFD04000020002113F01EFB73
:1002E000401C60600020002113F002FBE0601FBD95
:1002F00010B510BD12F0D2F91146FFF7E7FF03F079
:100300002AFF12F0F9F903B4FFF7F2FF03BC12F071
:10031000FDF9000000BF00BF00BFBFF34F8F00BF5B
:1003200000BF00BFFB48006800F4E060FA490843E2
:10033000001DF849086000BF00BF00BFBFF34F8F2A
:1003400000BF00BF00BF00BFFEE70020F349F44A32
:100350008B8DC3F340330BB140F000408B8DC3F362
:10036000C03313B140F4806004E00B69012B01DB62
:1003700040F400708B8DC3F380330BB140F08040AC
:10038000CB6AC3F340431BB9CB6AC3F3405323B1D9
:1003900040F0100040F0200005E00B7F03F08003E8
:1003A0000BB140F4005091F8203003F0100333B14A
:1003B00091F82C30C3F3C0030BB140F4804091F8A6
:1003C000203003F080030BB140F400400B8C03F4A9
:1003D00080730BB140F480300B8C03F400730BB1CD
:1003E00040F400300B8C03F400630BB140F40020A8
:1003F0000B8C03F480630BB140F4802091F828301B
:1004000003F002030BB140F08070CB6AC3F30043EA
:1004100033B1CB68002B01DD402300E0802318437B
:10042000536F022B07D191F83C3003F0010363B105
:1004300040F0010009E0536F032B06D191F83C30E6
:1004400003F001030BB940F00100936F022B07D1B9
:1004500091F83C30C3F3800363B140F0020009E03F
:10046000936F032B06D191F83C30C3F380030BB993
:1004700040F00200D2F8A430012B01D140F48010EA
:10048000D2F8A830012B01D140F4001070470FB40E
:100490002DE9F04798B0A24D21A81790BDF8800033
:1004A000ADF8000001208DF8040050208DF8050003
:1004B0000DF106044FF00009BDF8800040F26442DF
:1004C000811A90427ED00BDC02287CD081287BD020
:1004D000B0F5836F16D0A0F24440002875D108E033
:1004E000022973D01D2972D0BE295BD0C729F5D14E
:1004F00025E001208DF8020000208DF803004FF068
:10050000060923E116208DF8020000208DF8030073
:100510009DF8040040F080008DF804004FF01C09A5
:1005200001202080288C6080686A60600020A060C4
:10053000A86AE060E86A2061288EA08206E1242093
:100540008DF8020000208DF803009DF8040040F0B3
:1005500080008DF804004FF02A09012020807148A6
:10056000B0F85C0060807048D0F8E80060606E48C9
:10057000D0F8EC00A0606C48D0F8F000E0606A4869
:10058000D0F8F40020616848D0F810016061664836
:10059000D0F8AC00A0610020A0830021E183218479
:1005A0006184D3E024208DF8020000208DF8030040
:1005B0009DF8040040F080008DF804004FF02A09F7
:1005C000012005E03BE0B3E06DE0B9E038E035E064
:1005D000208035F8400F401C6080E8696060686AE0
:1005E000A060A88DA081686D403DC4F80E009820E1
:1005F0004059C4F812004A48B0F8D800E082484890
:10060000B0F8DC0060834648D0F8E0006FF00041AD
:10061000884202D10020208307E04148D0F8E00062
:100620004FF4167190FBF1F020830020A08300218D
:1006300004F11C00E1832184618487E000BF00BFD6
:10064000364890F82C00C0F3C01020B13348006B3E
:10065000322800DD7AE00E208DF8020000208DF8AF
:1006600003009DF8040040F080008DF804004FF076
:100670001409012020802B48C06D022805D12A488A
:10068000D0F8B000C4F8020003E024480068C4F8C1
:10069000020022480089E08000202081FFF755FEFB
:1006A000C4F80A0052E0179850F804AB1790179856
:1006B00050F8048B1790179880C81790B8F5004F22
:1006C00024D044208DF8020000208DF803009DF80E
:1006D000040040F080008DF80400A4F800A0A4F805
:1006E0000280002603E00021201D8155761C402E4B
:1006F000F9DB002604E017F8011B201D8155761C4C
:10070000387808B1402EF6DB4FF04A090748C0F8A8
:1007100000801BE00CED00E00000FA05BC070020A3
:10072000AC5A00209C5B0020A80600203800002066
:1007300000208DF802008DF803004FF0060905E057
:10074000BDF88010F4A004F043FF00BF00BF0020FC
:100750001790B9F1000F03D04946684605F0A2FD95
:1007600018B0BDE8F0075DF814FB2DE9F04FA9B013
:10077000F64CF74DDFF8DC93F74800881190F64807
:10078000007900F07F00079012AFBE1DDFF8C8832C
:1007900008F106080020F870012038710798787178
:1007A0000020069040F246421198811A904201F0D2
:1007B0007D826BDC40F21142A0EB0201904201F01D
:1007C000788132DC40F21122A0EB0201904201F06C
:1007D000138113DC12286ED007DC02286CD00528A8
:1007E0006BD0112841F0058703E1142870D015283B
:1007F0006FD0B0F5047FF5D101F0D7B8B1F5FC7F2B
:1008000001F0238108DC022901F09080032901F026
:10081000A6801229E6D1E8E0A1F2F911002901F041
:1008200017810629DED101F024B9182901F052817F
:1008300017DC062901F0A48309DC022901F05C81A0
:10084000032901F062810529CCD101F089BB12296D
:1008500001F07281132901F081811529C2D101F0C3
:10086000DBB8302901F0A38109DC292901F0FF81DF
:100870002A2901F005822F29B4D101F08BB9322940
:1008800001F0AF813429ADD101F00BBA712901F02B
:10089000A98433DC4A297DD01CDC0D2901F08A8231
:1008A0000CDC022901F014820A2901F06C820B2968
:1008B00098D101F06DBAA4E0B0E04AE0112901F04E
:1008C000D1821F2901F02A8324298BD101F072BB28
:1008D00042E2F1E36D2901F0448408DC4C297DD02B
:1008E0006A2901F01E846B2985D101F029BC6E298B
:1008F00001F03D8470298DD101F04BBCDA296ED016
:1009000016DCAD2901F0AA8408DC732968D0A0297F
:1009100001F0DA85A12985D101F0A4BDAE2901F04D
:100920008384AF2901F08984B8298DD101F013BDEA
:10093000A1F1DB000A2881F05C86DFE810F0B10746
:100940005A0E3B045A0E5A0EA806C5065A0EC60D7C
:100950002B0E062038805420B870387940F0800083
:10096000387154227D49304610F099FD7C48B0F82A
:100970004400A6F850007BA0007886F8420079A0D9
:1009800041784320815577A0C1784420815575A0D6
:10099000017900E03DE04520815575A000792028CF
:1009A00001D1302001E072A000794621885570A065
:1009B0004179472081556EA00178482081556CA06F
:1009C0004178492081556AA081784A2081550021CB
:1009D0004B20815501200690022002E016E0FBE347
:1009E00022E06649086001F005BE40206449486085
:1009F000F9E7E86A20F080008030E8620020286390
:100A0000F1E7E86A20F08000E862ECE70020286364
:100A1000E9E740F28140FFF73AFDE4E70420574957
:100A2000086000200690DEE7B8F8020011901198E7
:100A3000B0F5966F6BD013DC40F22642A0EB0201BA
:100A4000904265D007DCA0F21340D8B1032825D02E
:100A500010285ED14AE0142931D01A29F9D138E0A2
:100A6000B0F5A06F56D005DCA0F2B34080B30328E8
:100A7000EFD189E0B0F5A46F4DD0A0F22950002845
:100A8000E7D106E100203F4988613E48A168C16185
:100A9000216901624AF6552141624EE13948216AD5
:100AA0008162616AC162A16A0163E16A41630021F6
:100AB0008163216BC1634AF6552101643DE13148F0
:100AC000616C4164616C81644AF65521C16434E112
:100AD00085E02C48216D0165616D4165A16C8165E2
:100AE000A16DC1654AF65521016626E12548616F71
:100AF0004166A16F8166E16FC166D4F8801001671D
:100B0000D4F8841041674AF65521816715E15DE00C
:100B100070E011E17CE0E5E00D0A556E68616E64FD
:100B20006C656420415054206E6F7469666963611E
:100B300074696F6E2C2041505420636F6D6D616E2F
:100B400064203D202530345800000000AC5A0020BD
:100B5000BC070020E05D0020780000203802002063
:100B6000285C002031363A32303A3234000000003E
:100B70004E6F76202039203230313700145C00204F
:100B80009C5B0020A45C0020F648B0F87E10F6487C
:100B9000C167F448D0F88010F348C0F88010F148DD
:100BA000D0F88410F048C0F88410EE48B0F88810EF
:100BB000ED48C0F88810EB48B0F88A10EA48C0F851
:100BC0008C104AF65521C0F89010B6E0E648E16D69
:100BD000C0F89C104AF65521C0F8A010ADE0E148DD
:100BE000B0F87C10E048C0F894104AF65521C0F8DF
:100BF0009810A2E0DC48D4F88810C0F8CC10D4F8E3
:100C00008C10C0F8D0104AF65521C0F8D41094E0EA
:100C1000D6480168D448C0F8E010D4484168D248AA
:100C2000C0F8E410D1488168CF48C0F8E810CF4838
:100C3000C168CD48C0F8EC10CC480169CA48C0F87A
:100C4000F010CA480169C848C0F8F010C748816967
:100C5000C548C0F8F810C548C169C348C0F8FC10C1
:100C6000C248016AC048C0F80011C048416ABE4885
:100C7000C0F80411BD48816ABB48C0F80811BB48E0
:100C8000C16AB948C0F80C114AF65521C0F81011D4
:100C900053E0B448D0F8E810B348C0F81811B14890
:100CA000D0F8EC10B048C0F81C11AE48D0F8F010E5
:100CB000AD48C0F82011AB48D0F80411AA48C0F8DC
:100CC0002411A848D0F81011A748C0F82811A54849
:100CD000D0F8AC10A448C0F82C114AF65521C0F841
:100CE00030112AE0A048216CC0F8A410E16DC0F8D2
:100CF000A810616EC0F8AC10E16EC0F8B010D4F866
:100D00009410C0F8B410982001599748C0F8B81052
:100D10009748D0F8D8109448C0F8BC109448B0F860
:100D2000E40081B29048A0F8C4109148D0F8E010D7
:100D30008D48C0F8C01000E000BF00BF8D48406C77
:100D40008949C8604AF6552008618B48406C40F0DC
:100D500001008949486446E6D8F800000590D8F8B3
:100D600004000490D8F808000390D8F80C00029012
:100D7000D8F810000190D8F8140000900598332896
:100D800076D020DC102875D00ADC74D2DFE800F0C1
:100D9000733F5273FF737373735D7659FEFD73FC7B
:100DA0002F2869D008DC112867D014287BD0202890
:100DB00075D021285FD1ABE1302871D0312870D0B7
:100DC0003228F7D1C4E03C286CD009DCA0F1340013
:100DD0000828DAD2DFE800F0E6F7F5F4F3F2F1F0F4
:100DE000B0F5C87F7ED008DC3D287CD03E287BD083
:100DF0003F287AD04028DDD146E1A0F21320002818
:100E000074D0A0F2FD10A0B38028D3D1B8E10020A7
:100E100008900BE00021594A089842F820105248E7
:100E20000068114648600898401C089008980A28F5
:100E3000F0DBABE1D8F804004B49086000200690D5
:100E4000A4E14D4904988866A0E10020089007E0DD
:100E500000214A4A089842F820100898401C08903F
:100E600008980A28F4DB46484068444948608DE108
:100E70008EE026E021E188E149E021E1D8F8040094
:100E80003F494860486808F00EFC00203A4908676E
:100E90003749D1F8D80007F08AFF77E103E03FE156
:100EA0003FE049E0F5E03448406C40F00200324950
:100EB000486433484068334948604AF655208860A2
:100EC00064E1D8F804A0C5F800A026492868486065
:100ED0000121812006F0B0FC224840682149486287
:100EE000084604E038E1DDE0E1E0C8E01EE1406AE8
:100EF000C9F808000121892006F09EFC19484168C4
:100F0000C0F8B0100121912006F096FC3EE1D8F81F
:100F100004101448C0F804110121A72006F08CFC2D
:100F200034E11048008840F480700E4908800121A7
:100F3000802006F081FC29E10A4800884FF6FF6115
:100F40000840084908800121802006F075FC1DE159
:100F5000D8F804000349C1F8E8000121A02006F0F8
:100F60006BFC13E1A8060020A45C00200800002010
:100F7000AC5A0020285C00209C5B002084080020E4
:100F8000045E0020105E0020AFE0AAE0A5E09AE039
:100F9000D8F80410F748C0F8EC100121A12006F0A1
:100FA0004BFCF3E0D8F80410F248C0F8F01001212F
:100FB000A22006F041FCE9E058E039E02CE020E016
:100FC00015E00AE0FFE7D8F80410EA48C0F8F4108A
:100FD0000121A32006F030FCD8E0D8F80410E54841
:100FE000C0F800110121A52006F026FCCEE0D8F8BB
:100FF0000410E048C0F810110121AA2006F01CFCE2
:10100000C4E0DC48008840F40070DA49088001211F
:10101000802006F011FCB9E0D64800884FF6FF5159
:101020000840D44908800121802006F005FCADE08D
:10103000D8F80400CF49C1F8AC000121902006F097
:10104000FBFB0021CB48C0F8B0100121912006F035
:10105000F3FB0121112006F0EFFBC648D0F8B000E9
:10106000009000204FF0804148628FE00021C1488D
:10107000C0F8B0100121912006F0DEFB86E007F0F9
:101080002EFCBD49C86581E007F08CFCBA49C865F3
:101090007CE00121112006F0CFFBB648D0F8B0006B
:1010A000009073E00121002006F0C6FB6EE00121F4
:1010B000282006F0C1FB69E06AE006F079FD65E0F2
:1010C00007F037FE62E0D8F80810AA48C0F8D4103C
:1010D0000121D52006F0B0FB58E0D8F80400E0620A
:1010E00054E0D8F80400A06250E0D8F80410A348F7
:1010F000C0F8D8104AF65521C0F8DC1005F002FE01
:101100009E48D0F8D800C4F89000002006903DE03A
:101110009BA348F6BA0200218120FFF7B8F935E019
:10112000049881B29348A0F8E0102FE0D8F80400AA
:10113000012801D1C4F8AC00D8F80400022802D17B
:101140000120C4F8B000D8F8040020B90020C4F889
:10115000AC00C4F8B00019E0642004F065FE72B67B
:101160008C48006820F480008A49086008460068BE
:1011700020F400100860884888490860FFF7CAF822
:1011800040F28140FFF783F900E000BF00BF2AE48E
:1011900016203870002078702820B870387940F018
:1011A0008000387128227E49304610F078F90120FD
:1011B000069018E4B8F802007A490861B8F8060009
:1011C0004861B8F804008860B8F80800C8600846AC
:1011D0000069132878D200E0B0E2DFE800F00A13DB
:1011E0001A304675757575755C637D96B3FFFEFDA7
:1011F000CA00012003F009FF00206B4948626B48D8
:1012000008602DE1012003F000FF6948664908608D
:1012100026E1012003F0F9FE0220624988610020E6
:10122000086208468068012802D15F49086102E02F
:1012300002205D4908615F485B49086010E10120B8
:1012400003F0E3FE04205749886100200862084645
:101250008068012802D15449086102E00220524905
:101260000861554850490860FAE0012003F0CDFEBE
:1012700008204C49886100200862084680680128DF
:1012800002D14949086102E00220474908614B4800
:1012900045490860E4E0022003F0B7FE48484249AF
:1012A0008860DDE0022003F0B0FE01203E49486284
:1012B00020203C4908620020886108468068012897
:1012C00003D13949486103E0C9E002203649486149
:1012D0003C4835498860C3E0022003F096FE0120B7
:1012E0003149486280202F49086200208861084601
:1012F0008068012802D12C49486102E002202A4975
:101300004861314828498860AAE0022003F07DFE48
:1013100024488068012805D12C482D498862012085
:10132000486204E02B482A49886200204862284825
:101330000BF072FC0BF03DFB0020254908620120F8
:10134000C8628DE0022003F060FE21480069204958
:1013500008600846406940424860084680698860E5
:101360001048806801283AD11848886201204862F4
:101370003AE06DE0A80600209C5B0020A45C002001
:101380004D6F746F72204F76657263757272656E01
:101390007400000030380240EFBEADDEF01F0020C8
:1013A0008408002008000020F40200205FBF00082D
:1013B000C7BF00082FC00008CBC100083BC300080E
:1013C00087BF00085DC4000865C5000835C900086E
:1013D000BC02002045C9000833E02BE00FE0F948CB
:1013E000F949886200204862F7480BF015FC0BF0C1
:1013F000E0FA0020F44908620120C86230E00220CF
:1014000003F003FEF1488068012805D1F048EE4959
:1014100088620120486204E0EA48EB4988620020C3
:101420004862E9480BF0F8FB0BF0C3FA0120E649EB
:10143000C86215E0022003F0E8FDE648E64988604E
:101440000EE0022003F0E1FDE448E349886007E094
:10145000022003F0DAFDE248DF49886000E000BFC7
:1014600000BFDA484069132876D2DFE800F00A139B
:101470001A304675757575755C637D96B3DAF8FF3D
:10148000F500012003F08FFDD648D34948600020C5
:101490008862FAE0012003F086FDD348CE49486017
:1014A000F3E0012003F07FFD0220C849C86100205D
:1014B00048620846C068012802D1C749886102E035
:1014C0000220C5498861C948C3494860DDE0012060
:1014D00003F069FD0420BD49C86100204862084648
:1014E000C068012802D1BC49886102E00220BA49E3
:1014F0008861BF48B8494860C7E0012003F053FD48
:101500000820B249C861002048620846C068012826
:1015100002D1B149886102E00220AF498861B54833
:10152000AD494860B1E0022003F03DFDB248AA4950
:10153000C860AAE0022003F036FD0120A6498862B7
:101540002020A24948620020C8610846C0680128DE
:1015500003D1A149C86103E096E002209E49C86119
:10156000A6489D49C86090E0022003F01CFD0120C0
:10157000994988628020954948620020C8610846E0
:10158000C068012802D19449C86102E00220924952
:10159000C8619B489049C86077E0022003F003FDD2
:1015A0008A48C068012805D1964887498862012089
:1015B000486204E094488449886200204862824876
:1015C0000BF02AFB0BF0F5F900207F49086201209F
:1015D000C8625AE0022003F0E6FC7B4800697A49C1
:1015E0000860084640694042486008468069886053
:1015F0007648C068012804D1824888620120486288
:1016000004E0814870498862002048626E480BF00F
:1016100003FB0BF0CEF900206B4908620120C86281
:1016200033E0022003F0BFFC6848C068012805D100
:101630007448654988620120486204E07248624942
:1016400088620020486260480BF0E6FA0BF0B1F9BE
:1016500001205D49C86218E00FE007E0FFE70220C3
:1016600003F0A1FC69485C49C8600EE0022003F069
:101670009AFC67485849C86007E0022003F093FCD1
:1016800064485549C86000E000BF00BF7FE5D8F856
:1016900002004D490860D8F806004860D8F80A00F2
:1016A0008860D8F81A00C860D8F80E000861D8F829
:1016B00012004861D8F816008861D8F81A00C8618D
:1016C000D8F81E00086262E54FF4A56038602E204D
:1016D000B870387940F0800038710120B61C26F8C7
:1016E000020C3948006830603748406870603648FE
:1016F0008068B0603448C068B0613348006AF06107
:1017000031480069C8F80E002F484069C8F8120037
:101710002D488069C8F816002B48C069C8F8160023
:1017200000203084B61E002106F12200B184F1842D
:1017300031857185B1850120069028E5B8F8020051
:10174000401E2064D8F80400E065D8F80800606600
:10175000B8F80C00E066D8F80E00C4F89400D8F889
:101760001210982001512C48D4F89410C0F8C010E1
:10177000982001592848C0F8C4107F21E06D90FBE3
:10178000F1F0264948672448D0F8D8000E90224846
:10179000D0F8E0100D91D0F8E4000C90B8F81600E5
:1017A0001D49C1F8D800B8F8180050B9B8F81A00A7
:1017B00038B941F27070C1F8E0000220C1F8E400CD
:1017C00043E02DE045C90008BC02002008000020CD
:1017D00035C9000823C80008F4020020E3C7000848
:1017E0005FC700085FBF0008E9BF00080FC100081D
:1017F00083C20008E5C30008A5BF0008C3C40008F1
:10180000BBC5000855C9000865C900081FC7000806
:10181000DFC600087BC60008AC5A0020A8060020DE
:10182000B8F81A00FE49C1F8E400B8F8180020B969
:101830006FF00040C1F8E00007E0B8F818004FF47E
:1018400016714843F649C1F8E000F548D0F8D810C1
:101850000E9881420BD1F248D0F8E0100D988142E9
:1018600005D1EF48D0F8E4100C98814201D0012056
:1018700000E000200B900B9888B10020E949086730
:101880000846406E012805D1E549D1F8D80007F097
:1018900071FA04E0E249D1F8D80007F088FA76E45A
:1018A00040F2225038602420B870387940F080002F
:1018B00038710120308034F8400F401C7080E0699E
:1018C0007060606AB060A08DB081D548B0F8D80073
:1018D000F082606D403CC6F80E0098200059C6F8B2
:1018E0001200CF48B0F8E4007083CD48B0F8E000B3
:1018F0003083CB48D0F8E0006FF00041884202D13D
:101900000020308307E0C648D0F8E0004FF416719D
:1019100090FBF1F030830020B083002106F11C0021
:10192000F183318471840120069030E4BE488078D0
:1019300000F0010018B10120C4F8AC0002E0002062
:10194000C4F8AC00B848807800F0020018B101205B
:10195000C4F8B00002E00020C4F8B00017E440F280
:10196000152038600120B870A88DC0F3403008B150
:10197000012000E00220F870D4F8AC00012804D166
:10198000F87840F00100F87001E00020F870D4F819
:10199000B000012804D1F87840F00200F87001E0AE
:1019A0000020F8700120069070E69F48C07801285A
:1019B00012D1E86A20F48040E862E86A20F008006A
:1019C0000830E862E86A20F4005000F50050E86250
:1019D000002007F080FF0EE0E86A20F00800E862CF
:1019E000E86A20F40030E862E86A20F40050E86217
:1019F000012007F070FF49E640F212203860012014
:101A0000B870A88DC0F3403008B1012000E002207A
:101A1000F8700120069039E6B8F8040044F8880F01
:101A2000B8F802006060218808B206F09DF9A1882C
:101A3000883C08B206F001FB06F0BAF806F0AAF8F6
:101A40000121D52005F0F8FE20E6D8F802A01DE619
:101A500040F20B4038600620B870387940F08000C2
:101A6000387101203080D5F800A0C6F802A0069099
:101A70000CE6D8F802A0C5F800A06C4928684860B8
:101A80000121812005F0D8FE684840686749486216
:101A90000846406AC9F808000121892005F0CCFEFB
:101AA00062484168C0F8B0100121912005F0C4FEE1
:101AB000ECE540F2124038600620B870387940F00A
:101AC0008000387101203080D5F800A0C6F802A04F
:101AD0000690DBE540F22A4038600620B87038797D
:101AE00040F08000387101203080FEF72EFCC6F8EF
:101AF000020001200690C9E5D8F80600A060A068A1
:101B0000E060D8F80A002061C0E540F21540386076
:101B10000E20B870387940F0800038710120308094
:101B20000020C6F80200A068C6F806002069C6F8C2
:101B30000A0001200690A9E5B8F802006067B8F82D
:101B40000400A067D8F80600E067D8F80A00C4F8D7
:101B50008000B8F80E00C4F8840097E540F22540F4
:101B600038601020B870387940F08000387101205A
:101B7000308034F8740F7080A088B080A068C6F8F8
:101B80000600E068C6F80A00208A743CF081012053
:101B900006907BE5D8F80600A064B8F8020020653E
:101BA000B8F804006065D8F80A00A0656EE540F258
:101BB000424038600E20B870387940F080003871AB
:101BC00001203080B4F850007080B4F85400B08028
:101BD000A06CC6F80600A06DC6F80A0001200690A9
:101BE00054E51048006E012804D102200D49086612
:101BF00006F08CF8E86AC0F3404000B146E50620E4
:101C0000C9F804004FF08040C9F808000020C9F866
:101C10000C004AF28700E064C9F81000A06C07E0ED
:101C2000AC5A00209C5B002078000020A806002011
:101C3000C9F81400206DC9F81C000020C9F818006C
:101C4000C9F8200001202861E86A20F4003000F57E
:101C50000030E862E86A20F40010E862E86A20F0E8
:101C600040004030E862A06CC9F814000EE5D8F8D6
:101C700002006064606C002801DA0020606405E501
:101C800040F23C4038600620B870387940F080005F
:101C9000387101203080606CC6F802000120069087
:101CA000F4E4D8F80200F7490860EFE440F2474056
:101CB00038600620B870387940F080003871012013
:101CC0003080F0480068C6F8020001200690DDE48C
:101CD000E86AC0F3405018B1E86AC0F3404038B930
:101CE000E86AC0F3404020B1D9F82000022800D1B2
:101CF000CCE4D5F800A0E448007940F0800018B1A9
:101D0000D8F80200824402E0DE48006882440021E4
:101D1000504607F0BCFE8346BBF1010F00D1FFE146
:101D2000E86A20F4003000F50030E862E86A20F448
:101D30000010E862E86A20F00200E8620120C9F8B9
:101D40000400C9F808A0D9F808002968884201DA17
:101D5000606C00E00020C9F80C00A068C9F8100011
:101D60002069C9F81400A069C9F81800E069C9F829
:101D70002000E86A20F010001030E862C349C86D06
:101D800006F0D9FECCE1D8F80200BE494860C7E1B0
:101D900040F2524038600620B870387940F0800038
:101DA000387101203080B7484068C6F80200012031
:101DB0000690B5E1E86AC0F3405018B1E86AC0F394
:101DC000404038B9E86AC0F3404020B1D9F820005B
:101DD000022800D1A4E1AC48007940F0800010B1A5
:101DE000D8F802A002E0A748D0F804A0002150468D
:101DF00007F04DFE8346BBF1010F00D1FAE3E86A1C
:101E000020F4003000F50030E862E86A20F40010A9
:101E1000E862E86A20F00200E8620120C9F80400E4
:101E2000C9F808A0D9F808002968884201DA606C6E
:101E300000E00020C9F80C00A068C9F81000206973
:101E4000C9F81400A069C9F81800E069C9F82000B1
:101E5000E86A20F010001030E8628C49C86D06F086
:101E6000BAFDC7E3E86AC0F3405018B1E86AC0F3AE
:101E7000404038B9E86AC0F3404020B1D9F82000AA
:101E8000022800D1B6E32069C9F81400D9F814007B
:101E900010900020109907F0FAFD8346BBF1010F66
:101EA00000D1A7E3E86A20F4003000F50030E862D2
:101EB000E86A20F40010E862E86A20F00200E862B4
:101EC0002069C9F814000120C9F80400C9F808A065
:101ED0000020C9F80C00A068C9F810002069C9F8F2
:101EE0001400A069C9F81800E069C9F82000E86A80
:101EF00020F01000E8626448C078012804D16349EA
:101F0000C86D06F0B4FE08E0D9F814004042C9F8E4
:101F100014005E49C86D06F0AAFE6BE35A48C0780B
:101F2000012802D105F09CFD01E005F099FDE86A69
:101F300020F01000E862E86A20F020002030E8621B
:101F40000520C9F8040028690D2802D128692861F4
:101F500001E00020286100204D498862C86249E301
:101F6000B8F802002062D8F804006062D8F80C00CB
:101F7000A062D8F81000E062B8F81400206339E3DA
:101F80004FF4836038601620B870387940F08000D4
:101F9000387101203080208C7080606A7060002071
:101FA000B060A06AF060E06A3061208EB0820120EB
:101FB00006901FE3E86AC0F3405018B1E86AC0F326
:101FC000404038B9E86AC0F3404020B1D9F8200059
:101FD000022800D10EE3E86A20F4003000F500305A
:101FE000E862E86A20F40010E862E86A20F48030D1
:101FF00000F58030E862E86A20F00200E862012023
:10200000C9F804000020C9F80C00A06AC9F8100043
:10201000E06AC9F81400A069C9F81800E069C9F8B5
:102020002000206A01283FD1E06AC9F81400D9F8DD
:10203000140010901448C078012812D10020109983
:1020400007F025FD8346BBF1010F04D1E86A20F4B7
:102050000030E862CEE20D48C16D032006F0BAFA06
:102060001DE01098404210900020109907F00FFDDD
:102070008346BBF1010F0DD1E86A20F40030E8621D
:10208000B8E2000000000020780000209C5B0020E7
:1020900008000020FE48C16D052006F09BFAE86AA2
:1020A00020F01000E8623BE0FA48C078012819D11E
:1020B0002868616A0844C9F80800D9F808A0002116
:1020C000504607F0E4FC8346BBF1010F04D1E86AF7
:1020D00020F40030E8628DE2ED48C16D042006F086
:1020E00079FA18E02868616A401AC9F80800D9F836
:1020F00008A00021504607F0CAFC8346BBF1010F3F
:1021000004D1E86A20F40030E86273E2E048C16D6F
:10211000062006F05FFAE86A20F010001030E8624E
:1021200068E2D8F80400DC4908670846006F0F90A1
:102130000F98C11700EBD1514912D74A516759E2A4
:1021400040F2B24038601A20B870387940F0800010
:10215000387101203080D048006F706001200690F7
:1021600048E2B8F80200CC49A1F87C0042E240F213
:10217000B54038600420B870387940F0800038717C
:1021800001203080C448B0F87C00708001200690A7
:1021900030E2C148B0F87E000A90B8F80200BE49AB
:1021A000A1F87E000846B0F87E100A98814203D05C
:1021B0000320B949C1F89C00B8F80200B649A1F85B
:1021C0007E00D8F80400C1F88000D8F80800C1F8F3
:1021D0008400B8F80C00A1F88800B8F80E00A1F847
:1021E0008A0007E24FF4976038601020B8703879A1
:1021F00040F08000387101203080A748B0F87E00A0
:102200007080A548D0F880007060A348D0F88400A2
:10221000B060A148B0F88800B0819F48B0F88A004B
:10222000F08101200690E5E1B8F802009A4908849F
:102230000121882005F000FBDCE140F2F640386027
:102240000420B870387940F0800038710120308067
:102250009148008C708001200690CBE100208F49CE
:10226000886143F6A3218D48C1618D4901624AF618
:1022700055214162022181628A49C16241F652516F
:10228000016389494163002181630221C1634AF6E8
:10229000552101648349416481644AF65521C16432
:1022A0000221016501214165804981654FF4482182
:1022B000C1654AF655210166022141668166002109
:1022C000C1660167012141674AF65521816772485D
:1022D000B0F87E107148C1676F48D0F880106F4821
:1022E000C0F880106C48D0F884106C48C0F8841096
:1022F0006948B0F888106948C0F888106648B0F896
:102300008A106648C0F88C104AF65521C0F8901023
:102310006148016F6148C0F89C104AF65521C0F829
:10232000A0105D48B0F87C105C48C0F894104AF6E4
:102330005521C0F898101E21C0F8CC100521C0F816
:10234000D0104AF65521C0F8D41059485349486076
:1023500004F0D8FC4EE14F488078202804D14F4942
:10236000C860002028647CE04A488078212804D195
:102370004A49C8600020286473E0464880782228D3
:1023800004D14649C860002028646AE0414880784A
:10239000302804D14149C8600020286461E03D48EC
:1023A0008078312804D13D49C8600020286458E075
:1023B00038488078322804D13849C8600020286421
:1023C0004FE034488078402804D13449C860002068
:1023D000286446E02F488078412804D12F49C860FE
:1023E000002028643DE02B488078422804D12B4906
:1023F000C8600020286434E026488078502804D142
:102400002649C860012028642BE0224880785128A2
:1024100004D12249C8600120286422E01D48807848
:10242000702804D11D49C8600120286419E01948AA
:102430008078712804D11949C8600020286410E010
:1024400014488078752804D11449C8600020286495
:1024500007E010488078722803D11049C860002036
:102460002864C7E04FF49D6038601420B870387954
:1024700040F0800038710120B61C26F8020CE06D97
:102480003060206E7060606EB060A06EF06011E031
:102490009C5B002078000020A8060020A45C00209F
:1024A000C0445E045515020060222F02FC7A4F01E1
:1024B00007000100B61EE06E08B1022000E0012016
:1024C00070820120069095E094E0B8F80200F84987
:1024D000C865F849D8F80400C1F8E8000121A02037
:1024E00005F0AAF9F348D8F80810C0F8EC1001215B
:1024F000A12005F0A1F9EF48D8F80C10C0F8F010B1
:102500000121A22005F098F9EA48D8F81010C0F887
:1025100004110121A72005F08FF9E648D8F814101E
:10252000C0F810110121AA2005F086F90121E14827
:10253000C0F80011A52005F07FF9DE48D0F8AC0006
:102540000F900121902005F077F9D948C06D02283D
:1025500014D1D848008840F40070D6490880012181
:10256000802005F069F9D348008840F48070D14993
:1025700008800121802005F05FF90AE0CD4800883D
:102580004FF6FF610840CB4908800121802005F00B
:1025900053F92FE040F22B5038602420B87038797E
:1025A00040F08000387101203080C148B0F85C00F4
:1025B0007080C048D0F8E8007060BE48D0F8EC00E9
:1025C000B060BC48D0F8F000F060BA48D0F8040120
:1025D0003061B848D0F810017061B648D0F8AC004E
:1025E000B0610020B083B083B083B0830120069037
:1025F00000E000BF00BF069870B19DF84C0000F0ED
:10260000800018B19DF84A00801D00E00620099066
:1026100012A8099903F046FE29B0BDE8F08F10B565
:102620000446012C0AD106F0C5FDA348A349486021
:1026300004F068FB06F0A1FE002402E000209C49A3
:10264000486410BD10B5044672B6012C04D0022CAB
:1026500006D0032C0CD107E0002007F07DF907E03D
:10266000012007F079F903E0012007F075F900BFB8
:1026700000BF8F48048062B610BD70B5904EB01F89
:10268000C08885B2012D06D0052D0BD0072D03D0B3
:102690000D2D08D105E007E074882046FFF7D2FF32
:1026A00002E001E000E000BF00BF70BD10B50146D0
:1026B00000200023824CA41FA2780F2A24D2DFE836
:1026C00002F02308230D231023122318231E232096
:1026D0000A00082019E01E200A8016E00C200A805B
:1026E00013E0122011E004200A80714C24884C80F1
:1026F0000BE0062000230A80C1F8023005E0082024
:1027000003E006200A8000E000BF00BF10BD6D4856
:1027100000216A4A9161103050F8082C6749CA615B
:1027200002680A624AF655224A6202698A6242696E
:10273000CA6282690A63C2694A6300228A63026AC2
:10274000CA634AF655220A64426B4A64426B8A6441
:102750004AF65522CA64026C0A65426C4A65826B6D
:102760008A65826CCA654AF655220A66426E4A66D6
:10277000826E8A66C26ECA66026F0A67426F4A67D5
:102780004AF655228A67C26CC1F89C204AF6552247
:10279000C1F8A020026BC1F8A420C26CC1F8A82027
:1027A000426DC1F8AC20C26DC1F8B0204549D1F8E6
:1027B000C0204249C1F8B4204249D1F8C4203F4961
:1027C000C1F8B8203F49D1F8D8203C49C1F8BC2015
:1027D0003C49B1F8E4108AB23849A1F8C42039491B
:1027E000D1F8E0203549C1F8C0204AF65522C1F899
:1027F000C8203049B1F87C203049C1F894204AF60D
:102800005522C1F89820826FC1F8CC20C26F1038D1
:10281000C1F8D0204AF65522C1F8D4202A490A68C6
:102820002649C1F8E02028494A682449C1F8E42033
:1028300025498A682149C1F8E8202349CA681F4907
:10284000C1F8EC2020490A691C49C1F8F0201E4952
:102850000A691A49C1F8F0201B498A691749C1F869
:10286000F8201949CA691549C1F8FC2016490A6AB5
:102870001249C1F8002114494A6A1049C1F80421DB
:1028800011498A6A0D49C1F808210F49CA6A0B49E2
:10289000C1F80C214AF65522C1F8102104494A6FAB
:1028A0000649C1F834214AF65522C1F8382170474B
:1028B0009C5B0020A806002007000100A45C00200B
:1028C0007E000020AC5A00200800002070B5FE4DAC
:1028D00000230C224FF48861FC4804F069F9044697
:1028E000FA4880684AF65521884204D1F748406882
:1028F000F749486002E03920F549486070BD10B5DD
:10290000F14CF448406A4AF65521884205D1F14815
:10291000C069A060EF48006A2061EE48006C4AF68A
:10292000552188420ED1EB48806A2062E948C06A8E
:102930006062E848006BA062E648406BE062E548F0
:10294000C06B2063E348C06C4AF65521884205D12C
:10295000E048406C6064DF48806C6064DD48006E75
:102960004AF6552188420BD1DA48006D2065D948D6
:10297000406D6065D748806DA064D648C06DA06585
:10298000D448D0F810014AF65521884230D1D148B8
:10299000D0F8E000D0490860CE48D0F8E4004860A4
:1029A000CC48D0F8E8008860CA48D0F8EC00C8608D
:1029B000C848D0F8F0000861C648D0F8F0000861B7
:1029C000C448D0F8F8008861C248D0F8FC00C8615B
:1029D000C048D0F800010862BE48D0F8040148623F
:1029E000BC48D0F808018862BA48D0F80C01C86227
:1029F000B848D0F8C8004AF6552188424CD1B548AD
:102A0000D0F8A4002064B348D0F8A800E065B3492A
:102A1000E06D0969884202DDB0480069E065AD48B3
:102A2000D0F8AC006066AB48D0F8B000E066A948CA
:102A3000D0F8B410A448C0F8C010A648D0F8B81018
:102A4000A148C0F8C410A348D0F8A8007F2190FB8B
:102A5000F1F0A34948679F48D0F8BC009A49C1F8F3
:102A6000D8009C48B0F8C400C1F8E4009948D0F8F8
:102A7000C000C1F8E0009B48406E012803D1D1F8A6
:102A8000D80006F077F99748406E022804D18E49A5
:102A9000D1F8D80006F08BF98B48D0F8D800002880
:102AA00004DB8948D0F8D800642807DD0A2086496D
:102AB000C1F8D800D1F8D80006F05CF98248D0F807
:102AC000E0008949884205DC7F48D0F8E000B0F595
:102AD000167F0FDA7C48D0F8E0006FF000418842A2
:102AE00003D17949C1F8E00004E041F27070764901
:102AF000C1F8E0007448D0F8E400002804DB724814
:102B0000D0F8D800642803DD02206F49C1F8E40042
:102B10007048006C4AF65521884202D16D48C06A5F
:102B200060626C48D0F830014AF65521884226D1BF
:102B30006848D0F818016A49C1F8E8006548D0F83B
:102B40001C116748C0F8EC106248D0F820116448A6
:102B5000C0F8F0105F48D0F824116148C0F80411A3
:102B60005C48D0F828115E48C0F810115948D0F8D8
:102B700030015C49C86501215948C0F80011554829
:102B8000D0F838014AF65521884204D15148D0F88E
:102B900034015449486710BD70B54B4C00234FF4C5
:102BA0009E7219464B4804F003F806464948406AAD
:102BB0004AF65521884205D14648C069A06045487B
:102BC000006A20614348006C4AF6552188420ED1C4
:102BD0004048806A20623F48C06A60623D48006B9E
:102BE000A0623C48406BE0623A48C06B20633948C1
:102BF000C06C4AF65521884205D13648406C606465
:102C00003448806C60643348006E4AF6552188422F
:102C10000BD13048006D20652E48406D60652D4811
:102C2000806DA0642B48C06DA0652A48806F4AF66D
:102C30005521884210D12748406E60672548806E34
:102C4000A0672448C06EE0672248006FC4F8800087
:102C50002048406FC4F884001E48D0F890004AF61F
:102C60005521884219D11B48B0F87C001C49A1F8B5
:102C70007E001848D0F88000C1F880001548D0F8D0
:102C80008400C1F884001348B0F88800A1F88800D7
:102C90001048B0F88C00A1F88A000E48D0F8C8009F
:102CA0004AF6552188423ED10A48D0F8A400206453
:102CB0000848D0F8A800E0650648D0F8AC00606687
:102CC0000448D0F8B00011E0AC5A0020105E00209B
:102CD000045E0020A45C0020080000200008002002
:102CE000A80600209C5B002000650400E066FE480A
:102CF000D0F8B410FD48C0F8C010FB48D0F8B810A8
:102D0000FA48C0F8C410F848D0F8BC00F749C1F838
:102D1000D800F548B0F8C400C1F8E400F248D0F893
:102D2000C000C1F8E000F048D0F8A0004AF65521F4
:102D3000884203D1EC48D0F89C00E065EA48D0F81E
:102D400098004AF65521884203D10120E849A1F8AC
:102D50007C00E548D0F8D4004AF65521884209D1D4
:102D6000E148D0F8CC00C4F88800DF48D0F8D000A3
:102D7000C4F88C00DC48D0F8DC004AF655218842C3
:102D800004D1D948D0F8D800C4F89000D648D0F87B
:102D900010014AF65521884230D1D348D0F8E000DE
:102DA000D4490860D048D0F8E4004860CE48D0F854
:102DB000E8008860CC48D0F8EC00C860CA48D0F879
:102DC000F0000861C848D0F8F0000861C648D0F8A3
:102DD000F8008861C448D0F8FC00C861C248D0F847
:102DE00000010862C048D0F804014862BE48D0F82B
:102DF00008018862BC48D0F80C01C862BA48006972
:102E00004AF65521884201D1B748C568BAA1BC48E5
:102E10000EF002FBB448D0F830014AF65521884242
:102E20000FD1B148D0F81401022807D1AE48C068CC
:102E3000722806D00120B349C86502E00120B149DB
:102E4000C86570BD70B50446AF480068052808D253
:102E5000DFE800F003081564740014B90120AA49E2
:102E6000086077E0A9A002F0B3FBFFF750FC02F086
:102E7000E3FEAB4908800220A34908606AE01CB168
:102E80000020A149086048E002F0D6FE0546A448AB
:102E90000188284602F0CCFEB0F5FA6F3DDD012036
:102EA00006F066FB06F086F9012002F0BDFF4AF647
:102EB00055208D49086103F025FF9248406C012898
:102EC00001DD03F035FF022002F0AEFF06F055FAF7
:102ED000022002F0A9FF93A002F07AFB0220FDF786
:102EE000D6FA0320924908600220924948610846B8
:102EF000C06A20F01000C8620846C06A20F02000B6
:102F0000C86205208A4948608A48C06A20F080006B
:102F10008849C86203207C4908601BE002F08CFEEF
:102F200005467F480188284602F082FE40F6B83107
:102F3000884202DD0420744908600BE04FF4003041
:102F40007D490860400108604FF4FA7002F06CFFA0
:102F5000FDF7E0F900BF6C48006870BD10B52DEDBD
:102F6000048B0446412C7DD011DC302C7BD007DC57
:102F7000202C79D0212C78D0222C41F06E80D0E208
:102F8000312C73D0322C72D0402CF6D1FEE3702C51
:102F900000F0618707DC422C6AD0502C69D0512C9C
:102FA000EBD100F0B6BE722C05D0732C7DD0752C01
:102FB000E3D100F0D0BF61480068614908605F4814
:102FC000406848605D48806888605C48C068C86048
:102FD0005A48006908615948406948615748806902
:102FE00088615648C069C8615448006A08625348FD
:102FF000406A48625148806A88625048C06AC86224
:103000004E48006B08634D48406B48634B48806BEB
:1030100088634A48C06BC8634848006C08644748E6
:10302000406C48644548806C88644448C06CC864FF
:103030004248006D08654148406D48653F4890ED45
:10304000190A084680ED190A3C4890ED1A0AB8EEB4
:10305000400A084680ED1A0A90ED1A0ABCEEC00A32
:10306000234807E0FEE3E8E26DE1E3E15CE3D4E35B
:10307000F9E3F9E380ED2B0A012032490864304876
:1030800000694863084690ED0D0AB8EEC00A10EEDC
:10309000101A084611F08CF941EC190B9FED2A0B20
:1030A00053EC102B10F036FD00E089E041EC180BDA
:1030B00010F056FC23498866214840684861204842
:1030C00090ED010AB8EEC00AD0ED190A80EE201A80
:1030D000084680ED061A1948C06E1949C8660846A8
:1030E000C06E034934E00000A45C0020AC5A00200C
:1030F000A8060020080000204B5354313031000056
:103100003C0200209C5B0020400000200D0A506F14
:10311000776572696E6720646F776E2E2E2E0000C1
:103120003C000020676F6F646279650D0A00000043
:10313000E05D0020BC07002018080240044A010896
:1031400000080020285C0020BA498C1BE332914122
:10315000C1F8E800FE48006FFE4908670846016FA5
:10316000FD48C0F8EC10FA48406FFA494867084635
:10317000416FF948C0F8F010F548806FF54988674D
:103180000846816FF448C0F8F410F148816FF248A6
:10319000C0F804110120EF49C8670846C16FEE4826
:1031A000C0F80011EA48D0F88000EA49C1F8800070
:1031B0000846D0F88010E848C0F8101100F04DBF64
:1031C000E6480068E3490860E44840684860E3482E
:1031D00080688860E148C068C860E04800690861AC
:1031E000DE4840694861DD4880698861DB48C06924
:1031F000C861DA48006A0862D848406A4862D7481D
:10320000806A8862D548C06AC862D448006B086387
:10321000D248406B4863D148806B8863CF48C06B0D
:10322000C863CE48006C0864CC48406C4864CB4806
:10323000806C8864C948C06CC864C848006D086563
:10324000C648406D4865C54890ED190A084680EDAE
:10325000190AC24890ED1A0AB8EE400A084680EDF5
:103260001A0A90ED1A0ABCEEC00ABB4880ED2B0A80
:103270000120BB490864B74800694863084690EDDF
:103280000D0AB8EEC00A10EE101A084611F090F8B8
:1032900041EC190B1FED540B53EC102B10F03AFCC2
:1032A00041EC180B10F05CFBAD498866A9484068FA
:1032B0004861A84890ED010AB8EEC00AD0ED190A9D
:1032C00080EE201A084680ED061AA448C06EA14977
:1032D000C8660846C06EA049C1F8E8009F48006F64
:1032E0009C4908670846016F9B48C0F8EC109B4852
:1032F000406F984948670846416F9748C0F8F010FA
:103300009648806F934988670846816F9248C0F855
:10331000F4109248816F9048C0F8041101208D4943
:10332000C8670846C16F8C48C0F800118B48D0F8B8
:1033300080008849C1F880000846D0F8801086488F
:10334000C0F810113AE7874800688249086085484C
:10335000406848608348806888608248C068C86068
:103360008048006908617F48406948617D488069FC
:1033700088617C48C069C8617A48006A08627948F7
:10338000406A48627748806A88627648C06AC86244
:103390007448006B08637348406B48637148806BE6
:1033A00088637048C06BC8636E48006C08646D48E1
:1033B000406C48646B48806C88646A48C06CC86420
:1033C0006848006D08656748406D4865654890ED40
:1033D000190A084680ED190A0120614908645D4810
:1033E00000694863084690ED0D0AB8EEC00A10EE79
:1033F000101A084610F0DCFF41EC190B9FED5A0B38
:1034000053EC102B10F086FB41EC180B10F0A8FACF
:10341000534988664F48406848614E4890ED010A1C
:10342000B8EEC00AD0ED190A80EE201A084680EDE9
:10343000061AC3E64E480068464908604C48406892
:1034400048604B48806888604948C068C860484800
:10345000006908614648406948614548806988615B
:103460004348C069C8614248006A08624048406AEF
:1034700048623F48806A88623D48C06AC8623C48EA
:10348000006B08633A48406B48633948806B886337
:103490003748C06BC8633648006C08643448406CD9
:1034A00048643348806C88643148C06CC8643048D4
:1034B000006D08652E48406D48652D4890ED190A4D
:1034C000084680ED190A0120254908642148006951
:1034D0004863084690ED0D0AB8EEC00A10EE101AC7
:1034E000084610F065FF41EC190B9FED1F0B53ECE4
:1034F000102B10F00FFB41EC180B10F031FA1849AB
:103500008866144840684861124890ED010AB8EE98
:10351000C00AD0ED190A80EE201A084680ED061A7E
:103520004CE6144800680B4908601248406848603F
:103530001048806888600F48C068C8600D480069FE
:1035400008610C48406948610A488069886113E055
:10355000044A010800080020A8060020884A010843
:10356000285C0020BC440108EC51B81E85E7B74137
:10357000244501088C450108FE48C069C861FD4822
:10358000006A0862FB48406A4862FA48806A8862BA
:10359000F848C06AC862F748006B0863F548406B9A
:1035A0004863F448806B8863F248C06BC863F14895
:1035B000006C0864EF48406C4864EE48806C886496
:1035C000EC48C06CC864EB48006D0865E948406D84
:1035D0004865E84890ED190A084680ED190A01206F
:1035E000E5490864E54800694863084690ED0D0A1E
:1035F000B8EEC00A10EE101A084610F0D9FE41ECE1
:10360000190B1FED270B53EC102B10F083FA41EC34
:10361000180B10F0A5F9D8498866D8484068486169
:10362000D64890ED010AB8EEC00AD0ED190A80EE36
:10363000201A084680ED061AC0E5D1480068CF4937
:103640000860CF4840684860CD4880688860CC48B2
:10365000C068C860CA4800690861C94840694861D3
:10366000C74880698861C648C069C861C448006AA3
:103670000862C348406A4862C148806A8862C0489C
:10368000C06AC862BE48006B0863BD48406B4863AF
:10369000BB48806B8863BA48C06BC863B848006C8D
:1036A0000864B748406C4864B548806C8864B44886
:1036B000C06CC864B248006D0865B148406D48658B
:1036C000AF4890ED190A084680ED190A0120AA4971
:1036D0000864AA4800694863084690ED0D0AB8EEF0
:1036E000C00A10EE101A084610F062FE41EC190BE9
:1036F0009FEDA40B53EC102B10F00CFA41EC180BBF
:1037000010F02EF99C4988669C48406848619B48A7
:1037100090ED010AB8EEC00AD0ED190A80EE201A29
:10372000084680ED061A49E5984800689349086004
:103730009648406848609548806888609348C068AB
:10374000C8609248006908619048406948618F48A4
:10375000806988618D48C069C8618C48006A0862C8
:103760008A48406A48628948806A88628748C06A95
:10377000C8628648006B08638448406B486383488E
:10378000806B88638148C06BC86300E0C0E07F48FD
:10379000006C08647D48406C48647C48806C886498
:1037A0007A48C06CC8647948006D08657748406DF8
:1037B0004865764890ED190A084680ED190A0120FF
:1037C0006D4908646D4800694863084690ED0D0A2C
:1037D000B8EEC00A10EE101A084610F0E9FD41ECF0
:1037E000190B9FED680B53EC102B10F093F941EC83
:1037F000180B10F0B5F86049886660484068486169
:103800005E4890ED010AB8EEC00AD0ED190A80EECC
:10381000201A084680ED061AD0E45D480068574932
:1038200008605B484068486059488068886058482C
:10383000C068C860564800690861554840694861D9
:103840005348806988615248C069C8615048006A1D
:1038500008624F48406A48624D48806A88624C4816
:10386000C06A02E0DEE054E1CAE1C8624848006B89
:1038700008634748406B48634548806B8863444809
:10388000C06BC8634248006C08644148406C48649F
:103890003F48806C88643E48C06CC8643C48006DFA
:1038A00008653B48406D4865394890ED190A08465F
:1038B00080ED190A012030490864304800694863E6
:1038C000084690ED0D0AB8EEC00A10EE101A084630
:1038D00010F06EFD41EC190B9FED2A0B53EC102BF1
:1038E00010F018F941EC180B10F03AF822498866EC
:1038F000224840684861214890ED010AB8EEC00AAC
:10390000D0ED190A80EE201A084680ED061AA4E3CD
:1039100020480068194908601E48406848601D48F2
:10392000806888601B48C068C8601A4800690861E0
:103930001848406948611748006A0862154880695C
:1039400088611448C069C8611248406A48621148D9
:10395000806A88620F48C06AC8620E48006B0863BC
:103960000C48406B48630B48806B88630948C06B08
:10397000C86311E08C450108285C00200008002085
:10398000F4450108000000860FB599415C46010826
:10399000C44601082C470108FE48006C0864FD4835
:1039A000406C4864FB48806C8864FA48C06CC8640A
:1039B000F848006D0865F748406D4865F54890ED9A
:1039C000190A084680ED190A0120F3490864F348F2
:1039D00000694863084690ED0D0AB8EEC00A10EE83
:1039E000101A084610F0E4FC41EC190B9FEDEC0BAB
:1039F00053EC102B10F08EF841EC180B0FF0B0FFC9
:103A0000E5498866E54840684861E44890ED010A68
:103A1000B8EEC00AD0ED190A80EE201A084680EDF3
:103A2000061A1AE3E0480068DC490860DE4840688E
:103A30004860DD4880688860DB48C068C860DA4854
:103A400000690861D84840694861D7488069886141
:103A5000D548C069C861D448006A0862D248406A43
:103A60004862D148806A8862CF48C06AC862CE483E
:103A7000006B0863CC48406B4863CB48806B88631D
:103A8000C948C06BC863C848006C0864C648406C2D
:103A90004864C548806C8864C348C06CC864C24828
:103AA000006D0865C048406D4865BF4890ED190A33
:103AB000084680ED190A0120B7490864B748006933
:103AC0004863084690ED0D0AB8EEC00A10EE101AD1
:103AD000084610F06DFC41EC190B9FEDB10B53EC57
:103AE000102B10F017F841EC180B0FF039FFAA4912
:103AF0008866AA4840684861A84890ED010AB8EE77
:103B0000C00AD0ED190A80EE201A084680ED061A88
:103B1000A3E2A6480068A1490860A448406848603C
:103B2000A24880688860A148C068C8609F48006952
:103B300008619E48406948619C48806988619B484B
:103B4000C069C8619948006A08629848406A48623A
:103B50009648806A88629548C06AC8629348006B3C
:103B600008639248406B48639048806B88638F4835
:103B7000C06BC8638D48006C08648C48406C486416
:103B80008A48806C88648948C06CC8648748006D26
:103B900008658648406D4865844890ED190A0846D6
:103BA00080ED190A01207C4908647C48006948635B
:103BB000084690ED0D0AB8EEC00A10EE101A08463D
:103BC00010F0F6FB41EC190B9FED750B53EC102B2D
:103BD0000FF0A0FF41EC180B0FF0C2FE6E49886693
:103BE0006E48406848616D4890ED010AB8EEC00A21
:103BF000D0ED190A80EE201A084680ED061A2CE254
:103C00006B480068654908606948406848606848D2
:103C1000806888606648C068C86065480069086157
:103C20006348406948616248806988616048C0694A
:103C3000C8615F48006A08625D48406A48625C4843
:103C4000806A88625A48C06AC8625948006B086333
:103C50005748406B48635648806B88635448C06B34
:103C6000C8635348006C08645148406C486450482D
:103C7000806C88644E48C06CC8644D48006D08650F
:103C80004B48406D48654A48806D88654848C06D1E
:103C9000C8654748006E0866454890ED190A084611
:103CA00080ED190A01203C4908643C4800694863DA
:103CB000084690ED0D0AB8EEC00A10EE101A08463C
:103CC00010F076FB41EC190B9FED3A0B53EC102BE7
:103CD0000FF020FF41EC180B0FF042FE2E498866D2
:103CE000084690ED1A0ADFED350A80EE201A80EDC5
:103CF0001A1A2A4840684861284890ED010AB8EE2F
:103D0000C00AD0ED190A80EE201A084680ED061A86
:103D1000A3E12B48006821490860294840684860B1
:103D20002748806888602648C068C86024480069C1
:103D300008612348406948612148806988612048BA
:103D4000C069C8611E48006A08621D48406A48622E
:103D50001B48806A88621A48C06AC8621848006BAB
:103D600008631748406B48631548806B88631448A4
:103D7000C06BC8631248006C08641148406C48640A
:103D80000F48806C88640E48C06CC8640C48006D95
:103D9000086517E02C470108285C00200008002077
:103DA000CDCCCC5455F59B4194470108FC47010804
:103DB00034490108D7A3703D0AD74A400000C848DB
:103DC0009C490108FE48406D4865FD48806D886546
:103DD000FB48C06DC865FA48006E0866F84890ED6B
:103DE000190A084680ED190A0120F6490864F648C8
:103DF00000694863084690ED0D0AB8EEC00A10EE5F
:103E0000101A084610F0D4FA41EC190B1FED170BED
:103E100053EC102B0FF07EFE41EC180B0FF0A0FDC1
:103E2000E8498866084690ED1A0A5FED1C0A80EEA4
:103E3000201A80ED1A1AE44840684861E24890ED83
:103E4000010AB8EEC00AD0ED190A80EE201A084621
:103E500080ED061A01E1DD480068DB490860DB48B7
:103E600040684860D94880688860D848C068C860A1
:103E7000D64800690861D54840694861D3488069DF
:103E80008861D248C069C861D048006A0862CF48DA
:103E9000406A4862CD48806A8862CC48C06AC8627D
:103EA000CA48006B0863C948406B4863C748806BC9
:103EB0008863C648C06BC863C448006C0864C348C4
:103EC000406C4864C148806C8864C048C06CC86459
:103ED000BE48006D0865BD48406D4865BB4890ED23
:103EE000190A084680ED190A0220B6490864B64846
:103EF00000694863084690ED0D0AB8EEC00A10EE5E
:103F0000101A084610F054FA41EC190B1FED570B2C
:103F100053EC102B0FF0FEFD41EC180B0FF020FDC1
:103F2000A8498866084690ED1A0A5FED5C0A80EEA3
:103F3000201A80ED1A1AA44840684861A24890ED02
:103F4000010AB8EEC00AD0ED190A80EE201A084620
:103F500080ED061A81E09E4800689B4908609C48F5
:103F6000406848609A48806888609948C068C8601E
:103F7000974800690861964840694861944880699B
:103F800088619348C069C8619148006A0862904896
:103F9000406A48628E48806A88628D48C06AC862FA
:103FA0008B48006B08638A48406B48638848806B85
:103FB00088638748C06BC8638548006C0864844880
:103FC000406C48648248806C88648148C06CC864D6
:103FD0007F48006D08657E48406D48657C4890EDDF
:103FE000190A084680ED190A0220764908647648C5
:103FF00000694863084690ED0D0AB8EEC00A10EE5D
:10400000101A084610F0D4F941EC190B1FED970B6C
:1040100053EC102B0FF07EFD41EC180B0FF0A0FCC1
:1040200068498866084690ED1A0A6748D0ED190A73
:1040300080EE201A084680ED1A1A634840684861ED
:10404000614890ED010AB8EEC00AD0ED190A80EE81
:10405000201A084680ED061A00BF00BFBDEC048B95
:1040600010BD01465B4AD268412A45D010DC302A97
:104070002ED006DC202A1CD0212A1FD0222A63D170
:1040800021E0312A29D0322A2CD0402A5CD12EE0DE
:10409000702A45D006DC422A33D0502A36D0512A25
:1040A00052D138E0722A45D0732A48D0752A4BD1B4
:1040B0003BE000202022434B5A644AE001202122A9
:1040C000404B5A6445E0022022223E4B5A6440E0B5
:1040D000032030223B4B5A643BE004203122394B11
:1040E0005A6436E005203222364B5A6431E006200D
:1040F0004022344B5A642CE007204122314B5A6451
:1041000027E0082042222F4B5A6422E00920502247
:104110002C4B5A641DE00A2051222A4B5A6418E0A5
:104120000B207022274B5A6413E00C207522254B7C
:104130005A640EE00D207222224B5A6409E00E20D0
:104140007322204B5A6404E0002020221D4B5A6445
:1041500000BF00BF70472DED0C8B84B000BF00BFC7
:1041600000BF00BF00BF00BF1B4D1C4C1C4E10F019
:1041700097F900F076FF05F075FA1A49486601F0E4
:104180000FFD642001F05EFE01F07AFD01F09DFD5F
:1041900002F0C9F905F00EF8FEF7FEFCFEF796FBFB
:1041A00001F06EFE019820F47C100190019820F43B
:1041B000FE400190019820F07F000190019813E0EB
:1041C0009C490108285C0020000800206448010880
:1041D000CC480108A45C0020E05D0020BC07002062
:1041E000AC5A00209C5B002001F054FF08F010FA4C
:1041F00001F0ACFA00F0A0FD06F070FD05F017FF2D
:1042000002F008FB4020FE49086008F0EDFD642044
:1042100008F0C9FD08F0CDFB642008F065FC08F04B
:1042200085FC03F0D3FC642001F0FEFD05F0A5F849
:10423000642001F0F9FD2020F24948640020086064
:10424000E06A20F40040E06262B6EF48406E022867
:1042500009D1EE49486805F026FAED49D1F8D800B1
:1042600004F0A5FD08E0E848406E012804D1E849C3
:10427000D1F8D80004F07EFD012005F0DAF9E2491A
:10428000486E0AF091FD0CF0E7FB00200CF05BFC9F
:104290000CF0FEFADF480BF02DF94FF420700CF013
:1042A00019FC142001F0C0FDDB48D0F80E20DBA182
:1042B0004FF4FA600AF056F901F0BEFC0AF022FB56
:1042C0008046B8F1000F47D107F0DDFCDA4ADBA1E8
:1042D0004FF4FA600AF046F9D748801FD0F8020080
:1042E000C8490860D448801FD0F80200039042F605
:1042F000FE220398811A90421BD009DCA0F51850C9
:10430000A0F58B7048B107280BD013281DD10CE005
:10431000072912D0132918D113E04020B949486465
:1043200014E04120B749486410E04220B549486490
:104330000CE03020B349486408E03120B1494864BA
:1043400004E03220AF49486400E000BF00BFAD4840
:10435000406CC049C8600EE0BE49C868FFF781FEE6
:104360000746A8488767BC4800EB0712BBA14FF47B
:10437000FA600AF0F7F8A349486CFEF7EFFD02F087
:10438000BFFDFEF7BCFAE06A20F48040E062E06A1C
:1043900020F008000830E062E06A20F4005000F5E8
:1043A0000050E062002005F096FA4FF48030B149E9
:1043B000C1F8AC000121902003F03EFAAE4890ED28
:1043C0001A0ABCEEC00AAB4880ED2B0A0021C0F8E7
:1043D000B0100121912003F02FFA0121112003F0E8
:1043E0002BFA642001F020FD0121112003F024FAB2
:1043F000A048D0F8B00040F6C411884205DC9D48C2
:10440000D0F8B0004942884215DAE06A20F48040D2
:1044100000F58040E062E06A20F00800E062E06AB7
:1044200020F40050E062012005F055FA93A14FF40A
:10443000FA600AF097F88748C068722803D0854868
:10444000C068732820D103F015FB02206E49C865AF
:104450008848B0F800A00846C06D022817D18548EA
:10446000008840F40070834908800121802003F017
:10447000E3F98048008840F480707E49088001217B
:10448000802003F0D9F902E001205F49C8655E4849
:10449000406E022803D15D49486805F004F9FDE348
:1044A00001F0B2FE8146B9F1900F02D17BA001F07C
:1044B000B0F88148D0F80001012805D1FCF755F982
:1044C00002207D49C1F8000101F001FF01F0D2FC9A
:1044D00000287DD0794890F82C00C0F3C01018B1A6
:1044E00040F28140FBF7D3FF754800680A2808DADC
:1044F00004207449086072480068401C70490860D4
:1045000031E06F4800680A280DDB6D480068142808
:1045100009DA4FF480206B49086069480068401C44
:10452000674908601FE0A08DC0F3803020B153A11F
:104530004FF4FA600AF016F80020614908606248FA
:104540000068401C604908600846006802280ADBD1
:10455000002008602C48006E012804D15BA14FF4B4
:10456000FA6009F0FFFF2848C06D022846D10121FA
:10457000112003F061F90121282003F05DF92148A1
:10458000406C722802D0732806D102E0DFF854A1F3
:1045900005E0DFF854A102E0DFF848A100BF00BF4A
:1045A0003448D0F80801504506DC3248D0F80801FC
:1045B000CAF10001884221DA012013490866C86562
:1045C0002C4800884FF6FF6108402A49088000E027
:1045D00040E30121802003F02FF903F041FA00208D
:1045E0000949086341480068022803D140F22B5072
:1045F000FBF74DFF3D480068022879E080E00000AD
:1046000018080240285C00209C5B0020045E00200B
:10461000AC5A0020745B01083802002054686F72A5
:104620006C616273204B53543130310A53775265B9
:1046300076202530365800005260002053746167A0
:104640006520636F6E6E65637465643A0A252E3863
:1046500073000000A45C00205C05002053746167B7
:1046600065205065727369737465643A0A252E3843
:1046700073000000A80600200008002057726F6E2B
:1046800067205374616765200A5475726E206F66E7
:1046900066204B535431303100000000496E766182
:1046A0006C696420415054206D65737361676520A7
:1046B000666F726D61742E0078000020BC070020C8
:1046C0004400002018040240540000205365727614
:1046D0006F204572726F72200A486F6D65205374A7
:1046E00061676500B8050100E0930400145C0020D8
:1046F00006D1FC4B48F6BB0200218120FBF7C7FE28
:1047000004F0A6FFF849C861C86904F0D2FFF64971
:1047100008620846006B20B9F34A316CD06905F095
:10472000EFFFF2480068012121EA5020EE49C862FB
:10473000C86A08F01CFCEC4948620846406A10B39D
:10474000EB48C06AC0F3404010B9E9480069D0B1F5
:104750000320E84908600220E5494861002008611B
:104760000846C06A20F01000C8620846C06A20F0FF
:1047700020002030C8620520DE49486003F070F94F
:104780000020D9494862D84B9B6A0BB1012300E055
:1047900000231A46D44BD969586A343308F0A5FD72
:1047A000D1490863086B09F018F9D3480069012161
:1047B00021EA1020CC494865486DFEF743FBCA4901
:1047C00088620846006B002876D10846406B0028B6
:1047D00072D04FF0010B04E2C348406B00EA0B00BB
:1047E000402832D00CDC082826D004DC01287CD0FC
:1047F00002287BD110E0102846D02028F9D15CE0B7
:10480000802874D0B0F5807F20D0B0F5007F32D002
:10481000B0F5806FEDD10EE07F21F06D90FBF1F0EF
:10482000B6494867B6480068022803D140F22250D2
:10483000FBF72DFED2E100BFB1480068022803D18A
:1048400040F22250FBF723FEC8E1C7E1AD4890EDEE
:10485000340AAD48D0ED050A20EE200ABDEEC00AAC
:1048600086ED090AA6480068022803D14FF4836048
:10487000FBF70DFEB2E1A2480068022803D140F226
:104880002B50FBF704FEA9E19948808DC0F340301E
:1048900088B9E06A20F48040E062E06A20F0080015
:1048A0000830E062E06A20F4005000F50050E06259
:1048B000002005F010F891E19BE18D48808DC0F358
:1048C0004030F8B103F0CCF8E06A20F01000E0626C
:1048D000E06A20F020002030E06205206860E06A95
:1048E00020F48040E062E06A02E017E075E10AE04F
:1048F00020F00800E062E06A20F40050E06201204D
:1049000004F0E9FF6AE18149486CFEF727FB02F0F9
:10491000F7FA7E48406C7C49C8605FE17448808D3E
:10492000C0F34030002876D07148808DC0F3C0308D
:10493000002870D07548406C70287CD1714890ED8B
:1049400034AA90ED340A7048D0ED050A20EE200A12
:10495000F0EE409A6B48D0ED358A3AEE688A18EE50
:10496000100A0FF025FD41EC1C0BB0EE4C0AF0EEE6
:104970006C0A0EF0A5FAB0EE40BAF0EE60BA51EC57
:104980001B0B0EF0EDFF09EE900A5F4890ED050A53
:1049900060EE08AA9FED5E0AF4EEC09AF1EE10FAFE
:1049A0003BDDB5EEC08AF1EE10FA19DD90ED050A97
:1049B000DFED580A20EE200AF0EE409AD0ED050A0D
:1049C000B0EE690A18EE200AB0EE40DA484890EDE1
:1049D000000AB8EEC00A30EE0D0AB0EE409A25E0AB
:1049E000494890ED050ADFED4B0A20EE200AF0EE73
:1049F000409AD0ED050AB0EE690A08EE200AB0EE42
:104A000040DA3B4890ED000AB8EEC00A30EE0D0ADD
:104A1000B0EE409A0AE051E00DE0354890ED000A12
:104A2000B8EEC00A30EE2A0AB0EE409ABDEEC90ACE
:104A30008DED020A0DE0334890ED340A3248D0ED96
:104A4000050A20EE200AB0EE409ABDEEC90A8DEDAF
:104A5000020AE06A20F4003000F50030E062E06A0B
:104A600020F40010E062E06A20F00200E062012021
:104A700068600298A860A8682168884201DA706CB2
:104A800000E00020E860B068286130696861B069C2
:104A9000A861F069286294F82C00C0F3C01028B116
:104AA000E06A20F010001030E06203E0E06A20F0DD
:104AB0001000E0620C49C86D03F08DFF0C48808D3A
:104AC000C0F3C03068B91148006C02282BD118EE31
:104AD000900A0FF06DFC41EC1B0B842053EC1B2B58
:104AE0001AE079E0CC6201089C5B002010080240CB
:104AF000BC070020E05D002000000240A806002066
:104B0000145C0020AC5A0020A45C0020285C00202B
:104B1000000034430000B44373A100904FF47A7056
:104B200009F020FD58E07648406C732803D07448A3
:104B3000006C722843D1734890ED340A7248D0ED6E
:104B4000050A20EE200AB0EE409ABDEEC90A8DEDAE
:104B5000020AE06A20F4003000F50030E062E06A0A
:104B600020F40010E062E06A20F00200E062012020
:104B700068600298A860A8682168884201DA706CB1
:104B800000E00020E860B068286130696861B069C1
:104B9000A861F069286294F82C00C0F3C01028B115
:104BA000E06A20F010001030E06203E0E06A20F0DC
:104BB0001000E0625549C86D03F00DFF0CE018EEDF
:104BC000900A0FF0F5FB41EC1B0B53EC1B2B50A193
:104BD0004FF47A7009F0C6FC00E000BF00BF4FEA56
:104BE0004B0BBBF1000F7FF4F7AD00204749486342
:104BF00000BF4648806A012819D14B4800F0E8FC04
:104C00000220FBF744FC02F02BFF052068604748B8
:104C1000C06A20F010004549C8620846C06A20F00A
:104C20002000C8620846C06A20F08000C862374889
:104C3000406800280DDD354801794068401E334A40
:104C4000506001F0040010B10AF03DFA01E00AF0F2
:104C50003FFA00BFA08DC0F3403018B105F042FC10
:104C600005F0FAF9324840683149C1F8A00004F073
:104C70004AF83048C06A01281DD12E48006B2C49E3
:104C8000D1F8A010884205DB2A48006B2849496802
:104C900088420EDD2748006B254900E022E0D1F86C
:104CA000A010884207DC2348006B214949688842EC
:104CB00001DB07F0D6FF07F0C3FC07F0CBFC07F0E1
:104CC000D0FD00201149086404F09DF90F48006CE4
:104CD000012803D10D49486CFDF7A1FC04F088FEC2
:104CE00004F04EFEFFF7DCBB417420252E34662510
:104CF000630A486F6D65205374616765202000006A
:104D0000285C0020AC5A0020A45C00209C5B0020A2
:104D1000417420252B2E3466206D6D0A486F6D6519
:104D200020537461676500000C310008BC07002047
:104D3000A8060020BC020020864A126842F48022A5
:104D4000844B1A60834A103A1268834B1A43814B92
:104D5000103B1A60814A126822F480127F4B1A605D
:104D60001A46126842F400121A601A1D126822F4E0
:104D700080621B1D1A60794A0C32126822F44012BC
:104D8000764B0C331A601A1F126822F440121B1F54
:104D90001A60724A526A22F4706242F4E0636F4A07
:104DA0005362126822F480026C4B1A601A46126831
:104DB00042F400021A60694A0C32126822F440027E
:104DC000664B0C331A60654A526A22F4704242F410
:104DD000E043624A53626249881040F26D12614BAF
:104DE0001A8000225F4B08331A801B1D1A805D4A0F
:104DF000121D128842F400525A4B1B1D1A80594A48
:104E00000C32128842F0C002564B0C331A80564ABC
:104E1000926D22F00102544B9A6500E000BF524AA5
:104E2000926D02F00102002AF8D14F4A926D22F0F1
:104E300060624D4B9A651A46926D42F000629A6527
:104E40001A46926D42F488629A65464A121F1A66A3
:104E50000022DA651A46926A22F001029A6200E0A4
:104E600000BF414A926A02F00102002AF8D13E4A8C
:104E7000926A22F060623C4B9A621A46926A42F051
:104E800000629A621A46926A42F4A0629A62354AB5
:104E9000121F1A63354A5A631A15DA62314A083A00
:104EA000128822F040022F4B083B1A802D4A121D17
:104EB000128842F00C022B4B1B1D1A802A4A926A60
:104EC00042F00102284B9A6270472749C96AC1F52E
:104ED0008061274A1268914202D14FF6FF700FE0BD
:104EE00023490A680968491C214B19601F49885CDD
:104EF00019460968B1F5806F02D100211A46116088
:104F00007047194A926D22F00102174B9A6500E032
:104F100000BF154A926D02F00102002AF8D1124A30
:104F20005066D1650F4A083A128822F040020D4BB4
:104F3000083B1A804FF000620B4B9A601A46926D44
:104F400042F001029A65704706480838008800F070
:104F50004000704740380240020020000004024038
:104F6000007A030A0848004000600240AC080020B4
:104F70005C00002010B14FF4004101E04FF000410F
:104F8000FE4A1160704708B1042101E04FF480210E
:104F9000FB4A1160704708B1082101E04FF400217D
:104FA000F84A91617047012800D102E0022800D13F
:104FB000002008B1042101E04FF48021F24A116081
:104FC00068B9EE491839096841F00401EB4A183A0A
:104FD00011601146096821F00801116014E0E749E9
:104FE0001839096821F00C01E44A183A1160E349C4
:104FF0000C39096821F00401E04A0C3A11601146AD
:10500000096821F0080111607047012800D102E011
:10501000022800D1002010B14FF4004101E04FF010
:105020000041D94A116058B9D649096841F00401D4
:10503000D44A11601146096821F0080111600FE09F
:10504000D049096821F00C01CE4A11601146C968A7
:1050500021F00401D1601146C96821F00801D16036
:105060007047CA48006840F00100C8490860C54858
:10507000006820F00300C34908600846C06820F0BB
:105080000100C8600846C06820F00200C8600846F9
:10509000006820F00C0008600846C06820F004009A
:1050A000C8600846C06820F00800C860084600686C
:1050B00040F4A87008600846006820F42870086072
:1050C0000846806940F0100088610846006820F4B6
:1050D000403008600846C06820F48030C860084648
:1050E000C06820F40030C8600846006820F04040E6
:1050F00008600846C06820F08040C8600846C06864
:1051000020F00040C860A148006840F002009F49BC
:1051100008609A481838006840F01100974918391B
:1051200008600846006820F0220008609348006884
:1051300040F48030914908600846006840F48020BF
:1051400008608E481838006840F004008B49183910
:1051500008600846006820F008000860874800687A
:1051600040F400308549086084481838006820F011
:10517000C00082491839086080480C38006820F067
:1051800040007E490C3908600846006820F0800025
:1051900008607A481838006820F440707749183958
:1051A000086076480C38006820F4807073490C3928
:1051B00008600846006820F4007008606F481838DE
:1051C000006820F440606D49183908606B480C385D
:1051D000006820F4806069490C390860084600685E
:1051E00020F40060086065481838006820F44050DA
:1051F00062491839086061480C38006820F4805012
:105200005E490C3908600846006820F400500860C8
:105210005A481838006820F4404058491839086046
:1052200056480C38006820F4804054490C39086016
:105230000846006820F400400860504818380068AC
:1052400020F440304D49183908604C480C3800684B
:1052500020F4803049490C3908600846006820F481
:105260000030086045481838006820F44020434961
:105270001839086041480C38006820F480203F4904
:105280000C3908600846006820F4002008603B489C
:105290001838006840F0AA403849183908600846B4
:1052A000006820F02A4008603448006840F08050D0
:1052B000324908600846006840F00050086008461F
:1052C000006840F4804008600846006840F00040F4
:1052D00008602E48006840F004002C4908602A4805
:1052E0001838006840F0550027491839086008460A
:1052F000006820F0AA0008601020234908602248B6
:105300001838006840F480701F4918390860084652
:10531000006820F4007008601B481038006820F412
:10532000407019491039086017481838006820F48F
:10533000406015491839086013480C38006820F49B
:10534000406011490C3908600F48006840F4803013
:105350000D4908600846006840F4003008600846BF
:10536000006840F4802008600846006840F400208F
:1053700008600548183800680AE000001804024078
:10538000180C024000000240180802403038024069
:1053900020F440607B4908607A480C30006820F4B3
:1053A000806078490C3108600846006820F400608D
:1053B00008607448006840F4A040724908600846DC
:1053C000006820F4204008606E481830006840F003
:1053D00040006C49183108600846006840F08000C1
:1053E00008606848006820F44030664908606548F5
:1053F0000C30006820F4803062490C3108600846A7
:10540000006820F4003008605E48006820F4402006
:105410005C4908605B480C30006820F480205949E2
:105420000C3108600846006820F4002008605548E8
:10543000006820F040605349086052480C30006812
:1054400020F080604F490C3108600846006820F069
:10545000006008604B48006820F0405049490860EF
:1054600048480C30006820F0805046490C310860F4
:105470000846006820F0005008604248006840F08C
:105480008040404908600846006820F000400860FD
:105490003C481830006840F400403A491831086030
:1054A0003948006840F0080037490860374800680C
:1054B00040F01000354908603248006820F02000B4
:1054C0003049086031481830006840F004002F4926
:1054D0001831086070472E48006820F00C002C49F5
:1054E0000860042027491831086000BF00BF00BFD2
:1054F000BFF35F8F00BF00BF00BF254810300068BA
:10550000C0F3400070474FF480211E4A18321160EA
:1055100008B1022101E04FF400311D4A1832116038
:105520001B49096841F00401194A11607047194884
:10553000006820F00C00174908604FF40040114942
:105540001831086000BF00BF00BFBFF35F8F00BF0E
:1055500000BF00BF0F480069C0F3400070474FF024
:105560000041084A1832116008B1022101E04FF4ED
:105570000031084A91611146096841F00401116047
:10558000704700000008024030380240000C024022
:10559000000402400000024010B558480068B0B155
:1055A000FFF7D2FC98B15548016855480068FFF7ED
:1055B000A8FC534800685349884202D101F5806035
:1055C00000E050484E49086000204C49086010BD7A
:1055D0000FB438B505A8009048480068B0F5806F52
:1055E00002D349A000F015F845490968434A1268FA
:1055F0008818009A04990BF005FC04463F4800689F
:1056000020443E49086000200090204638BC5DF8E8
:1056100014FB0446214644A0FFF7DAFF01E0FFF740
:10562000BBFFFCE72DE9F04105460E460027444844
:10563000006808B9434805603DE0082C04D00A2CF6
:105640001DD00D2C20D119E03D480068A8B10821DB
:105650003DA0FFF7BDFF20213BA0FFF7B9FF0821C8
:1056600039A0FFF7B5FF36480068401E344908608E
:1056700034480068401E334908601BE000BF012722
:1056800000202F49086015E02D480068B04210D274
:1056900021462DA0FFF79CFF2A4909680C70294874
:1056A0000068401C2749086025480068401C2449C0
:1056B000086000BF00BFFFF708FC04464FF6FF710B
:1056C0008842BAD16FB100201E49096808701D4890
:1056D0000068401C1B49086008460068401BBDE884
:1056E000F0810020FBE710B500E000BFFFF72CFCC5
:1056F0000028FAD0FFF750FF10BD00006400002022
:1057000060000020AC0C0020436F6E736F6C65204E
:105710007072696E7420627566666572206F766558
:1057200072666C6F770000000D0A45786974207707
:10573000697468206572726F723A202573000000E8
:10574000680000206C00002025630000F948006814
:1057500040F01000F7490860F64814380068F64930
:105760000843F44914390860F448006820F48020A4
:10577000F24908600846006840F4002008600846C6
:10578000406820F4007048600846C06820F440205B
:10579000C8600846806820F4402088600846406A57
:1057A00020F0F00040F07001E4484162006820F40D
:1057B0008010E24908600846006840F40010086064
:1057C0000846C06820F40010C8600846C06840F46D
:1057D0008010C8600846406A20F4706040F4E061C0
:1057E000D6484162C002D54988610846006840F049
:1057F000807008600846006820F000700860084665
:10580000806840F0407088600846006820F44000DE
:1058100008600846C06820F40000C8600846C068F8
:1058200040F48000C86040F2D920C54908810020BA
:10583000088288820846808940F4005088810846A2
:10584000808A40F0C0008882BE48006820F00100D5
:10585000BC49086000E000BFBA48006800F00100E1
:105860000028F8D1B748006820F06060B5490860AA
:105870000846006840F0006008600846006840F490
:1058800088600860AE48001DAE49083108600020FD
:10589000091F0860AB487838006820F00100A9496A
:1058A0007839086000E000BFA6487838006800F04A
:1058B00001000028F7D1A3487838006820F0606024
:1058C000A049783908600846006840F00060086028
:1058D0000846006840F4A06008609948001D994996
:1058E000703908609848091D086008159549743991
:1058F00008609348008820F04000914908800846DD
:10590000808940F00C0088818E487838006840F02B
:1059100001008C497839086070478648001F00688C
:1059200040F400308349091F086008460068824936
:1059300008438049091F08608048006820F48020DF
:105940007E4908600846006840F400200860084668
:10595000406820F4007048600846C06820F4402089
:10596000C8600846806820F4402088600846406A85
:1059700020F0F00040F0700170484162006820F4AF
:1059800080106E4908600846006840F40010086006
:105990000846C06820F40010C8600846C06840F49B
:1059A0008010C8600846406A20F4706040F4E061EE
:1059B00062484162C002614988610846006840F05F
:1059C000807008600846006820F000700860084693
:1059D000806840F0407088600846006820F440000D
:1059E00008600846C06820F40000C8600846C06827
:1059F00040F48000C86040F2D9205149088100205D
:105A0000088288820846808940F4005088810846D0
:105A1000808A40F0C00088824A48006820F0010077
:105A20004849086000E000BF4648006800F00100F7
:105A30000028F8D14348006820F0606041490860C0
:105A40000846006840F0006008600846006840F4BE
:105A5000886008603A48001D3A4908310860002013
:105A6000091F086037487838006820F00100354980
:105A70007839086000E000BF32487838006800F0EC
:105A800001000028F7D12F487838006820F06060C6
:105A90002C49783908600846006840F000600860CA
:105AA0000846006840F4A06008602548001D2549AC
:105AB000703908602448091D0860081521497439A7
:105AC00008601F48008820F040001D4908800846F3
:105AD000808940F00C0088811A487838006840F0CE
