:020000040800F2
:10000000986A002031E300084FE3000851E300083C
:1000100053E3000855E3000857E300080000000020
:1000200000000000000000000000000059E300088C
:100030005BE3000800000000FF9D00085FE300088C
:1000400061E3000861E3000861E3000861E3000880
:1000500061E3000861E3000861E3000861E3000870
:1000600061E3000861E3000861E3000861E3000860
:1000700061E3000861E3000861E3000861E3000850
:1000800061E3000861E3000861E300087B92000877
:100090007B91000861E3000861E3000861E3000868
:1000A00061E3000861E3000861E3000861E3000820
:1000B00039AC00080355000861E3000861E300085B
:1000C00061E3000861E3000861E3000843550008AC
:1000D00061E3000861E3000861E3000861E30008F0
:1000E00061E30008E550000861E3000861E30008EF
:1000F00061E3000861E3000861E3000861E30008D0
:1001000061E3000861E300085DAE000861E30008F8
:1001100061E3000861E3000861E3000863AC0008E4
:1001200061E3000861E3000861E3000861E300089F
:1001300061E3000861E3000861E3000861E300088F
:1001400061E3000861E3000861E3000861E300087F
:1001500061E3000861E3000861E3000861E300086F
:1001600061E3000861E3000861E3000861E300085F
:1001700061E3000861E3000861E3000861E300084F
:1001800061E3000861E3000800F002F800F0B2F853
:100190000AA090E8000C82448344AAF10107DA45E2
:1001A00001D100F0A7F8AFF2090EBAE80F0013F082
:1001B000010F18BFFB1A43F001031847C83B0100A9
:1001C000E83B01000A444FF0000C10F8013B13F02B
:1001D000070408BF10F8014B1D1108BF10F8015BA0
:1001E000641E05D010F8016B641E01F8016BF9D193
:1001F00013F0080F1EBF10F8014BAD1C0C1B09D1EA
:100200006D1E58BF01F801CBFAD505E014F8016B5B
:1002100001F8016B6D1EF9D59142D6D370470000ED
:100220000023002400250026103A28BF78C1FBD8FF
:10023000520728BF30C148BF0B6070476E290EF0CF
:10024000758270290EF0C582662911F00B8565292B
:1002500011F00885672911F00585612911F00485E1
:1002600003681B0A28BF41F0800169290EF0228231
:1002700064290EF01F8275290EF01C826F290FF081
:100280001D8178290EF09182E9290FF0B780E429C9
:100290000FF0B480F5290FF0B180EF290FF01A812B
:1002A000F8290EF090820368DB0928BF41F0800135
:1002B00063290FF0388073290FF03D80E3290FF098
:1002C0007583F3290FF07A83002070471FB511F072
:1002D000BFFC0FF04DF904000020002110F0F6FEE5
:1002E000401C60600020002110F0DAFEE0601FBDBD
:1002F00010B510BD0FF0B2FD1146FFF7E7FF03F098
:100300007DFA0FF0D9FD03B4FFF7F2FF03BC0FF045
:10031000DDFD000000BF00BF00BFBFF34F8F00BF77
:1003200000BF00BFFB48006800F4E060FA490843E2
:10033000001DF849086000BF00BF00BFBFF34F8F2A
:1003400000BF00BF00BF00BFFEE70020F349F44A32
:10035000F44B5B6E012B01D140F40050F14B1B6E4E
:10036000012B01D140F001008B8DC3F340330BB161
:1003700040F000408B8DC3F3C03313B140F4806074
:1003800004E00B69012B01DB40F400708B8DC3F39B
:1003900080330BB140F08040CB6AC3F340431BB9BC
:1003A000CB6AC3F3405323B140F0100040F020006B
:1003B00005E00B7F03F080030BB140F4005091F88F
:1003C000203003F0100333B191F82C30C3F3C00395
:1003D0000BB140F4804091F8203003F080030BB162
:1003E00040F400400B8C03F480730BB140F4803078
:1003F0000B8C03F400730BB140F400300B8C03F44E
:1004000000630BB140F400200B8C03F480630BB14C
:1004100040F4802091F8283003F002030BB140F043
:100420008070CB6AC3F3004333B1CB68002B01DD8E
:10043000402300E080231843536F022B07D191F82B
:100440003C3003F0010363B140F0010009E0536F59
:10045000032B06D191F83C3003F001030BB940F0B7
:100460000100936F022B07D191F83C30C3F3800356
:1004700063B140F0020009E0936F032B06D191F8BD
:100480003C30C3F380030BB940F00200D2F8A8302F
:10049000012B01D140F48010D2F8AC30012B01D1F6
:1004A00040F4001070470FB42DE9F04798B09C4D10
:1004B00021A81790BDF88000ADF8000001208DF84C
:1004C000040050208DF805000DF106044FF00009DE
:1004D000BDF8800040F26642811A90427BD00EDC6B
:1004E000B0F5836F28D004DC022875D0812874D140
:1004F000D0E0A0F2444058B12028F8D1A0E01B2958
:100500006CD05C290DD05F297BD0BC29EFD130E0C5
:1005100001208DF8020000208DF803004FF006093D
:100520001EE101208DF802007E4890F85C008DF8F5
:1005300003004FF0060913E116208DF80200002099
:100540008DF803009DF8040040F080008DF8040051
:100550004FF01C0901202080288C6080686A606050
:100560000020A060A86AE060E86A2061288EA0826E
:10057000F6E024208DF8020000208DF803009DF89D
:10058000040040F080008DF804004FF02A0901209B
:1005900020806080E86D6060686EA060B5F86C00D7
:1005A000A081D5F89400C4F80E0098204059C4F8F2
:1005B00012005B48B0F8E000E0825948B0F8E8006B
:1005C00060835748D0F8E4006FF00041884207D1BB
:1005D000002020830CE034E0B4E0BBE02FE010E02A
:1005E0004F48D0F8E4004FF4167190FBF1F02083EF
:1005F0000020A083002104F11C00E1832184618498
:10060000AEE00E208DF8020000208DF803009DF86A
:10061000040040F080008DF804004FF01409012020
:1006200020804048C06FC4F802003E48806FC4F884
:1006300006003C48D0F88000C4F80A0090E000BFF3
:1006400000BF364890F82C00C0F3C01020B13348EA
:10065000006B322800DD83E00E208DF802000020C0
:100660008DF803009DF8040040F080008DF8040030
:100670004FF014090120208028480068C4F80200C7
:1006800026480089E08000202081FFF75EFEC4F844
:100690000A0065E0179850F804AB1790179850F8C7
:1006A000048B1790179880C817901F4800688045E2
:1006B0002ED0B8F5004F28D044208DF8020000203D
:1006C0008DF803009DF8040040F080008DF80400D0
:1006D000A4F800A0A4F80280002603E00021201D59
:1006E0008155761C402EF9DB002604E017F8011B2B
:1006F000201D8155761C387808B1402EF6DB4FF06E
:100700004A09394609A003F045FF0748C0F80080B0
:1007100026E000000CED00E00000FA0504070020D0
:10072000D8590020C45A0020380000200D0A41503A
:1007300054206E6F74696669636174696F6E3A20E4
:100740002573000000208DF802008DF803004FF0A3
:10075000060905E0BDF88010FBA003F01BFF00BFF9
:1007600000BF00201790B9F1000F03D0494668463A
:1007700004F026FD18B0BDE8F0075DF814FB2DE984
:10078000F04FABB0FD4CFE4DDFF8F893FE4800880B
:100790001390FD48007900F07F00079014AEB71D5C
:1007A000DFF8E48308F106080020F07001203071C2
:1007B000079870710020069040F253421398811AF6
:1007C000904201F0918069DC40F21442A0EB0201FA
:1007D000904279D032DC40F21322A0EB0201904229
:1007E00073D016DC142871D009DC02286FD00528DC
:1007F0006ED011286DD0122841F0D28360E2152806
:1008000068D0B0F5047F70D0A0F211200028F3D199
:10081000EFE340F2F712881A914267D007DC012912
:1008200071D0102970D0B1F5FB7FE5D1FCE306282B
:100830006BD007286AD00928DED1F6E32C297DD0B9
:1008400016DC12297BD00ADC022901F01D81032964
:1008500001F02A810F2973D01029CDD1F7E3152992
:100860006FD0262900F097872729C5D100F09CBFBB
:10087000322900F0AF8707DC2D296FD02F296ED0E9
:100880003129B9D100F0A1BF342900F0BD873C293E
:1008900001F013803D29AFD101F014B8732971D054
:1008A0003CDC612901F0ED8121DC3F296BD012DCB9
:1008B000042901F06F80122901F0C480172901F08A
:1008C0000D813D2998D103E2EEE3EEE33BE304E240
:1008D0005AE0EDE1EAE35D2901F0AD815E2901F026
:1008E000B981602988D101F0C6B9F3E3F3E36D293A
:1008F0007ED00CDC632901F0D681642901F0FB81F4
:10090000662984D1EFE1E7E3CEE1FDE3FDE36E2963
:100910006FD070296ED0712987D16BE1A22901F0C7
:1009200014821DDC932901F03A830DDC742970D008
:1009300077296FD078296ED0792903E0E6E3E6E3E2
:10094000E6E3E6E389D1A3E1942901F00983A02934
:1009500001F00C82A12988D101F0EEB9FAE3FAE3A3
:10096000D0297DD007DCAB2901F07C82CD2978D05D
:10097000CE2986D1F0E3D12974D0D32973D0D429DC
:1009800089D1EAE351E1A0E1062030805420B07023
:10099000307940F08000307154227C4938460EF0A6
:1009A0005EF97BA0007887F8420079A04178432067
:1009B000C15577A0C1784420C15575A00179452063
:1009C000C15576A00079202801D1302001E073A024
:1009D00000794621C85571A041794720C1556FA0C3
:1009E00001784820C1556DA041784920C15502E0E9
:1009F00012E07FE08AE069A081784A20C155002199
:100A00004B20C1550120069002206749086001F083
:100A1000C8BA1CE127E129E15B48C0780E900E9826
:100A200000F001000D900E98012806D002281DD07C
:100A3000032830D0042858D142E001205B49C86522
:100A40000846006E012803D10020886603F04BFAA7
:100A50005648006F40F4007054490867002003E0D6
:100A6000A5E3FBE3E0E3FAE348673FE002204F49F8
:100A7000C8650846006E012804D100200866886613
:100A800003F031FA4948006F40F4007047490867A5
:100A9000002048672AE003204449C8650846006EE4
:100AA000012804D100200866886603F01CFA3F483C
:100AB000006F40F400703D4908670020486715E06A
:100AC00004203A49C8650846006E012804D1002078
:100AD0000866886603F007FA3448006F40F4007037
:100AE000324908670020486700E000BF00BF0020CF
:100AF00006908CE740F2C24030600120B0702B4875
:100B000090F85C00F0700120069080E7B8F80000D3
:100B10000D900D98012868D100202449886603F0C3
:100B2000E2F9D8F8060021498867D8F80200C867BA
:100B3000D8F80A00C1F880000846806F0A283BDA1E
:100B40000A208867084633E00D0A556E68616E64B6
:100B50006C656420415054206E6F746966696361EE
:100B600074696F6E2C2041505420636F6D6D616EFF
:100B700064203D202530345800000000D859002062
:100B800004070020485D002064000020440200208B
:100B900031353A35313A3131000000004E6F762060
:100BA0002039203230313700845B0020C45A0020C5
:100BB000406B40F040004863F848C06F0A2807DAED
:100BC0000A20F649C8670846406B40F04000486379
:100BD0000020F249C1F89000C1F89800C1F8A000C7
:100BE000A1F8A400A1F8A60000E000BF00BF00200B
:100BF00006900CE740F2C54030600E20B0703079AE
:100C000040F08000307101203880E448C06FC7F8A0
:100C10000200E248806FC7F80600E048D0F8800084
:100C2000C7F80A0001200690F1E6DD48C0780E9072
:100C30000E98012802D1D949C1F8A8000E980228BF
:100C400002D1D649C1F8A80000200690DFE64FF493
:100C5000996030600120B070D04890F8A800F07022
:100C600001200690D3E600200690D0E6CC48C0785C
:100C70000E900E98012802D1C849A1F88C000E9858
:100C8000022802D1C549A1F88C0000200690BEE6DA
:100C900040F2CD4030600120B070C04890F8600054
:100CA000F07001200690B2E64020BC494860AEE6F4
:100CB000E86A20F080008030E86200202863A6E621
:100CC000E86A20F08000E862A1E6002028639EE642
:100CD00040F28140FFF7E7FB99E60420B149086044
:100CE0000020069093E6B8F8020013901398B0F530
:100CF000966F7DD013DC40F22642A0EB02019042B9
:100D000077D007DCA0F21340E0B1032826D01028EA
:100D100070D14BE0142932D01A29F9D139E040F2D0
:100D2000C342811A904266D007DCA0F2B34078B388
:100D300003284CD00D28EBD1D4E05D2976D0602972
:100D400058D18DE00020984988619748A168C16119
:100D5000216901624AF655214162E5E09248216A23
:100D60008162616AC162A16A0163E16A4163002133
:100D70008163216BC1634AF655210164D4E08A483E
:100D8000616C4164616C81644AF65521C164CBE0B9
:100D90004DE08548216D0165616D4165A16C8165FE
:100DA000A16DC1654AF655210166BDE07E48616FBF
:100DB0004166A16F8166E16FC166D4F8801001675A
:100DC000D4F8841041674AF655218167ACE0774832
:100DD000B0F87A107448C1677448C16F7248C0F89F
:100DE00080107248D0F880106F48C0F8841003E07B
:100DF00013E027E097E081E06C48B0F884106A487F
:100E0000C0F888106948B0F886106748C0F88C10A0
:100E10004AF65521C0F8901086E06348E16DC0F8AD
:100E20009C104AF65521C0F8A0107DE031E05F48E3
:100E3000B0F878105C48C0F894104AF65521C0F814
:100E4000981071E05848D4F88810C0F8CC10D4F845
:100E50008C10C0F8D0104AF65521C0F8D41063E0C9
:100E6000534801695048C0F8F010514801694E4894
:100E7000C0F8F0104E4881684B48C0F8E8104C4864
:100E8000C1684948C0F8EC104AF65521C0F8101165
:100E90004AE04548216CC0F8A410E16DC0F8A810E4
:100EA000616EC0F8AC10E16EC0F8B0100021C0F85F
:100EB000B410C0F8B8103F48D0F8E0103A48C0F875
:100EC000BC103C48D0F8E8103748C0F8C01039488A
:100ED000D0F8E4103448C0F8C4104AF65521C0F8E0
:100EE000C81021E02D48B0F85C0081B22E48A0F86F
:100EF00014114AF65521C0F8181115E02748C16FA2
:100F00002948C0F81C112548816F2748C0F82011D6
:100F10002248D0F880102448C0F824114AF6552100
:100F2000C0F8281100E000BF00BF2348406C1E49F4
:100F3000C8604AF6552008611848406C40F001002E
:100F40001649486463E5D8F800000590D8F8040015
:100F50000490D8F808000390D8F80C000290D8F854
:100F600010000190D8F81400009005980F286FD059
:100F70000ADC0E286DD2DFE800F06C293D6C846C31
:100F80006C6C6C44596C8E92202871D016DC102841
:100F900071D0112872D014285BD15BE0C45A0020B4
:100FA00064000020845B0020145C002020060020E8
:100FB00008000020D8590020985B0020B0F5C87FB9
:100FC00071D0A0F22350002843D18CE0002008907B
:100FD0000BE00021FE4A089842F82010FD48006806
:100FE000114648600898401C089008980A28F0DBD1
:100FF000C9E0C2E2D8F80400F64908600020069073
:10100000C1E0002008900BE00021F14A089842F866
:101010002010F1484068114648600898401C08902C
:1010200008980A28F0DBAEE0D0E20BE3D8F8040021
:10103000E9494860486806F037FA0020E749C1F8F6
:10104000AC00E749D1F8E00006F051FA9BE02BE351
:101050002DE097E0E148406C40F00200DF49486431
:10106000DD484068DF4948604AF6552088608AE0DC
:1010700033E000E002E005F02EFC84E006F0E1F948
:1010800081E0D8F80810D848C0F8D0100121D52048
:1010900005F0CBFA77E0D8F80400E06273E0D8F806
:1010A0000400A0626FE059E0D5E215E26DE0D8F8E7
:1010B0000410C848C0F8D8104AF65521C0F8DC1012
:1010C00004F0AEFDC348D0F8D800C4F8900000206A
:1010D000069058E02AE27CE217E2049881B2C24806
:1010E000A0F8DC104FE0C1490498086103984861FA
:1010F000029888600198C8600846006910B901200C
:1011000002F02BFFB94805E074E278E2E8E244E23D
:10111000B8E285E20069012801D102F01EFFB34860
:1011200000690A2802D1022002F017FFAF48406987
:1011300010B9012002F0DFFEAC484069012801D15E
:1011400002F0D9FEA94840690A2802D1022002F023
:10115000D2FE18E0D1E2EAE279E19EE0642003F0F9
:10116000F3FD72B6A248006820F48000A049086030
:101170000846006820F4001008609E489E490860F8
:10118000FFF7C8F800BF00BF41E416203070002010
:1011900070702820B070307940F0800030712822C3
:1011A0008B4938460DF05BFD012006902FE4B8F81E
:1011B00002008E490861B8F806004861B8F80400DA
:1011C0008860B8F80800C8600846006920B10128A6
:1011D00006D00A280FD107E0012002F0BEFE0BE086
:1011E000012002F0BAFE07E0022002F0B6FE8348BA
:1011F0008349886000E000BF00BF7C48406920B19F
:10120000012806D00A280CD107E0012002F073FE65
:1012100008E0012002F06FFE04E0022002F06BFE05
:1012200000E000BF00BF64E440F2255030601620AB
:10123000B070307940F080003071012038806B4808
:10124000008A78806948808AF88068480089B88078
:10125000664880893881012006904AE454E0FFE71F
:10126000D8F8020067490860D8F806004860D8F846
:101270000A008860D8F81A00C860D8F80E00086123
:10128000D8F812004861D8F816008861D8F81A001A
:10129000C861D8F81E0008622BE44FF4A5603060E6
:1012A0002E20B070307940F0800030710120BF1CDA
:1012B00027F8020C5348006838605248406878604C
:1012C00050488068B8604F48C068B8614D480069B0
:1012D000C8F80E004B484069C8F8120049488069B8
:1012E000C8F816004748C069C8F8160000203884BE
:1012F000BF1E002107F12200B984F9843985798560
:10130000B9850120069074E4B8F80200401E2064FC
:10131000D8F80400E065D8F808006066B8F80C005A
:10132000E066D8F80E00C4F89400D8F8121098209F
:1013300001512B48D4F89410C0F8C01098200159DE
:101340002748C0F8C4107F21E06D90FBF1F02649DA
:1013500008672348D0F8E00012902148D0F8E40054
:1013600011901F48D0F8E8001090B8F816001C49FA
:10137000C1F8E000B8F8180050B9B8F81A0038B948
:1013800041F27070C1F8E4000220C1F8E80014E0F6
:10139000B8F81A001249C1F8E800B8F8180020B9E6
:1013A0006FF00040C1F8E40007E0B8F818004FF40F
:1013B000167148430A49C1F8E4000948D0F8E01022
:1013C0001298814228D10648D0F8E41011981BE009
:1013D000B0070020145C00206C5D0020C45A00207F
:1013E000D8590020785D0020200600200800002049
:1013F00030380240EFBEADDEF01F0020B3A0000881
:10140000F0020020B8020020814205D1FA48D0F84D
:10141000E8101098814201D0012000E000200F90D8
:101420000F9898B10020F549C1F8AC000846D0F8F3
:10143000B000012805D1F049D1F8E00006F03AF8F3
:1014400004E0ED49D1F8E00006F051F80AE401208B
:1014500044F8400F40F2225030602420B0703079C0
:1014600040F0800030710120388020887880012091
:101470007880E0697860606AB860A08DB881606D3E
:10148000403CC7F80E0098200059C7F81200DA480F
:10149000B0F8E000F882D848B0F8E8007883D64881
:1014A000D0F8E4006FF00041884202D10020388378
:1014B00007E0D148D0F8E4004FF4167190FBF1F04A
:1014C00038830020B883002107F11C00F983398498
:1014D00079840120069005E4C948807800F0010075
:1014E00018B10120C4F8B00002E00020C4F8B00038
:1014F000C348807800F0020018B10120C4F8B4009D
:1015000002E00020C4F8B4001CE540F21520306071
:101510000D9828B90020B070F0700120069004E00A
:101520000020B070F070012006900BE5B448C07840
:10153000012812D1E86A20F48040E862E86A20F0CD
:1015400008000830E862E86A20F4005000F5005016
:10155000E862002006F0F4FD0EE0E86A20F00800E2
:10156000E862E86A20F40030E862E86A20F400509B
:10157000E862012006F0E4FDE4E440F2122030606D
:101580000120B070A88DC0F3403008B1012000E008
:101590000220F07001200690D4E4B8F8040044F86A
:1015A000880FB8F802006060218808B205F02FFAB1
:1015B000A188883C08B205F09BFB05F08CF905F08A
:1015C0007CF90121D52005F030F8BBE4D8F802A061
:1015D000B8E440F20B4030600620B070307940F043
:1015E0008000307101203880D5F800A0C7F802A033
:1015F0000690A7E4D8F802A0C5F800A0A2E440F243
:10160000124030600620B070307940F080003071B8
:1016100001203880D5F800A0C7F802A0069091E418
:1016200040F22A4030600620B070307940F08000EF
:10163000307101203880FEF788FEC7F802000120D3
:1016400006907FE4D8F80600A060A068E060D8F8B3
:101650000A00206176E440F2154030600E20B07040
:10166000307940F080003071012038800020C7F8C8
:101670000200A068C7F806002069C7F80A00012028
:1016800006905FE4B8F802006067B8F80400A0674D
:10169000D8F80600E067D8F80A00C4F88000B8F867
:1016A0000E00C4F884004DE440F225403060102064
:1016B000B070307940F0800030710120388034F80B
:1016C000740F7880A088B880A068C7F80600E0682A
:1016D000C7F80A00208A743CF8810120069031E4A2
:1016E000D8F80600A064B8F802002065B8F8040035
:1016F0006065D8F80A00A06524E440F242403060FA
:101700000E20B070307940F08000307101203880B8
:10171000B4F850007880B4F85400B880A06CC7F8D2
:101720000600A06DC7F80A000120069026E2E86ACC
:10173000C0F3404000B121E20620C9F804004FF098
:101740008040C9F808000020C9F80C004AF2870060
:10175000E064C9F81000A06CC9F81400206DC9F845
:101760001C000020C9F81800C9F8200001202861D9
:10177000E86A20F4003000F50030E862E86A20F4FE
:101780000010E862E86A20F040004030E862A06C97
:10179000C9F81400F2E1D8F802006064606C002817
:1017A00001DA00206064FCE340F23C403060062037
:1017B000B070307940F08000307101203880606C6A
:1017C000C7F8020001200690EBE3D8F802000D49AB
:1017D0000860E6E340F2474030600620B0703079A0
:1017E00040F0800030710120388006480068C7F85A
:1017F000020001200690D4E3D8590020C45A0020EA
:101800006400002000000020E86AC0F3405018B1D6
:10181000E86AC0F3404038B9E86AC0F3404020B1FC
:10182000D9F82000022800D1BBE3D5F800A0FA487F
:10183000007940F0800018B1D8F80200824402E03C
:10184000F648006882440021504606F054FD834665
:10185000BBF1010F00D1A4E3E86A20F4003000F5E9
:101860000030E862E86A20F40010E862E86A20F0DC
:101870000200E8620120C9F80400C9F808A0D9F8FC
:1018800008002968884201DA606C00E00020C9F88D
:101890000C00A068C9F810002069C9F81400A069FC
:1018A000C9F81800E069C9F82000E86A20F01000C3
:1018B0001030E86205F04AFD73E3D8F80200D7491A
:1018C00048606EE340F2524030600620B0703079DC
:1018D00040F08000307101203880D0484068C7F85F
:1018E0000200012006905CE3E86AC0F3405018B1A2
:1018F000E86AC0F3404038B9E86AC0F3404020B11C
:10190000D9F82000022800D14BE3C348007940F009
:10191000800010B1D8F802A002E0C048D0F804A0BE
:101920000021504606F0E7FC8346BBF1010F00D1D1
:1019300037E3E86A20F4003000F50030E862E86A36
:1019400020F40010E862E86A20F00200E86201205A
:10195000C9F80400C9F808A0D9F808002968884225
:1019600001DA606C00E00020C9F80C00A068C9F83A
:1019700010002069C9F81400A069C9F81800E069CE
:10198000C9F82000E86A20F010001030E86205F085
:101990006EFC06E3E86AC0F3405018B1E86AC0F391
:1019A000404038B9E86AC0F3404020B1D9F820007F
:1019B000022800D1F5E22069C9F81400D9F8140012
:1019C0000C9000200C9906F096FC8346BBF1010FA9
:1019D00000D1E6E2E86A20F4003000F50030E86269
:1019E000E86A20F40010E862E86A20F00200E86289
:1019F0002069C9F814000120C9F80400C9F808A03A
:101A00000020C9F80C00A068C9F810002069C9F8C6
:101A10001400A069C9F81800E069C9F82000E86A54
:101A200020F01000E8627C48C078012802D105F05F
:101A3000C8FC06E0D9F814004042C9F8140005F0CB
:101A4000C0FCAEE27448C078012802D104F001FF66
:101A500001E004F0FEFEE86A20F01000E862E86AA7
:101A600020F020002030E8620520C9F80400286931
:101A70000D2802D12869286101E00020286100209A
:101A800067498862C8628CE2B8F802002062D8F820
:101A900004006062D8F80C00A062D8F81000E06280
:101AA000B8F8140020637CE24FF4836030601620A5
:101AB000B070307940F08000307101203880208C87
:101AC0007880606A78600020B860A06AF860E06A98
:101AD0003861208EB8820120069062E2E86AC0F385
:101AE000405018B1E86AC0F3404038B9E86AC0F322
:101AF000404020B1D9F82000022800D151E2E86A24
:101B000020F4003000F50030E862E86A20F40010AC
:101B1000E862E86A20F4803000F58030E862E86A24
:101B200020F00200E8620120C9F804000020C9F892
:101B30000C00A06AC9F81000E06AC9F81400A06996
:101B4000C9F81800E069C9F82000206A012832D1DC
:101B5000E06AC9F81400D9F814000C902E48C07837
:101B6000012810D100200C9906F0C5FB8346BBF17B
:101B7000010F04D1E86A20F40030E86211E203208A
:101B800005F0E8FA12E00C9840420C9000200C9905
:101B900006F0B1FB8346BBF1010F04D1E86A20F4E3
:101BA0000030E862FDE1052005F0D4FAE86A20F093
:101BB0001000E8623EE01848C078012817D1286874
:101BC000616A0844C9F80800D9F808A00021504605
:101BD00006F091FB8346BBF1010F04D1E86A20F4C3
:101BE0000030E862DDE1042005F0B4FA1DE0286869
:101BF000616A401AC9F80800D9F808A000215046C7
:101C000006F079FB8346BBF1010F0BD1E86A20F4A3
:101C10000030E862C5E10000640000200000002000
:101C200008000020062005F095FAE86A20F0100070
:101C30001030E862B5E1D8F80400F749C8660846F4
:101C4000C06E0B900B98C11700EBD1514912F24AAC
:101C50001167A6E140F2B24030601A20B0703079CE
:101C600040F08000307101203880EB48C06E786011
:101C70000120069095E1B8F80200E749A1F8780044
:101C80008FE140F2B54030600420B070307940F010
:101C90008000307101203880DF48B0F8780078800B
:101CA000012006907DE1DC48B0F87A000A90B8F88F
:101CB0000200D949A1F87A000846B0F87A100A98CB
:101CC000814203D00320D449C1F89800B8F802003B
:101CD000D149A1F87A00D8F80400C867D8F80800FC
:101CE000C1F88000B8F80C00A1F88400B8F80E0024
:101CF000A1F8860055E14FF4976030601020B07075
:101D0000307940F08000307101203880C248B0F84E
:101D10007A007880C048C06F7860BF48D0F88000F3
:101D2000B860BD48B0F88400B881BB48B0F8860000
:101D3000F8810120069034E1B8F80200B649088421
:101D40000121882004F071FC2BE140F2F640306064
:101D50000420B070307940F080003071012038806C
:101D6000AD48008C7880012006901AE10020AB4934
:101D7000886143F6A321A948C161A94901624AF6D5
:101D80005521416202218162A649C16241F6525148
:101D90000163A5494163002181630221C1634AF6C1
:101DA000552101649F49416481644AF65521C1640B
:101DB00002210165012141659C4981654FF448215B
:101DC000C1654AF6552101660221416681660021FE
:101DD000C1660167012141674AF6552181678E4836
:101DE000B0F87A108D48C1678B48C16F8B48C0F836
:101DF00080108948D0F880108848C0F88410864840
:101E0000B0F884108548C0F888108348B0F8861070
:101E10008248C0F88C104AF65521C0F890107E48D0
:101E2000C16E7E48C0F89C104AF65521C0F8A0103B
:101E30007948B0F878107948C0F894104AF65521DE
:101E4000C0F898101E21C0F8CC100521C0F8D010A1
:101E50004AF65521C0F8D41075487049486003F01F
:101E6000DFFE9EE073488078202804D16B49C8606B
:101E70000020286473E06F488078212804D16749E6
:101E8000C860002028646AE06A488078222804D16B
:101E90006249C8600020286461E066488078302884
:101EA00004D15E49C8600020286458E06148807809
:101EB000312804D15949C860002028644FE05D48AA
:101EC0008078322804D15549C8600020286446E053
:101ED00058488078402804D15049C86000202864C0
:101EE0003DE054488078412804D14C49C860002026
:101EF000286434E04F488078422804D14749C860BC
:101F0000002028642BE04B488078502804D14349B6
:101F1000C8600120286422E046488078512804D116
:101F20003E49C8600120286419E042488078702842
:101F300004D13A49C8600120286410E03D48807807
:101F4000712804D13549C8600020286407E0394869
:101F50008078752803D13149C8600020286420E0CA
:101F60004FF49D6030601420B070307940F08000F4
:101F700030710120BF1C27F8020CE06D3860206E24
:101F80007860606EB860A06EF860BF1EE06E08B149
:101F9000022000E0012078820120069001E000E0AC
:101FA00000BF00BF069870B19DF8540000F080009B
:101FB00018B19DF85200801D00E00620099014A879
:101FC000099903F0FDF82BB0BDE8F08F10B5044679
:101FD000012C0AD105F02AFD15481049486003F08C
:101FE0001FFE05F006FE002402E0002012494864AE
:101FF00010BD10B5044672B6012C04D0022C06D0D8
:10200000032C1FD11AE0002006F0DBF81AE00120B3
:1020100006F0D7F816E0000020060020145C00202F
:10202000C0445E045515020060222F02FC7A4F0165
:102030000400010064000020C45A0020012006F0C2
:10204000C0F800BF00BFFE48048062B610BD70B586
:10205000FC4EB01FC08885B2012D06D0052D0BD0D7
:10206000072D03D00D2D08D105E007E07488204628
:10207000FFF7BFFF02E001E000E000BF00BF70BD5E
:1020800010B5014600200023EE4CA41FA2780F2AB1
:1020900024D2DFE802F02308230D23102312231893
:1020A000231E23200A00082019E01E200A8016E0C3
:1020B0000C200A8013E0122011E004200A80E04C7A
:1020C00024884C800BE0062000230A80C1F80230EF
:1020D00005E0082003E006200A8000E000BF00BF02
:1020E00010BDD948D949C26DC1F89C204AF6552285
:1020F000C1F8A020026CC1F8A420C26DC1F8A820CC
:10210000426EC1F8AC20C26EC1F8B0200146D1F8D1
:10211000C020CE49C1F8B4200146D1F8C420CB4933
:10212000C1F8B8200146D1F8E020C849C1F8BC2068
:102130000146D1F8E820C549C1F8C0200146D1F8D0
:10214000E420C249C1F8C4204AF65522C1F8C8208B
:10215000BF49B1F87820BD49C1F894204AF655220C
:10216000C1F89820D0F88820C1F8CC20D0F88C2075
:10217000C1F8D0204AF65522C1F8D420B5490A68E2
:10218000B249C1F8E020B3494A68B049C1F8E42037
:10219000B0498A68AD49C1F8E820AE49CA68AB4980
:1021A000C1F8EC20AB490A69A849C1F8F020A94957
:1021B0000A69A649C1F8F020A6498A69A349C1F86D
:1021C000F820A449CA69A149C1F8FC20A1490A6ABA
:1021D0009E49C1F800219F494A6A9C49C1F80421DF
:1021E0009C498A6A9949C1F808219A49CA6A97495B
:1021F000C1F80C214AF65522C1F810219049B1F8D6
:102200005C108AB29149A1F814214AF65522C1F80E
:1022100018218B49CA6F8D49C1F81C2188498A6FE2
:102220008A49C1F820218649D1F880208749C1F820
:1022300024214AF65522C1F82821704770B5824DF5
:1022400000230C224FF48061834803F03FFC0446D6
:10225000814880684AF65521884204D17E4840680A
:102260007E49486002E039207C49486070BD10B565
:10227000754C7648006E4AF6552188420BD173485A
:10228000006D20657148406D60657048806DA06488
:102290006E48C06DA0656D48D0F810014AF6552112
:1022A000884230D16948D0F8E0006A490860674840
:1022B000D0F8E40048606548D0F8E80088606348DA
:1022C000D0F8EC00C8606148D0F8F00008615F48C1
:1022D000D0F8F00008615D48D0F8F80088615B48EC
:1022E000D0F8FC00C8615948D0F80001086257488E
:1022F000D0F8040148625548D0F808018862534874
:10230000D0F80C01C8625148D0F8C8004AF65521EF
:10231000884222D14D48D0F8BC004B49C1F8E000BA
:102320004A48D0F8C000C1F8E8004848D0F8C400D6
:10233000C1F8E4004248D0F8B000012803D1D1F838
:10234000E00005F0B7F83E48D0F8B000022804D10C
:102350003D49D1F8E00005F0CAF83B48D0F8E0006C
:10236000002804DB3848D0F8E000642807DD0A20A4
:102370003549C1F8E000D1F8E00005F09BF832489B
:10238000D0F8E4003649884205DC2F48D0F8E40054
:10239000B0F5167F0FDA2C48D0F8E4006FF000415A
:1023A000884203D12849C1F8E40004E041F270708A
:1023B0002549C1F8E4002448D0F8E800002804DBEF
:1023C0002148D0F8E000642803DD02201E49C1F84E
:1023D000E8001E48D0F818014AF65521884204D179
:1023E0001A48B0F814011649C8651848D0F82801F1
:1023F0004AF6552188420DD11448D0F81C011049E5
:10240000C8671248D0F8200188671048D0F8240126
:10241000C1F880000D48D0F810014AF655218842D5
:1024200023D10A48D0F8E8000A4988600748D0F864
:10243000EC00C8600548D0F8F0000861034811E0DE
:10244000C45A00206A000020D8590020145C0020E3
:102450002006002008000020785D00206C5D002030
:1024600000650400D0F8F0000861FC48006920B164
:10247000012806D00A280FD107E0012001F06DFDE8
:102480000BE0012001F069FD07E0022001F065FD8D
:10249000F348F449886000E000BF00BFEF4840699E
:1024A00020B1012806D00A280CD107E0012001F054
:1024B00022FD08E0012001F01EFD04E0022001F0F1
:1024C0001AFD00E000BF00BF10BD70B5E64C002350
:1024D0004FF49A721946E54803F0F8FA0646E348C5
:1024E000406A4AF65521884205D1E048C069A0609B
:1024F000DE48006A2061DD48006C4AF655218842BA
:102500000ED1DA48806A2062D848C06A6062D74833
:10251000006BA062D548406BE062D448C06B20637A
:10252000D248C06C4AF65521884205D1CF48406C4C
:102530006064CE48806C6064CC48006E4AF65521D9
:1025400088420BD1C948006D2065C848406D606560
:10255000C648806DA064C548C06DA065C348806F43
:102560004AF65521884210D1C048406E6067BF4886
:10257000806EA067BD48C06EE067BC48006FC4F8BD
:102580008000BA48406FC4F88400B848D0F8900082
:102590004AF65521884218D1B448B0F87C00B449B5
:1025A000A1F87A00B148D0F88000C867AF48D0F8E9
:1025B0008400C1F88000AD48B0F88800A1F884001C
:1025C000AA48B0F88C00A1F88600A848D0F8A0006E
:1025D0004AF65521884203D1A448D0F89C00E06512
:1025E000A248D0F898004AF65521884203D101202C
:1025F0009F49A1F878009D48D0F8D4004AF65521AB
:10260000884209D19948D0F8CC00C4F8880097488E
:10261000D0F8D000C4F88C009448D0F8DC004AF61A
:102620005521884204D19148D0F8D800C4F89000D0
:102630008E48D0F810014AF65521884230D18B4897
:10264000D0F8E000854908608848D0F8E400486088
:102650008648D0F8E80088608448D0F8EC00C8606C
:102660008248D0F8F00008618048D0F8F000086196
:102670007E48D0F8F80088617C48D0F8FC00C8613A
:102680007A48D0F8000108627848D0F8040148621E
:102690007648D0F8080188627448D0F80C01C86206
:1026A0007248D0F8C8004AF6552188423BD16F489D
:1026B000D0F8A40020646D48D0F8A800E0656D490A
:1026C000E06D0969884202DD6A480069E065674893
:1026D000D0F8AC0060666548D0F8B000E0666348AA
:1026E000D0F8B4106048C0F8C0106048D0F8B810F6
:1026F0005D48C0F8C4105D48D0F8A8007F2190FB69
:10270000F1F05B4908675948D0F8BC005649C1F858
:10271000E0005648D0F8C000C1F8E8005348D0F8AF
:10272000C400C1F8E4005148D0F818014AF6552118
:10273000884204D14D48B0F814014F49C8654B4850
:10274000D0F828014AF6552188420DD14748D0F8E3
:102750001C014949C8674548D0F8200188674348AB
:10276000D0F82401C1F88000404800694AF655219C
:10277000884201D13D48C56840A142480CF02CFA7E
:1027800070BD70B5044640480068052808D2DFE8EF
:1027900000F003081593A30014B901203A4908601A
:1027A000A6E03AA001F0F6FEFFF79BFC02F0F3F979
:1027B0003B49088002203449086099E01CB10020A0
:1027C0003149086048E002F0E6F9054634480188DE
:1027D000284602F0DCF9B0F5FA6F3DDD012005F086
:1027E000FCFA05F023F9012002F0AEFA4AF6552072
:1027F0001E49086103F014FA022002F0A5FA1E48EF
:10280000406C012801DD03F021FA05F0F2F9022005
:1028100002F09AFA23A001F0BDFE0220FDF743FE6C
:102820000320234908600220224948610846C06A03
:1028300020F01000C8620846C06A20F02000C8627C
:1028400005201B4948601B48C06A20F080001949D8
:10285000C86203200C4908604AE00000080000201C
:10286000B3A00008F0020020D8590020145C00201A
:102870002006002048070020C45A00204B53433153
:102880003031000048020020400000200D0A506F47
:10289000776572696E6720646F776E2E2E2E00004A
:1028A0003C000020676F6F646279650D0A000000CC
:1028B000485D00200407002002F06DF90546FE483F
:1028C0000188284602F063F940F6B831884202DDFB
:1028D0000420FA4908600BE04FF40030F849086022
:1028E000400108604FF4FA7002F02EFAFDF712FD75
:1028F00000BFF248006870BD10B52DED048B044692
:10290000412C7AD011DC302C78D007DC202C7DD003
:10291000212C75D0222C40F0018765E1312C70D03C
:10292000322C6FD0402CF6D151E3702C6BD006DCEA
:10293000422C69D0502C68D0512CECD1E6E3752C98
:1029400000F06A86852CE6D1DE480068DE49086022
:10295000DC4840684860DB4880688860D948C068C7
:10296000C860D84800690861D64840694861D548C0
:1029700080698861D348C069C861D248006A08622A
:10298000D048406A4862CF48806A8862CD48C06AB1
:10299000C862CC48006B0863CA48406B4863C948AA
:1029A000806B8863C748C06BC863C648006C086406
:1029B000C448406C4864C348806C8864C148C06C9B
:1029C000C864C048006D0865BE48406D4865BD4894
:1029D00090ED190A084680ED190A0320BB490864E6
:1029E000B94800694863B84840684861B7EE000AD2
:1029F000084680ED060A00F091BE5FE382E105E043
:102A00007BE0F6E16CE2FDE3E7E3FCE3B04800685D
:102A1000AD490860AE4840684860AD48806888604D
:102A2000AB48C068C860AA4800690861A848406906
:102A30004861A74880698861A548C069C861A44801
:102A4000006A0862A248406A4862A148806A8862B7
:102A50009F48C06AC8629E48006B08639C48406BF0
:102A600048639B48806B88639948C06BC8639848EB
:102A7000006C08649648406C48649548806C886493
:102A80009348C06CC8649248006D08659048406DDA
:102A900048658F4890ED190A084680ED190A012013
:102AA0008A490864884800694863084690ED0D0A21
:102AB000B8EEC00A10EE101A08460FF051F841ECBB
:102AC000190B9FED840B53EC102B0EF0FBFB41EC2C
:102AD000180B0EF01DFB7D4988667B4840684861F5
:102AE000794890ED010AB8EEC00AD0ED190A80EEDF
:102AF000201A084680ED061A7DE77848006872497A
:102B00000860764840684860744880688860734808
:102B1000C068C860714800690861704840694861D0
:102B20006E48806988616D48C069C8616B48006AF9
:102B300008626A48406A48626848806A88626748F2
:102B4000C06AC8626548006B08636448406B4863AC
:102B50006248806B88636148C06BC8635F48006CE3
:102B600008645E48406C48645C48806C88645B48DC
:102B7000C06CC8645948006D08655848406D486588
:102B8000564890ED190A084680ED190A01204F4970
:102B900008644D4800694863084690ED0D0AB8EE98
:102BA000C00A10EE101A08460EF0DAFF41EC190BBD
:102BB0009FED480B53EC102B0EF084FB41EC180BEF
:102BC0000EF0A6FA414988663F48406848613E4891
:102BD00090ED010AB8EEC00AD0ED190A80EE201A75
:102BE000084680ED061A06E73D4800683649086049
:102BF0003B48406848603A48806888603848C06808
:102C0000C860374800690861354840694861344800
:102C1000806988613248C069C8613148006A0862C9
:102C20002F48406A48622E48806A88622C48C06AF1
:102C3000C8622B48006B08632948406B48632848EA
:102C4000806B88632648C06BC8632548006C0864A5
:102C50002348406C48642248806C88642048C06CDB
:102C6000C8641F48006D08651D48406D48651C48D4
:102C700090ED190A084680ED190A012013490864ED
:102C8000114800694863084690ED0D0AB8EEC00A85
:102C900010EE101A08460EF063FF41EC190B9FED81
:102CA0000D0B53EC102B0EF00DFB41EC180B0EF03E
:102CB0002FFA0649886615E03C00002040000020FD
:102CC00018080240B421010848070020985B002042
:102CD0006C1C0108EC51B81E85E7B741D41C0108F3
:102CE0003C1D0108FE4840684861FD4890ED010A1E
:102CF000B8EEC00AD0ED190A80EE201A084680ED21
:102D0000061A78E6F7480068F5490860F548406813
:102D10004860F44880688860F248C068C860F1483C
:102D200000690861EF4840694861EE488069886140
:102D3000EC48C069C861EB48006A0862E948406A2B
:102D40004862E848806A8862E648C06AC862E54826
:102D5000006B0863E348406B4863E248806B88631C
:102D6000E048C06BC863DF48006C0864DD48406C15
:102D70004864DC48806C8864DA48C06CC864D94810
:102D8000006D0865D748406D4865D64890ED190A32
:102D9000084680ED190A0120D3490864D04800692B
:102DA0004863084690ED0D0AB8EEC00A10EE101AFE
:102DB00008460EF0D5FE41EC190B9FEDCC0B53EC01
:102DC000102B0EF07FFA41EC180B0EF0A1F9C6495A
:102DD0008866C34840684861C14890ED010AB8EE72
:102DE000C00AD0ED190A80EE201A084680ED061AB6
:102DF00001E6C0480068BA490860BE4840684860BB
:102E0000BC4880688860BB48C068C860B948006931
:102E10000861B84840694861B64880698861B5482A
:102E2000C069C861B348006A0862B248406A486233
:102E3000B048806A8862AF48C06AC862AD48006B1B
:102E40000863AC48406B4863AA48806B8863A94814
:102E5000C06BC863A748006C0864A648406C48640F
:102E6000A448806C8864A348C06CC864A148006D05
:102E70000865A048406D48659E4890ED190A0846CF
:102E800080ED190A01209849086495480069486353
:102E9000084690ED0D0AB8EEC00A10EE101A08466A
:102EA0000EF05EFE41EC190B9FED900B53EC102BD6
:102EB0000EF008FA41EC180B0EF02AF98A498866E0
:102EC000874840684861864890ED010AB8EEC00A1C
:102ED000D0ED190A80EE201A084680ED061A8AE520
:102EE000854800687E490860834840684860824899
:102EF000806888608048C068C8607F480069086151
:102F00007D48406948617C48806988617A48C06929
:102F1000C8617948006A08627748406A4862764822
:102F2000806A88627448C06AC8627348006B08632C
:102F30007148406B48637048806B88636E48C06B13
:102F4000C8636D48006C08646B48406C48646A480C
:102F5000806C88646848C06CC8646748006D086508
:102F60006548406D4865644890ED190A084680ED53
:102F7000190A01205C4908645948006948630846F9
:102F800090ED0D0AB8EEC00A10EE101A08460EF0C9
:102F9000E7FD41EC190B9FED550B53EC102B0EF098
:102FA00091F941EC180B0EF0B3F84F4988664C4884
:102FB000406848614A4890ED010AB8EEC00AD0ED79
:102FC000190A80EE201A084680ED061AA6E34B483F
:102FD000006843490860494840684860474880683D
:102FE00088604648C068C860444800690861434832
:102FF000406948614148006A0862404880698861C8
:103000003E48C069C8613D48406A48623B48806AA2
:1030100088623A48C06AC8623848006B086337481B
:10302000406B48633548806B88633448C06BC86325
:103030003248006C08643148406C48642F48806C0A
:1030400088642E48C06CC8642C48006D08652B4805
:10305000406D4865294890ED190A084680ED190A27
:103060000120214908641E4800694863084690ED24
:103070000D0AB8EEC00A10EE101A08460EF070FDE8
:1030800041EC190B9FED1E0B53EC102B0EF01AF9AF
:1030900041EC180B0EF03CF8134988661048406864
:1030A00048610F4890ED010AB8EEC00AD0ED190A48
:1030B00080EE201A084680ED061A2FE312480068B9
:1030C000074908601048406848600F488068886079
:1030D0000D48C068C8600C48006908610A4816E0DD
:1030E00048070020A41D0108985B0020000000860E
:1030F0000FB599410C1E0108741E0108DC1E010861
:10310000CDCCCC5455F59B41441F010868E1406982
:103110004861F84880698861F648C069C861F54827
:10312000006A0862F348406A4862F248806A88622E
:10313000F048C06AC862EF48006B0863ED48406B16
:103140004863EC48806B8863EA48C06BC863E94811
:10315000006C0864E748406C4864E648806C88640A
:10316000E448C06CC864E348006D0865E148406D00
:103170004865E04890ED190A084680ED190A0120DB
:10318000DD490864DD4800694863084690ED0D0A92
:10319000B8EEC00A10EE101A08460EF0E1FC41EC41
:1031A000190B1FED290B53EC102B0EF08BF841EC93
:1031B000180B0DF0ADFFD0498866D04840684861D3
:1031C000CE4890ED010AB8EEC00AD0ED190A80EEA3
:1031D000201A084680ED061AA0E2C9480068C749CF
:1031E0000860C74840684860C54880688860C4482F
:1031F000C068C860C24800690861C1484069486148
:10320000BF4801E088E162E080698861BC48C0692C
:10321000C861BB48006A0862B948406A4862B84859
:10322000806A8862B648C06AC862B548006B0863A5
:10323000B348406B4863B248806B8863B048C06B4A
:10324000C863AF48006C0864AD48406C4864AC4843
:10325000806C8864AA48C06CC864A948006D086581
:10326000A748406D4865A64890ED190A084680EDCC
:10327000190A0120A0490864A0480069486308466B
:1032800090ED0D0AB8EEC00A10EE101A08460EF0C6
:1032900067FC41EC190B1FED660B53EC102B0EF085
:1032A00011F841EC180B0DF033FF934988669348F1
:1032B00040684861914890ED010AB8EEC00AD0ED2F
:1032C000190A80EE201A084680ED061A26E28D487B
:1032D00000688A4908608B4840684860894880686F
:1032E00088608848C068C860864800690861854869
:1032F000406948618348806988618248C069C861C3
:103300008048006A08627F48406A48627D48806A57
:1033100088627C48C06AC8627A48006B0863794852
:10332000406B48637748806B88637648C06BC8639E
:103330007448006C08647348406C48647148806C41
:1033400088647048C06CC8646E48006D08656D483C
:10335000406D48656B48806D88656A48C06DC8657A
:103360006848006E0866674890ED190A084680EDC7
:10337000190A0120604908646048006948630846EA
:1033800090ED0D0AB8EEC00A10EE101A08460EF0C5
:10339000E7FB41EC190B9FED5C0B53EC102B0DF090
:1033A00091FF41EC180B0DF0B3FE534988660846B7
:1033B00090ED1A0ADFED560A80EE201A80ED1A1AF7
:1033C0004E48406848614D4890ED010AB8EEC00A89
:1033D000D0ED190A80EE201A084680ED061A9DE10C
:1033E0004C480068454908604A4840684860494878
:1033F000806888604748C068C860464800690861BE
:103400004448406948614348806988614148C069CF
:10341000C8614048006A08623E48406A48623D48C8
:10342000806A88623B48C06AC8623A48006B086399
:103430003848406B48633748806B88633548C06BB9
:10344000C8633448006C08643248406C48643148B2
:10345000806C88642F48C06CC8642E48006D086575
:103460002C48406D48652B48806D88652948C06DA3
:10347000C8652848006E0866264890ED190A084677
:1034800080ED190A01201C4908641C480069486342
:10349000084690ED0D0AB8EEC00A10EE101A084664
:1034A0000EF05EFB41EC190B9FED170B53EC102B4C
:1034B0000DF008FF41EC180B0DF02AFE0E4988664E
:1034C000084690ED1A0ADFED120A80EE201A80ED10
:1034D0001A1A0A4840684861084890ED010AB8EE97
:1034E000C00AD0ED190A80EE201A084680ED061AAF
:1034F00014E10000441F0108985B002048070020E9
:10350000AC1F0108E4200108D7A3703D0AD74A4048
:103510000000C8484C210108FE480068FE490860C8
:10352000FC4840684860FB4880688860F948C0688B
:10353000C860F84800690861F64840694861F54884
:1035400080698861F348C069C861F248006A08620E
:10355000F048406A4862EF48806A8862ED48C06A75
:10356000C862EC48006B0863EA48406B4863E9486E
:10357000806B8863E748C06BC863E648006C0864EA
:10358000E448406C4864E348806C8864E148C06C5F
:10359000C864E048006D0865DE48406D4865DD4858
:1035A00090ED190A084680ED190A0220DB490864EB
:1035B000D94800694863084690ED0D0AB8EEC00A84
:1035C00010EE101A08460EF0CBFA41EC190B1FED65
:1035D000320B53EC102B0DF075FE41EC180B0DF077
:1035E00097FDCE498866084690ED1A0A5FED380AC5
:1035F00080EE201A80ED1A1AC74840684861C64814
:1036000090ED010AB8EEC00AD0ED190A80EE201A3A
:10361000084680ED061A81E0C1480068BE4908608E
:10362000BF4840684860BE4880688860BC48C06841
:10363000C860BB4800690861B94840694861B8483A
:1036400080698861B648C069C861B548006A086287
:10365000B348406A4862B248806A8862B048C06A2B
:10366000C862AF48006B0863AD48406B4863AC4824
:10367000806B8863AA48C06BC863A948006C086463
:10368000A748406C4864A648806C8864A448C06C15
:10369000C864A348006D0865A148406D4865A0480E
:1036A00090ED190A084680ED190A02209B4908642A
:1036B000994800694863084690ED0D0AB8EEC00AC3
:1036C00010EE101A08460EF04BFA41EC190B1FEDE4
:1036D000720B53EC102B0DF0F5FD41EC180B0DF0B7
:1036E00017FD8E498866084690ED1A0A8A48D0ED83
:1036F000190A80EE201A084680ED1A1A864840689A
:103700004861854890ED010AB8EEC00AD0ED190A6B
:1037100080EE201A084680ED061A00BF00BFBDECFF
:10372000048B10BD01467F4AD268402A3CD00EDC93
:10373000302A2AD006DC202A18D0212A1BD0222A9F
:1037400055D11DE0312A25D0322A50D127E0512A07
:103750003ED006DC412A2CD0422A2FD0502A46D116
:1037600031E0702A39D0752A41D13BE00020202277
:103770006A4B5A6440E001202122684B5A643BE0C6
:1037800002202222654B5A6436E003203022634B2C
:103790005A6431E004203122604B5A642CE0052049
:1037A00032225E4B5A6427E0062040225B4B5A646B
:1037B00022E007204122594B5A641DE00820422292
:1037C000564B5A6418E009205022544B5A6413E0B7
:1037D0000A205122514B5A640EE00B2070224F4BAD
:1037E0005A6409E00C2075224C4B5A6404E0002016
:1037F00020224A4B5A6400BF00BF704700BF00BF81
:1038000000BF00BF00BF00BF474E00BF00BF0EF0AB
:103810001FFA00F0CEFB04F055FB4449C1F8B0009C
:1038200001F0A0F9642001F09DFA01F0BFF901F068
:10383000E0F901F006FE04F0F9F8FEF746FEFEF7A7
:10384000FDFC06F077FF00F063FF00F015FA05F0CD
:10385000DBFA05F0C6FA40203549086007F0A6FA01
:10386000642007F082FA07F0EFF8642007F021F9EE
:1038700007F041F904F0BDF962B62C48D0F8B00069
:10388000022809D12B49486803F00EFE2A49D1F8D5
:10389000E00003F02CFE07E02448D0F8B000012837
:1038A00002D1022022490860642001F04DFA642010
:1038B00001F04AFA012004F0F0FA1C49D1F8B000F6
:1038C00008F052FE0AF0A8FC00200AF01CFD0AF0E5
:1038D000BFFB1A4809F0EEF94FF420700AF0DAFC49
:1038E000642001F031FA1648D0F80E2015A14FF4EB
:1038F000FA6008F059FB01F04EF98520FEF7FCFF55
:1039000002F08CFAFEF7B3FC0848D0F8B0000228A9
:103910002AD125E01420010848070020985B0020E8
:103920007C200108145C0020485D0020C45A00205F
:10393000180802406C5D0020D8590020843201082C
:103940004402002054686F726C616273204B5343D1
:103950003130310A537752657620253036580000D1
:10396000AA49486803F0A0FD4EE101F0DBFB0446E4
:10397000902C02D1A6A000F02EFEAC48D0F8000199
:10398000012805D1FCF7FBFE0220A849C1F800017F
:1039900001F02BFC01F0FEF9002876D0A44890F845
:1039A0002C00C0F3C01018B140F28140FCF77BFD41
:1039B000A04800680A2808DA04209F4908609D484A
:1039C0000068401C9B49086014E09A4800680A2877
:1039D0000DDB98480068142809DA4FF480209649D6
:1039E000086094480068401C9249086002E000208A
:1039F0009049086004F087FA9049C86190480068CF
:103A0000012121EA50208D49C862C86A07F091FA65
:103A10008A4948620846406A78B10846006E012823
:103A200004D100200866886600F05DFA0020834912
:103A3000A1F88A000320A1F88800804B9B6A0BB193
:103A4000012300E000231A467C4BD969586A3433BD
:103A500007F0ABFB79490863086B07F0B2FE7948C1
:103A60000069012121EA102074494865486DFEF77C
:103A700088FE724988620846006B002875D10846A6
:103A8000406B002871D0012569E0A3E06B48406BD2
:103A9000284020283AD008DC012843D002280FD043
:103AA000082828D0102857D12FE0402811D080288E
:103AB0002DD0B0F5807F15D0B0F5007F4CD11BE044
:103AC00061480068022803D140F2C240FCF7EBFCD9
:103AD00043E05D480068022803D140F2C540FCF78E
:103AE000E2FC3AE058480068022803D14FF48360B2
:103AF000FCF7D9FC31E000BF53480068022803D12D
:103B000040F22250FCF7CFFC27E026E025E04F49A9
:103B1000486CFEF7F1FE02F081F94C48406C4C49CC
:103B2000C8601AE04548406E01280CD14348806EB9
:103B300010B9002000F0D7F94048806E01280AD162
:103B400000F0D1F907E04348D0F80E2042A14FF42D
:103B5000FA6008F029FA00E000BF00BF6D00002DF8
:103B600094D100203549486300BF3448806A012859
:103B700021D10220FCF797FC0621032004F05AFE15
:103B80002E49A1F888000020A1F88A00886600F07C
:103B9000AAF9052070602648C06A20F01000244968
:103BA000C8620846C06A20F02000C8620846C06AA1
:103BB00020F08000C8622148406800280DDD1F48C1
:103BC00001794068401E1D4A506001F0040010B1A8
:103BD00008F059FE01E008F05BFE04F0DEFD174836
:103BE000006B08B904F084FE00F052FC13494866EB
:103BF0000020086403F0B0FD1048006C012803D1D8
:103C00000E49486CFEF7E2F9AFE600006C5D00205B
:103C1000496E76616C696420415054206D65737300
:103C200061676520666F726D61742E00640000200C
:103C3000040700204400002018040240C45A002059
:103C40001008024000000240845B0020985B0020C6
:103C5000145C002044020020456E61626C65204BBC
:103C600065795377697463680A20746F206F706593
:103C70007261746500000000864A126842F4802276
:103C8000844B1A60834A103A1268834B1A43814B63
:103C9000103B1A60814A126822F480127F4B1A602E
:103CA0001A46126842F400121A601A1D126822F4B1
:103CB00080621B1D1A60794A0C32126822F440128D
:103CC000764B0C331A601A1F126822F440121B1F25
:103CD0001A60724A526A22F4706242F4E0636F4AD8
:103CE0005362126822F480026C4B1A601A46126802
:103CF00042F400021A60694A0C32126822F440024F
:103D0000664B0C331A60654A526A22F4704242F4E0
:103D1000E043624A53626249881040F26D12614B7F
:103D20001A8000225F4B08331A801B1D1A805D4ADF
:103D3000121D128842F400525A4B1B1D1A80594A18
:103D40000C32128842F0C002564B0C331A80564A8D
:103D5000926D22F00102544B9A6500E000BF524A76
:103D6000926D02F00102002AF8D14F4A926D22F0C2
:103D700060624D4B9A651A46926D42F000629A65F8
:103D80001A46926D42F488629A65464A121F1A6674
:103D90000022DA651A46926A22F001029A6200E075
:103DA00000BF414A926A02F00102002AF8D13E4A5D
:103DB000926A22F060623C4B9A621A46926A42F022
:103DC00000629A621A46926A42F4A0629A62354A86
:103DD000121F1A63354A5A631A15DA62314A083AD1
:103DE000128822F040022F4B083B1A802D4A121DE8
:103DF000128842F00C022B4B1B1D1A802A4A926A31
:103E000042F00102284B9A6270472749C96AC1F5FE
:103E10008061274A1268914202D14FF6FF700FE08D
:103E200023490A680968491C214B19601F49885CAD
:103E300019460968B1F5806F02D100211A46116058
:103E40007047194A926D22F00102174B9A6500E003
:103E500000BF154A926D02F00102002AF8D1124A01
:103E60005066D1650F4A083A128822F040020D4B85
:103E7000083B1A804FF000620B4B9A601A46926D15
:103E800042F001029A65704706480838008800F041
:103E90004000704740380240020020000004024009
:103EA000007A030A0848004000600240D80700205A
:103EB0004800002010B14FF4004101E04FF00041F4
:103EC000FE4A1160704708B1042101E04FF48021DF
:103ED000FB4A1160704708B1082101E04FF400214E
:103EE000F84A9161704708B1202101E04FF40011B8
:103EF000F44A91617047012800D102E0022800D104
:103F0000002008B1042101E04FF48021EE4A116045
:103F100068B9EA491839096841F00401E74A183AD2
:103F200011601146096821F00801116014E0E349AD
:103F30001839096821F00C01E04A183A1160DF498C
:103F40000C39096821F00401DC4A0C3A1160114671
:103F5000096821F0080111607047012800D102E0D2
:103F6000022800D1002010B14FF4004101E04FF0D1
:103F70000041D54A116058B9D249096841F004019D
:103F8000D04A11601146096821F0080111600FE064
:103F9000CC49096821F00C01CA4A11601146C96870
:103FA00021F00401D1601146C96821F00801D160F7
:103FB0007047C648006840F00100C4490860C14825
:103FC000006820F00300BF4908600846C06820F080
:103FD0000100C8600846C06820F00200C8600846BA
:103FE000006820F00C0008600846C06820F004005B
:103FF000C8600846C06820F00800C860084600682D
:1040000040F0500008600846006820F0A0000860FA
:104010000846006820F4407008600846C06820F434
:104020008070C8600846C06820F40070C860084608
:10403000006840F4806008600846006820F4006072
:1040400008600846006820F4405008600846C068D0
:1040500020F48050C8600846C06820F40050C86052
:104060000846006820F4404008600846C06820F414
:104070008040C8600846C06820F40040C860084618
:10408000006820F4403008600846C06820F48030A2
:10409000C8600846C06820F40030C8600846006860
:1040A00020F0404008600846C06820F08040C860AA
:1040B0000846C06820F00040C8608448006840F0AE
:1040C0000200824908607D481838006840F01100FD
:1040D0007A49183908600846006820F02200086014
:1040E0007648006840F480307449086008460068EB
:1040F00040F48020086071481838006840F00400DF
:104100006E49183908600846006820F00800086009
:104110006A48006840F40030684908606748183809
:10412000006820F0C00065491839086063480C3801
:10413000006820F0400061490C39086008460068BA
:1041400020F0800008605D481838006820F4407056
:104150005A491839086059480C38006820F48070B2
:1041600056490C3908600846006820F40070086061
:1041700052481838006820F44060504918390860E7
:104180004E480C38006820F480604C490C390860B7
:104190000846006820F40060086048481838006845
:1041A00020F4405045491839086044480C380068EC
:1041B00020F4805041490C3908600846006820F41A
:1041C000005008603D481838006820F440403B49E2
:1041D0001839086039480C38006820F480403749A5
:1041E0000C3908600846006820F400400860334835
:1041F0001838006820F440303049183908602F48DA
:104200000C38006820F480302C490C3908600846CE
:10421000006820F40030086028481838006820F44E
:10422000402026491839086024480C38006820F4DA
:10423000802022490C3908600846006820F40020DC
:1042400008601E481838006840F0AA401B49183919
:1042500008600846006820F02A4008601748006897
:1042600040F08050154908600846006840F0005052
:1042700008600846006840F480400860084600680E
:1042800040F0004008601148006840F004000F4909
:1042900008600D481838006840F055000A49183980
:1042A00008600846006820F0AA000860102006494F
:1042B00008600548183800680AE000001804024049
:1042C000180C02400000024018080240303802403A
:1042D00040F480709C4908600846006820F4007033
:1042E000086099480830006820F440709649083109
:1042F00008609548006820F440609349086092483F
:104300000C30006820F440608F490C3108608E4802
:104310001830006840F480308B4918310860084636
:10432000006840F4003008600846006840F48020CF
:1043300008600846006840F4002008608248006871
:1043400020F44060804908607F480C30006820F409
:1043500080607D490C3108600846006820F40060E8
:1043600008607948006840F4A04077490860084632
:10437000006820F42040086073481830006840F05E
:1043800040007149183108600846006840F080001C
:1043900008606D48006820F440306B4908606A4846
:1043A0000C30006820F4803067490C310860084602
:1043B000006820F4003008606348006820F4402062
:1043C0006149086060480C30006820F480205E4934
:1043D0000C3108600846006820F4002008605A4844
:1043E000006820F040605849086057480C30006869
:1043F00020F0806054490C3108600846006820F0C5
:10440000006008605048006820F040504E49086045
:104410004D480C30006820F080504B490C3108604A
:104420000846006820F0005008604748006840F0E7
:104430008040454908600846006820F00040086058
:1044400041481830006840F400403F491831086086
:104450003E48006840F008003C4908603C4800685D
:1044600040F010003A4908603748006820F020000A
:104470003549086036481830006840F00400344977
:1044800018310860704733480069C0F380107047E6
:1044900030480069C0F3C01070472F48006820F012
:1044A0000C002D490860042027491831086000BF1E
:1044B00000BF00BFBFF35F8F00BF00BF00BF264833
:1044C00010300068C0F3400070474FF480211E4A4E
:1044D0001832116008B1022101E04FF400311E4A88
:1044E000183211601C49096841F004011A4A116030
:1044F00070471848006820F00C00164908604FF417
:10450000004011491831086000BF00BF00BFBFF371
:104510005F8F00BF00BF00BF0E480069C0F34000BE
:1045200070474FF00041084A1832116008B102216B
:1045300001E04FF40031074A91611146096841F0EA
:10454000040111607047000000080240303802404A
:10455000000C0240000002400004024010B5584820
:104560000068B0B1FFF790FC98B155480168554814
:104570000068FFF766FC534800685349884202D13F
:1045800001F5806000E050484E49086000204C4929
:10459000086010BD0FB438B505A800904848006801
:1045A000B0F5806F02D349A000F015F845490968BD
:1045B000434A12688818009A04990AF003F80446DE
:1045C0003F48006820443E49086000200090204693
:1045D00038BC5DF814FB0446214644A0FFF7DAFF1F
:1045E00001E0FFF7BBFFFCE72DE9F04105460E4671
:1045F00000274448006808B9434805603DE0082C9E
:1046000004D00A2C1DD00D2C20D119E03D480068A3
:10461000A8B108213DA0FFF7BDFF20213BA0FFF777
:10462000B9FF082139A0FFF7B5FF36480068401EE2
:104630003449086034480068401E334908601BE074
:1046400000BF012700202F49086015E02D480068B1
:10465000B04210D221462DA0FFF79CFF2A490968DD
:104660000C7029480068401C2749086025480068EC
:10467000401C2449086000BF00BFFFF7C6FB04468A
:104680004FF6FF718842BAD16FB100201E49096808
:1046900008701D480068401C1B49086008460068F7
:1046A000401BBDE8F0810020FBE710B500E000BF33
:1046B000FFF7EAFB0028FAD0FFF750FF10BD00001B
:1046C000500000204C000020D80B0020436F6E7378
:1046D0006F6C65207072696E7420627566666572B3
:1046E000206F766572666C6F770000000D0A457862
:1046F00069742077697468206572726F723A202538
:1047000073000000540000205800002025630000C2
:10471000F948006840F01000F7490860F64814387E
:104720000068F6490843F44914390860F448006801
:1047300020F48020F24908600846006840F4002018
:1047400008600846406820F4007048600846C06869
:1047500020F44020C8600846806820F4402088602B
:104760000846406A20F0F00040F07001E4484162E1
:10477000006820F48010E24908600846006840F4B0
:10478000001008600846C06820F40010C8600846A1
:10479000C06840F48010C8600846406A20F4706029
:1047A00040F4E061D6484162C002D54988610846BC
:1047B000006840F0807008600846006820F00070D3
:1047C00008600846806840F04070886008460068CD
:1047D00020F4400008600846C06820F40000C8606B
:1047E0000846C06840F48000C86040F2D920C5493E
:1047F00008810020088288820846808940F40050A1
:1048000088810846808A40F0C0008882BE480068DF
:1048100020F00100BC49086000E000BFBA48006811
:1048200000F001000028F8D1B748006820F060606F
:10483000B54908600846006840F000600860084616
:10484000006840F488600860AE48001DAE49083139
:1048500008600020091F0860AB487838006820F025
:104860000100A9497839086000E000BFA6487838FF
:10487000006800F001000028F7D1A34878380068EC
:1048800020F06060A049783908600846006840F070
:10489000006008600846006840F4A060086099481D
:1048A000001D9949703908609848091D086008156D
:1048B0009549743908609348008820F04000914978
:1048C00008800846808940F00C0088818E4878383E
:1048D000006840F001008C497839086070478648CC
:1048E000001F006840F400308349091F0860084633
:1048F0000068824908438049091F086080480068B1
:1049000020F480207E4908600846006840F40020BA
:1049100008600846406820F4007048600846C06897
:1049200020F44020C8600846806820F44020886059
:104930000846406A20F0F00040F070017048416283
:10494000006820F480106E4908600846006840F452
:10495000001008600846C06820F40010C8600846CF
:10496000C06840F48010C8600846406A20F4706057
:1049700040F4E06162484162C002614988610846D2
:10498000006840F0807008600846006820F0007001
:1049900008600846806840F04070886008460068FB
:1049A00020F4400008600846C06820F40000C86099
:1049B0000846C06840F48000C86040F2D9205149E0
:1049C00008810020088288820846808940F40050CF
:1049D00088810846808A40F0C00088824A48006882
:1049E00020F001004849086000E000BF4648006828
:1049F00000F001000028F8D14348006820F0606012
:104A0000414908600846006840F0006008600846B8
:104A1000006840F4886008603A48001D3A4908314F
:104A200008600020091F086037487838006820F0C7
:104A3000010035497839086000E000BF3248783815
:104A4000006800F001000028F7D12F48783800688E
:104A500020F060602C49783908600846006840F012
:104A6000006008600846006840F4A06008602548BF
:104A7000001D2549703908602448091D0860081583
:104A80002149743908601F48008820F040001D4902
:104A900008800846808940F00C0088811A487838E0
:104AA000006840F0010018497839086070471649DD
:104AB00074390968C1F58061154A1268914202D1C2
:104AC0004FF6FF700FE012490A680968491C104B45
:104AD00019600E49885C19460968B1F5806F02D1EA
:104AE00000211A4611607047074A126822F001023D
:104AF000054B1A600FE000004438024001004000FE
:104B00000000024000100140B8640240D8130020A9
:104B10005C00002000BF114A126802F00102002A66
:104B2000F8D10E4A0C3210600C4A121D11600C4A6A
:104B3000128822F040020A4B1A804FF00062074BA5
:104B4000AC3B1A60054A126842F00102034B1A603E
:104B500070470348008800F040007047B864024086
:104B600000100140FE48006840F00100FC49086068
:104B70000806008840F00100090608804AF20F404C
:104B800008850846808A40F0010088827047024606
:104B9000501A80B270474FF08040406AC0F34F0017
:104BA00070474FF08040406A40087047EC4800680A
:104BB00040F01000EA4908605320EA4908854FF6A2
:104BC000FF704862C8620846008840F0080008800C
:104BD0000846008840F00100088070474142E148E3
:104BE0004162018841F0010101800188C907FCD1BF
:104BF0007047DB48006840F00800D9490860D84891
:104C00002038006840F00800D5492039086000E0ED
:104C100000BFD3482038006800F008000028F7D013
:104C2000CF482038006820F00800CD4920390860BE
:104C30000020CD490880091F0860C9481038006865
:104C400040F00100C64910390860C848006820F0EB
:104C50000100C64908600846006840F0020008608C
:104C60000846006A20F00F00801C08624FF0FF30F9
:104C7000BD49091D08605720BB4920390880BA4842
:104C80001038008840F00100B74910390880081F2B
:104C9000008840F00100091F0880B34828380088C8
:104CA00040F00100B04928390880AD48006840F064
:104CB0000200AB4908600020AD490880091F086068
:104CC000A7481038006840F00200A5491039086074
:104CD000A848006820F00100A6490860084600685E
:104CE00040F002000860A3482030006820F00F0068
:104CF000801CA049203108600846006820F0F000C0
:104D000040F02000086041F267009949091D0860E1
:104D1000401097491431086008460068091D086072
:104D200047F2700092490C390880081D008840F451
:104D30008070091D08808E481438008840F00100FA
:104D40008B4914390880704700B50146FFF723FFEF
:104D5000024600E000BFFFF71EFF801A80B28842C3
:104D6000F8DB00BD0246844850434FF47A73B0FB31
:104D7000F3F1B1F1807F01D3012070474FF0E020C3
:104D8000006940F001004FF0E023186118464161CE
:104D90000020F2E74FF0E020006900F48030704717
:104DA0000CB558B9754909680191744928390968E1
:104DB000734A11607149243909680091684909688A
:104DC00041F08051664A11606E49096841F4807172
:104DD0006C4A116062493031096841F48031604A9F
:104DE000303211601146096821F48031116011469A
:104DF000096841F4407111601146096841F40041AD
:104E00001160CA215D4A121F1160532111605B4974
:104E10001C39096841F08001584A1C3A116000E0D1
:104E200000BF56491C39096801F040010029F7D03C
:104E30005249183909686FF30C0101F20F714F4A9A
:104E4000183A11601146096821F4FE0141F4C601C7
:104E500011604B490968494A283A11604A49121DB4
:104E6000116046491C39096821F08001434A1C3A07
:104E7000116000E000BF41491C39096801F0800160
:104E80000029F7D1FF213D4A121F11603B491C390F
:104E9000096821F02001394A1C3A11600CBD3049E3
:104EA000096841F080512E4A11603649096841F481
:104EB0008071344A11602A493031096841F48031E7
:104EC000274A303211601146096821F4803111609F
:104ED0001146096840F205121143214A303211602F
:104EE0001146096841F40041116038B12049283960
:104EF000098841F001011E4A283A1180CA211F4A3F
:104F0000121F1160532111601C491C39096841F0BE
:104F100080011A4A1C3A116000E000BF17491C3991
:104F2000096801F040010029F7D0144918390968CF
:104F30006FF30C0101F20F71104A183A116011461B
:104F4000096821F4FE0141F4803111600C490968BF
:104F50000A4A283A11600C49121D1160074915E0F0
:104F60004038024000100040280C00400000024081
:104F70002804004000040240406F400128280040FF
:104F80006000002000700040024413001C390968D2
:104F900021F080015F4A116000E000BF5D490968AF
:104FA00001F080010029F8D1FF215A4A183211601E
:104FB0005849096821F02001564A11607047564946
:104FC0000140564A11607047CA21524A1832116096
:104FD000532111604F49096841F080014D4A116029
:104FE00000E000BF4B49096801F040010029F8D0FA
:104FF00049490140474A0C3A11604649096821F085
:105000008001444A1160FF21424A18321160704702
:1050100010B50246CA203F4B183318605320186061
:105020003C48001F006820F480703A4B1B1F18603A
:10503000181D006840F001001B1D186000E000BF53
:105040003448006800F001000028F8D032481040D1
:1050500040F000402F4B10331860C1F30C0040F0BB
:1050600070602C4B383318602A48006820F001002B
:10507000284B18601846006820F480701860181FCC
:10508000006840F488501B1F1860181D006820F04D
:1050900001001B1D1860FF201E4B183318602048AC
:1050A000006840F400301E4B18601D480838006846
:1050B00040F400301A4B083B186019480C30006867
:1050C00040F40030164B0C331860292000F01F0408
:1050D0000123A3404409A40004F1E024C4F80031F2
:1050E00000BF10BD0B48006820F4807009490860BB
:1050F00000E000BF0748006800F480700028F8D185
:1051000007480C30006840F4003005490C31086055
:10511000704700000C2800407F7F3F0060000020A7
:10512000083C014070B501255848D0F8000102281C
:1051300001D0022070BD35E0554802680068401C6F
:10514000534B1860514884541846006806281BD1F8
:105150004E48007900F0800010B14C48807800E0A3
:105160000020801D4B4908604848007900F07F000E
:10517000502807D145484079012803D108460068E6
:10518000802801D99020D5E7414800684149096845
:10519000884207D100203E49086001203B49C1F800
:1051A000000103253948D0F80001012806D0FFF797
:1051B0007EFC04464FF6FF718842BDD12846B9E710
:1051C00010B5354B1B68354C24681A19334B1B68D6
:1051D0000B44324C236003E010F8013B02F8013B22
:1051E0000B1EA1F10101F7D110BD10B52B480068CD
:1051F000B0B1FFF7AEFC98B12848016826480068B6
:10520000FFF772FC244800682549884202D101F565
:10521000807000E022482049086000201F49086093
:1052200010BD2DE9F04393B080460D4616461D484B
:105230000068854202D113B0BDE8F0836C46A71D1B
:10524000812020604420A0700020E0708120207127
:1052500050206071A7F800807D804FF0000900BFEA
:105260003278484609F10109391D0A5416F8011B24
:105270000029F5D1B5F5004F03D04A212046FFF7AC
:105280009FFF0848056000BFD5E7000064000020CC
:105290007001002074010020680100206C010020D2
:1052A000D817002078010020014601F00702FB4BCF
:1052B00018684FF6FF031840F94B034343EA0220F6
:1052C000F64B1860704710B5002808DA0A07140E6C
:1052D000F24A0C3200F00F031B1FD45403E00A07FC
:1052E000130EF04A135410BD10B5EF48006840F09B
:1052F0000200ED490860ED48006820F00100EB492C
:1053000008600846006840F002000860081D006858
:1053100020F00100091D0860E4480C30006820F00E
:105320000300E2490C310860081F006840F00300E8
:10533000091F0860DD482030006820F00F00801C45
:10534000DA4920310860D948006820F00400D749C4
:1053500008600846006840F008000860081D006802
:1053600020F00200091D0860D0480C30006820F0D1
:105370000C00CE490C310860081F006840F00C009A
:10538000091F0860C9482030006820F0F00040F094
:105390002000C64920310860C3481030006840F042
:1053A0000200C149103108605320C14908803120F2
:1053B000091D08600520BE4914310860BC480C383E
:1053C000008840F06000BA490C390880081D008848
:1053D00040F48070091D08800520B5491831086027
:1053E000B3480C38008840F4C040B1490C390880FB
:1053F000081D008840F48050091D0880AC4814380E
:10540000008840F00100AA4914390880A8481C38D7
:10541000008840F00800A6491C390880A4482838B4
:10542000008840F00100A249283908800320FFF7D6
:105430003BFF01211D20FFF746FF1D2000F06CF906
:1054400010BD10B500249B4C9748006840F0040044
:105450009549086094481030006840F00200924975
:10546000103108600720924908803120091D08602A
:105470006820086005208E49143108608C480C387B
:10548000008840F068008A490C390880081D0088AF
:1054900040F48070091D0880052085491831086096
:1054A00083480C38008840F4D04081490C3908808A
:1054B000081D008840F48050091D08807C4814387D
:1054C000008840F001007A491439088078481C3877
:1054D000008840F0080076491C3908807448283854
:1054E000008840F001007249283908800320FFF746
:1054F000DBFE01211D20FFF7E6FE1D2000F00CF968
:1055000010BD10B56A481838008820F008006849B6
:1055100018390880081F008840F00800091F08801B
:105520000846008820F0100008806348D0F8B000DA
:10553000022802D102F0CEF802E002205F490860A2
:1055400010BD08B55D48001F006800F0100000287D
:105550007DD05B4890ED002ADFED5A2AB4EEE22AB6
:10556000F1EE10FA04DD9FED572A80ED002A0DE0E0
:10557000534890ED002ADFED542AB4EEE22AF1EE12
:1055800010FA03D29FED502A80ED002A4F4890ED8B
:10559000002ADFED4C2AB4EEE22AF1EE10FA04DD27
:1055A0009FED482A80ED002A0DE0484890ED002A42
:1055B000DFED452AB4EEE22AF1EE10FA03D29FEDB8
:1055C000422A80ED002A4248C0ED001A414880ED91
:1055D000001A414890ED002A404880ED002A4048DA
:1055E00090ED002A3C4880ED002A3E4890ED002ACC
:1055F0003D4880ED002A3D4890ED002A394880ED75
:10560000002A374880ED000A394890ED002A3948D1
:1056100080ED002A384890ED002A354880ED002AB8
:10562000364890ED002A364880ED002A354890ED46
:10563000002A324880ED002A2F48C0ED000A1E489B
:105640000088032815D09FED302A284800E015E097
:1056500080ED002A9FED2C2A2A4880ED002A9FED3C
:105660002A2A174880ED002A9FED272A174880ED47
:10567000002A4FF44010114908600EE02348808949
:10568000009023480088009030200C490860214891
:10569000806840F080401F49886008BD0CED00E044
:1056A0000000FA0500E400E0303802400004024047
:1056B0002804004080DE8002C45A002018080240FE
:1056C000B001002000FEFF4600FEFFC6B40100202E
:1056D000B8010020BC0100208001002084010020CE
:1056E0007C0100208C010020900100208801002016
:1056F000980100209C01002094010020A4010020BA
:10570000A8010020A001002000000000003001409E
:105710000C3800400020014000F01F0201219140A0
:105720004209920002F1E022C2F800117047000025
:1057300008B56C48006840F001006A490860694893
:105740001430006840F4805066491431086066489F
:10575000006820F48040644908600846006840F40E
:10576000004008600846406820F080004860084615
:10577000C06820F44040C8600846806860F440403B
:1057800088600846006A20F0704040F0A04008623F
:105790000846006820F4806008600846006840F40D
:1057A000006008600846406820F020004860084615
:1057B000C06820F44060C8600846806860F44060BB
:1057C00088600846006A20F4700040F4A000086277
:1057D0000846006820F4805008600846006840F4DD
:1057E000005008600846C06840F48050C860084611
:1057F000C06820F40050C8600846006A20F070605D
:1058000040F0A06008623748006840F00400354965
:10581000086010203549086034481838006840F4A2
:1058200080703249183908600846006820F400701A
:105830000860081D006820F01000091D08602B4852
:105840000C38006820F4407028490C390860081FA3
:10585000006860F44070091F08602548808820F0C7
:105860004000234988800846008820F040000880D6
:1058700040F2273008800846008840F04000088049
:1058800008468089009008BD10B501460022184BDB
:10589000998100E000BF164B1B891BB91346521CAF
:1058A000642BF7D3124B9B89D8B210BD0146104828
:1058B000818100BF0E48008900F002000028F9D065
:1058C00000BF0B48008900F001000028F9D000BF9C
:1058D0000748008900F080000028F9D10448808939
:1058E000C0B2704730380240000002401808024041
:1058F0000030014008B57148006840F004006F496D
:1059000008606E481030006840F400406B49103168
:1059100008606B48006820F080706949086008469C
:10592000006840F000700860081D006820F4805096
:10593000091D086062480C30006820F04070604922
:105940000C310860081F006860F04070091F086093
:105950005B48406A20F4702040F4C02158484162FE
:10596000006820F48010564908600846006840F43A
:1059700000100860081D006820F48060091D0860A0
:105980004F480C30006820F440104D490C3108603D
:10599000081F006860F44010091F08604848406A0A
:1059A00020F4706040F4C06145484162006820F412
:1059B0008000434908600846006840F40000086021
:1059C0003F480C30006840F480003D490C310860CD
:1059D0000846006820F4000008603948406A20F456
:1059E000704040F4C041364841623448006840F09D
:1059F00008003249086004203249086031481838EC
:105A0000006840F010002F49183908600846006807
:105A100020F020000860081D006820F00400091D27
:105A2000086028480C38006820F0300025490C39FF
:105A30000860081F006860F03000091F086004203B
:105A4000204908602048008820F040001E49088056
:105A5000081F008820F04000091F08804FF449709B
:105A600008800846008840F040000880164808304A
:105A70000088009008BD08B1042101E04FF48021A6
:105A8000104A11607047014600E000BF0E4A121D27
:105A9000128802F00202002AF7D00B4A0832118065
:105AA00000E000BF084A121D128802F00102002A1D
:105AB000F7D0054A08321288D0B270473038024019
:105AC00000080240180C0240043C00402DE9F05F41
:105AD00081460C4617469A464FF0010B4E46E01998
