:020000040800F2
:10000000187D00201503000833030008237800083A
:1000100037030008390300083B0300080000000014
:100020000000000000000000000000003D03000888
:100030005703000800000000FF7700085B0300087A
:100040005D0300085D0300085D0300085D03000810
:100050005D0300085D0300085D0300085D03000800
:100060005D0300085D0300085D0300085D030008F0
:100070005D0300085D0300085D0300085D030008E0
:100080005D0300085D0300085D0300080F8C000895
:10009000E38A00085D0300085D0300085D030008B3
:1000A0005D0300085D0300085D0300085D030008B0
:1000B000559000085D0300085D0300085D0300081B
:1000C0005D0300085D0300085D0300085D03000890
:1000D0005D0300085D0300085D0300085D03000880
:1000E0005D030008094200085D0300085D03000885
:1000F000353C00085D0300085D0300085D0300084F
:100100005D0300085D0300085D0300085D0300084F
:100110005D0300085D0300085D030008839000088C
:100120005D0300085D0300085D0300085D0300082F
:100130005D0300085D0300085D0300085D0300081F
:100140005D0300085D0300085D0300085D0300080F
:100150005D0300085D0300085D0300085D030008FF
:100160005D0300085D0300085D0300085D030008EF
:100170005D0300085D0300085D0300085D030008DF
:100180005D0300085D03000800F002F800F0B2F81B
:100190000AA090E8000C82448344AAF10107DA45E2
:1001A00001D100F0A7F8AFF2090EBAE80F0013F082
:1001B000010F18BFFB1A43F00103184714CE0000CB
:1001C00034CE00000A444FF0000C10F8013B13F04D
:1001D000070408BF10F8014B1D1108BF10F8015BA0
:1001E000641E05D010F8016B641E01F8016BF9D193
:1001F00013F0080F1EBF10F8014BAD1C0C1B09D1EA
:100200006D1E58BF01F801CBFAD505E014F8016B5B
:1002100001F8016B6D1EF9D59142D6D370470000ED
:100220000023002400250026103A28BF78C1FBD8FF
:10023000520728BF30C148BF0B6070476E2909F0D4
:100240004586702909F0A48766290CF02B82652960
:100250000CF0288267290CF025826129AFF3008019
:1002600003681B0A28BF41F08001692909F0F28563
:10027000642909F0EF85752909F0EC856F2909F0EB
:100280002F87782909F07087E92909F0C786E429C2
:1002900009F0C486F52909F0C186EF2909F02C87F9
:1002A000F82909F06F870368DB0928BF41F0800156
:1002B000632909F04886732909F04D86E3290AF07D
:1002C000D584F3290AF0DA84002070471FB50CF0BA
:1002D000DFF90AF0FFF90400002000210BF058FFBD
:1002E000401C6060002000210BF03CFFE0601FBD5F
:1002F00010B510BD0AF014FF1146FFF7E7FF05F037
:10030000C5FE0BF0A3F903B4FFF7F2FF03BC0BF03B
:10031000B7F9000015481649026800608A4203D008
:1003200014488047144800471448D0F800D040686B
:100330000047FEE7FEE7FEE7FEE7FEE71EF0040FDC
:100340000CBFEFF30880EFF30980806910F8020C0E
:1003500007F060BAFEE7FEE7FEE7FEE7FEE7000013
:1003600007480849084A094B70470000F01F002061
:10037000EFBEADDE9B430008890100080000FF1FAF
:1003800018770020187D00201879002018790020A7
:1003900001468A1E0A2A1AD2DFE802F00507090B75
:1003A0000D0F11131517022013E0032011E0042094
:1003B0000FE005200DE006200BE0072009E00820F3
:1003C00007E0092005E00A2003E00B2001E00120FE
:1003D00000BF00BF704710B504464FF04040FE49D3
:1003E00048604042086088644042C8640120486612
:1003F0000846806E20F00100401C88660846806E2A
:1004000020F00200801C88660846806E20F0040000
:10041000001D88660846806E20F008000830886657
:100420000846806E20F01000103088660846806E06
:1004300020F0200020308866022008610862102029
:10044000C8620021E44801660F2C80F09987DFE83C
:1004500014F0970798070F0097001E01A501590295
:10046000E4026D034605BC04F603CF0583060D07C1
:100470000120DA49086002208860D9A1D7480C30F1
:1004800009F090F90120D549C86108629FEDD60AAC
:10049000084680ED0D0AB1EE080A80ED0E0A9FEDC8
:1004A000D30A80ED0A0A9FEDD00A80ED090A9FED7C
:1004B000D00A80ED0B0A9FEDCF0A80ED0C0AB6EE54
:1004C000000A80ED0F0AB6EE000A80ED100A9FEDDB
:1004D000CA0A80ED110A9FEDC90A80ED120A4FF495
:1004E0001030BD4908600846806E20F00100401CB5
:1004F00088660846806E20F00400001D8866084665
:10050000806E20F01000103088660846806E20F063
:100510000200801C88660846806E20F008000830C3
:1005200088660846806E20F02000203088660846E5
:10053000806E20F0400088660846806E20F08000C3
:10054000886695208860AE48C860AE4888624FF4DF
:10055000C040086340F69910486195208861A8481A
:10056000C861F520486240F2B3100865C3219A487B
:10057000416540F2E1318165C321C16500F05CBF96
:10058000012096490860032088609FA193480C30A1
:1005900009F008F901209149C86108629FED920AAB
:1005A000084680ED0D0AB2EE080A80ED0E0A9FEDB6
:1005B0008F0A80ED0A0A9FED8C0A80ED090A9FEDF3
:1005C0008C0A80ED0B0A9FED8B0A80ED0C0AB6EECB
:1005D000000A80ED0F0AB6EE000A80ED100A9FEDCA
:1005E000860A80ED110A9FED850A80ED120A4FF40C
:1005F0009020794908600846806E20F00100401C78
:1006000088660846806E20F00400001D8866084653
:10061000806E20F01000103088660846806E20F052
:100620000200801C88660846806E20F008000830B2
:1006300088660846806E20F02000203088660846D4
:10064000806E20F0400088660846806E20F08000B2
:100650008866952088606A48C8606A4888624FF456
:10066000C040086340F6991048619520886164484D
:10067000C861F520486240F2B3100865C3215648AE
:10068000416540F2E1318165C321C16576E7012012
:1006900052490860042088605DA150480C3009F080
:1006A00081F801204D49C86108629FED4F0A084654
:1006B00080ED0D0AB3EE090A80ED0E0A9FED4B0A9C
:1006C00080ED0A0A9FED480A80ED090A9FED480A6D
:1006D00080ED0B0A9FED470A80ED0C0AB6EE000A8A
:1006E00080ED0F0AB6EE000A80ED100A9FED420A77
:1006F00080ED110A9FED410A80ED120A4FF4162099
:10070000354908600846806E20F00100401C88666C
:100710000846806E20F00400001D88660846806E42
:1007200020F01000103088660846806E20F002002D
:10073000801C88660846806E20F0080008308866B5
:100740000846806E20F02000203088660846806EC3
:1007500020F0400088660846806E20F080008866A1
:10076000952088602648C860264888624FF4C040BB
:10077000086340F699104861952088612048C86157
:10078000F520486240F2B3100865C3211248416564
:1007900040F2E1318165C321C165EFE602200F49D6
:1007A0000860052088601CA10C480C3008F0FAFF96
:1007B00001200A49C86108629FED0B0A084680EDD6
:1007C0000D0A9FED170A80ED0E0A9FED160A80EDC7
:1007D0000A0A90ED0A0A27E0E8020020F40300204C
:1007E0005A3630360000000000000000ABAA2A385C
:1007F000B53706498D773B430000704300409C4568
:100800007D080500BD3104005A3631320000000079
:100810005A36323500000000435A312D5A36000056
:100820000000B4430000203A5FED030A80EE801A16
:1008300080ED091A1FED120A80ED0B0A1FED130A55
:1008400080ED0C0AB6EE000A80ED0F0AB6EE000A43
:1008500080ED100A1FED180A80ED110A1FED190A2C
:1008600080ED120A4FF08040FE4908604042486027
:100870000846806E20F0010088660846806E20F0F1
:10088000040088660846806E20F0100010308866EC
:100890000846806E20F0020088660846806E20F0D0
:1008A0000800083088660846806E20F0200020305E
:1008B00088660846806E20F0400088660846806E94
:1008C00020F08000886663208860E748C860401098
:1008D000886240F24710086340F2666048614A202F
:1008E0008861E248C86140F24710486240F25230E5
:1008F00008653221DB4841654FF42A618165322168
:10090000C1653BE60220DA49086006208860D9A16B
:10091000D7480C3008F046FF0120D549C86108626D
:100920001FED4F0A084680ED0D0A1FED430A80EDCA
:100930000E0A9FEDD20A80ED0A0A90ED0A0A5FEDD9
:10094000480A80EE801A80ED091A9FEDCD0A80EDED
:100950000B0A9FEDCC0A80ED0C0AB3EE090A80ED7C
:100960000F0AB3EE090A80ED100A1FED5D0A80ED53
:10097000110A1FED5E0A80ED120ABA48806E20F05F
:100980000100B84988660846806E20F00400886639
:100990000846806E20F01000103088660846806E91
:1009A00020F0020088660846806E20F008000830BB
:1009B00088660846806E20F0200020308866084651
:1009C000806E20F0400088660846806E20F080002F
:1009D0008866AD48886241F6FE5008634FF080405B
:1009E00008604042486092208860A748C86042F290
:1009F0007E504861DB208861A448C86140F27F7066
:100A0000486240F2523008659621964841654FF49D
:100A10002A6181653221C165B0E5012094490860F1
:100A2000072088609AA192480C3008F0BBFE012094
:100A30008F49C86108621FED940A084680ED0D0ACF
:100A4000B3EE090A80ED0E0A9FED940A80ED0A0AC2
:100A50001FED9B0A80ED090A9FED910A80ED0B0ABC
:100A60009FED900A80ED0C0A9FED8F0A80ED0F0A32
:100A7000B1EE040A80ED100A1FEDA10A80ED110A03
:100A80001FEDA20A80ED120A8848764908600846E0
:100A9000806E20F00100401C88660846806E20F0C1
:100AA0000400001D88660846806E20F0100010309B
:100AB00088660846806E20F00200801C8866084622
:100AC000806E20F00800083088660846806E20F0AE
:100AD0002000203088660846806E20F0400088663E
:100AE0000846806E20F080008866714888624FF466
:100AF000064008634FF4C47088606E48C8604FF4C5
:100B0000864048614FF4C47088616A48C86140F209
:100B1000B360486240F23130086533215148416585
:100B20004FF42A6181653321C16527E501205049D1
:100B300008600820886060A14D480C3008F032FE43
:100B400001204B49C86108621FEDD90A084680EDB3
:100B50000D0A9FED5C0A80ED0E0A9FED500A80EDB4
:100B60000A0A1FEDDF0A80ED090A9FED4D0A80EDAC
:100B70000B0A9FED4C0A80ED0C0A9FED4B0A80EDAD
:100B80000F0AB1EE040A80ED100A1FEDE50A80EDB0
:100B9000110A1FEDE60A80ED120A4B483149086040
:100BA0000846806E20F00100401C88660846806E72
:100BB00020F00400001D88660846806E20F01000BA
:100BC000103088660846806E20F00200801C88661F
:100BD0000846806E20F00800083088660846806E5F
:100BE00020F02000203088660846806E20F040000B
:100BF00088660846806E20F0800088662C488862EF
:100C00004FF4064008634FF4C47088602948C860F8
:100C10004FF4864048614FF4C47088612548C8612C
:100C200040F2B360486240F23130086533210D482C
:100C300041654FF42A6181653321C165FCE30120E0
:100C40000B4908600B20886020A109480C3008F08F
:100C5000A9FD01200649C86108629FED1E0A0846E9
:100C60003AE00000E802002052790400FE5A030036
:100C7000F403002050524D312D5A38000E8F083A9F
:100C8000A9BD27475C8F6A41C58B0600A7D1090023
:100C90004D545332352D5A38000000008D89F437F9
:100CA000A2293B4960B582439A99194000160D006C
:100CB0009AB20B00E2C020004D545335302D5A3803
:100CC0000000000000004842002C1A005A3830365C
:100CD000000000000000000080ED0D0AB1EE080ADF
:100CE00080ED0E0A1FED130A80ED0A0A1FED070AB8
:100CF00080ED090A1FED160A80ED0B0A1FED170A99
:100D000080ED0C0A9FEDFE0A80ED0F0AB1EE040A99
:100D100080ED100A9FEDFB0A80ED110A9FEDFA0AA3
:100D200080ED120A4FF44930F84908600846806E99
:100D300020F00100401C88660846806E20F0040008
:100D4000001D88660846806E20F01000103088660E
:100D50000846806E20F00200801C88660846806E7F
:100D600020F00800083088660846806E20F02000D9
:100D7000203088660846806E20F04000886608466D
:100D8000806E20F0800088664FF4C4708860E04870
:100D9000C860E048886242F63300086340F6665057
:100DA000486140F20A208861DB48C86140F259304E
:100DB000486240F2B3100865C321D448416540F24F
:100DC000E1318165C321C16536E30120D349086063
:100DD0000A208860D2A1D1480C3008F0E3FC012041
:100DE000CE49C86108621FED450A084680ED0D0A2C
:100DF000B2EE080A80ED0E0A1FED580A80ED0A0ACD
:100E00001FED4C0A80ED090A1FED5B0A80ED0B0A0D
:100E10001FED5C0A80ED0C0A9FEDB90A80ED0F0A08
:100E2000B1EE040A80ED100A9FEDB60A80ED110ABA
:100E30009FEDB50A80ED120A4FF4C920B34908604E
:100E40000846806E20F00100401C88660846806ECF
:100E500020F00400001D88660846806E20F0100017
:100E6000103088660846806E20F00200801C88667C
:100E70000846806E20F00800083088660846806EBC
:100E800020F02000203088660846806E20F0400068
:100E900088660846806E20F0800088664FF4C47033
:100EA00088609B48C8609B48886242F633000863AC
:100EB00040F66650486140F20A2088619648C86151
:100EC00040F25930486240F2B3100865C3218F48A0
:100ED000416540F2E1318165C321C165ACE2012089
:100EE0008E490860092088608FA18C480C3008F07A
:100EF00059FC01208949C86108621FED8A0A084629
:100F000080ED0D0AB3EE090A80ED0E0A1FED9D0A71
:100F100080ED0A0A1FED910A80ED090A1FEDA00A73
:100F200080ED0B0A1FEDA10A80ED0C0A9FED740AFB
:100F300080ED0F0AB1EE040A80ED100A9FED710AF0
:100F400080ED110A9FED700A80ED120A78486F4912
:100F500008600846806E20F00100401C8866084644
:100F6000806E20F00400001D88660846806E20F028
:100F70001000103088660846806E20F00200801C49
:100F800088660846806E20F00800083088660846AB
:100F9000806E20F02000203088660846806E20F0A9
:100FA000400088660846806E20F0800088664FF416
:100FB000C47088605648C8605648886242F633005C
:100FC000086340F66650486140F20A208861524842
:100FD000C86140F25930486240F2B3100865C3213D
:100FE0004A48416540F2E1318165C321C16523E290
:100FF00002204A490860052088604EA147480C300D
:1010000008F0D0FB01204549C861002008621FEDAF
:10101000CF0A084680ED0D0A9FED480A80ED0E0AC2
:101020009FED470A80ED0A0A90ED0A0ADFED430AB8
:1010300080EE801A80ED091A9FED420A80ED0B0ABE
:101040009FED410A80ED0C0AB1EE000A80ED0F0A17
:10105000B1EE000A80ED100A9FED2A0A80ED110A18
:101060009FED290A80ED120A4FF080402749086061
:10107000404248600846806E20F0010088660846BD
:10108000806E20F0040088660846806E20F0100014
:10109000103088660846806E20F002008866084698
:1010A000806E20F0080088660846806E20F02000E0
:1010B000203088660846806E20F04000886608462A
:1010C000806E20F0800088663220886044F65A40A6
:1010D000C860012088620020086340F266604861B1
:1010E0002620886143F64410C86140F247104862E8
:1010F00040F25230086532210448416526E0000084
:10110000333313400000704300409C45E802002048
:10111000E2C020009AB20B0034651700F4030020EF
:101120005A383132000000005A38323500000000D1
:1011300000160D004352312D5A3700000000B44311
:101140000000203A002A0F47508DBE424FF42A611A
:1011500081653221C1656FE10120C649086009201F
:101160008860C5A1C3480C3008F01CFB0120C149B0
:10117000C86108629FEDC20A084680ED0D0AB3EE11
:101180000E0A80ED0E0A9FEDBF0A80ED0A0A9FED60
:10119000BC0A80ED090A9FEDBC0A80ED0B0A9FEDA9
:1011A000BB0A80ED0C0AB2EE040A80ED0F0AB1EE24
:1011B000040A80ED100A9FEDB60A80ED110A9FED3A
:1011C000B50A80ED120A4FF08040B34908604042F2
:1011D00048600846806E20F00100401C8866084682
:1011E000806E20F00400001D88660846806E20F0A6
:1011F000100088660846806E20F00200801C886619
:101200000846806E20F00800083088660846806E28
:1012100020F0200088660846806E20F04000886636
:101220000846806E20F08000886640F2F7508860A3
:101230009A48C86001208862002008639848486185
:1012400040F2794088619748C86144F6206048625E
:101250004FF4877008654FF4C8718F4841654FF4AB
:10126000FA7181654FF41671C165E5E0012081498D
:1012700008600A2088608CA17E480C3008F092FA41
:1012800001207C49C86108629FED7D0A084680ED17
:101290000D0AB3EE0E0A80ED0E0A9FED7A0A80ED7C
:1012A0000A0A9FED770A80ED090A9FED770A80ED23
:1012B0000B0A9FED760A80ED0C0AB2EE040A80ED6F
:1012C0000F0AB1EE040A80ED100A9FED710A80ED5D
:1012D000110A9FED700A80ED120A4FF080406E49AE
:1012E0000860404248600846806E20F00100401CC3
:1012F00088660846806E20F00400001D8866084657
:10130000806E20F0100088660846806E20F0020093
:10131000801C88660846806E20F0080008308866C9
:101320000846806E20F0200088660846806E20F017
:10133000400088660846806E20F08000886640F293
:10134000F75088605548C860012088620020086313
:101350005348486140F2794088615248C86144F678
:10136000206048624FF4877008654FF4C8714A489E
:1013700041654FF4FA7181654FF41671C1655BE008
:1013800000BF00203B49086049A13A480C3008F0F2
:1013900009FA01203749C8619FED390A084680EDF6
:1013A0000D0AB7EE000A80ED0E0AB7EE000A80EDD6
:1013B0000A0A9FED330A80ED090AB7EE000A80EDB4
:1013C0000B0AB7EE000A80ED0C0AB7EE000A80EDBA
:1013D0000F0AB7EE000A80ED100A9FED370A80ED84
:1013E000110A9FED2C0A80ED120A4FF080402A4925
:1013F0000860952088603148C860314888624FF4A1
:10140000C040086340F699104861952088612B48D8
:10141000C861F52048620846806E20F001008866A9
:1014200040F2B3100865C3211B48416540F2E13129
:101430008165C321C16500BF00BF0E4890ED0F0A52
:10144000DFED200A20EE200AD0ED0B0A20EE200A64
:10145000BDEEC00A104880ED0F0A90ED020AB8EE0A
:10146000C00ADFED180A20EE200ABDEEC00A80EDAA
:10147000100A10BDF40300204B5653333000000017
:1014800000000000ACC52737898888498FE2BE4339
:101490000000FA4400401C46E80200204444440096
:1014A000A0860100333333004B565333304D0000D8
:1014B000756E6B6E6F776E0000007A447D080500D4
:1014C000BD3104006666663F6648006866490843A9
:1014D000644908606548006840F00C006349086092
:1014E00062480C30006820F00C0060490C31086044
:1014F0005E48006840F030005C4908605B480C3092
:10150000006820F0300059490C31086057480068E5
:1015100040F440605549086054480C30006820F49D
:10152000406052490C3108604E481430006840F465
:1015300080704C49143108604D48006840F44030D8
:101540004C49C1F8040340F2033088604A48C8603F
:101550000846C06A20F47000C8620846C06A40F4B9
:101560000010C86243F2EB1048634448006820F062
:1015700001004249086000E000BF4048006810F0E8
:10158000010FF9D13D48006820F060603B490860D8
:101590000846006840F45060086036484C303749CF
:1015A000083108603648091D086003203349091DC9
:1015B00008603048406840F480702E494860084612
:1015C000406820F0007048600846406840F0807035
:1015D00048602A48006840F0010028490860254812
:1015E000806840F080402349886070472348006845
:1015F00020F001002149086000E000BF1F4800689A
:1016000010F0010FF9D11B48806820F00100194942
:1016100088600846C06A20F47000C8620846C06A44
:1016200040F48010C86202201449091D086040F28D
:10163000EB10104948630846806840F0010088605C
:101640000E48006840F001000C49086009488068B5
:1016500040F080400749886070470146084830F8EC
:10166000110070473038024004004000000802407A
:101670000423014000200140F8810300706402400F
:10168000000000201A2901D201207047482901D208
:101690000220FAE7982901D20320F6E7B1F5857F09
:1016A00001D20420F1E7B1F5B47F01D20520ECE7C7
:1016B000B1F5E17F01D20620E7E740F22320814225
:1016C00001D20720E1E7B1F5207F01D80820DCE74F
:1016D00040F2E720814201D20920D6E7B1F5557FDB
:1016E00001D80A20D1E740F2BB30814201D20B2061
:1016F000CBE70C20C9E710B50020FFF7AEFF00EEE6
:10170000100AB8EE400ADFEDF80A20EE200A10BDFC
:1017100070B504460025062C7ED2DFE804F00318DD
:10172000373B3F68F148006840F00400EF4908602B
:101730000846006820F008000860ED48008820F4A2
:101740008070EB490880002002F0BAFB7AE0E7489D
:10175000006840F00400E54908600846006820F091
:1017600008000860E248008820F48850E0490880BA
:10177000DF482038008820F00100DD49203908804A
:101780008815DC490860082008605BE0DAA006F0F4
:1017900079FE57E0D8A006F075FE53E0D54818381A
:1017A000006840F01000D349183908600846006806
:1017B00020F0200008604FF48020CE490860CB481C
:1017C000006820F00400C94908600846006840F03D
:1017D000080008604FF08070C64908600820086063
:1017E000C348008840F48050C14908802AE0BF48BF
:1017F000006840F00400BD4908600846006820F019
:1018000008000860C548006820F00C00C349086063
:10181000B8481838006800E012E040F08040B54950
:10182000183908600846006820F0004008604FF44E
:101830000040B0490860400208604011086001E0C3
:10184000012500BF00BF284670BD10B507F036FB6C
:10185000C001192190FBF1F404F3070010BD10B58D
:10186000044600EE104AF8EEC00A9FEDAD1AB6EE3F
:10187000000A00EE810A10EE101A08460AF0BBFEBC
:10188000044610BD2DE9F0418EB006460D461746C0
:101890004FF00008012E02D0022E11D107E0A1481E
:1018A000A1490860A1480C90A1480D900CE09D480A
:1018B00010309D4908609F480C909F480D9003E0B0
:1018C00000200EB0BDE8F08100BF012F01D1012042
:1018D00000E000200446132D7ED2DFE805F00A0B5D
:1018E0000C0D0EE4E4E4E4E41521255F8FBC222313
:1018F000240000BF00BF00BF00BF8B48006800F09D
:1019000002FD0C988047CFE08748006800F0FBFCA0
:101910000CB9012200E0002210460D998847C3E06F
:1019200000BF00BF00BF00BFA5F10B0008281ED2FA
:10193000DFE800F004091D1D1D0E131802207A496E
:101940000968086013E001207749096808600EE023
:10195000032075490968086009E004207249096894
:10196000086004E0052070490968086000BF00BFF6
:101970006D490D98096848600CB9012000E000200D
:1019800069490968886068480068C4600CB9012228
:1019900000E0002210460D99884785E06248006803
:1019A00000F0B1FC6548406A01906448806A02908A
:1019B0006248C06A03900D9804906048426AC06A09
:1019C000401E5E49896A00FB012005905B48806AE1
:1019D00041420691594800E065E0C16A07915849C3
:1019E0000891C06B09905548006C40000B900A9418
:1019F00001A807F0EDFA4FF0010855E04A480068E9
:101A000000F081FC4D48006B01904C48406B404217
:101A100002904A48806B03900D9804904748026BEF
:101A2000806B401E4549496B00FB112005904348DF
:101A3000416B0691816B079141490891C06B0990F8
:101A40003E48006C40000B900A9401A807F0C0FAD1
:101A50004FF0010828E03448006800F054FC374893
:101A6000406A01903548806A02903448C06A039009
:101A70000D9804903148006B05903048406B41420E
:101A800006912E48816B07910D990891C06B0990C2
:101A90002A48006C40000B900A9401A807F098FABD
:101AA0004FF0010800E000BF00BF404609E72DE904
:101AB000F84F83460E46904600200090BBF1010F80
:101AC00003D0BBF1020F43D105E0DFF860A01D4C4D
:101AD0001D4D1E4F3FE0DFF85CA01A4C241D1A4D2F
:101AE0002D1D1A4F3F1D36E068A2894000040240B8
:101AF00020040040180802400D0A204D6F64652044
:101B00006E6F7420737570706F7274656420666F89
:101B100072204B5653333021000000000000024079
:101B20009A99993ED403002008000020FF3800084D
:101B30002739000861390008833900085403002060
:101B4000052300080C000020140000201C000020C9
:101B50000020BDE8F88F00BF3868B04203D06FF0B6
:101B60000100286020603E60022E06D0032E02D0C5
:101B7000042E18D100E000BF00BF20682860D047C5
:101B8000206020682968A0EB0109B8F1010F02D19B
:101B9000B9F1010F05D0B8F1020F03D119F101001D
:101BA00000D1009604E06FF001002860206000BFC3
:101BB00000BF0098CDE700002DE9F043044604F390
:101BC0000F02B44800681044DFF8C882C8F800006B
:101BD000B148C06D010240460068884202DD4046BF
:101BE00001600AE0AB480068C1F10008404504DA32
:101BF0004842DFF8A082C8F80000A648006800123A
:101C0000DFF89482D8F8548000FB08F0DFF88C826B
:101C1000D8F8008090FBF8F5A148D0F80080006863
:101C2000401CDFF87C92C9F800009B48006E80459C
:101C30000FDB0020C846C8F800009A480068A2EBF5
:101C4000000C0CF30F00DFF86082C8F80000954824
:101C500002609148006D5043DFF85082D8F8008050
:101C600090FBF8F690480068012803D08E48006881
:101C7000401C01D100230DE08748806DDFF82882E9
:101C8000D8F8008000FB08F0DFF82482D8F8008044
:101C900090FBF8F3A819C71807F30F00BDE8F0830D
:101CA00010B500207B4908602C2000F0DEF810BD44
:101CB00010B52C2000F0E5F800207649086010BD32
:101CC00010B52C2000F0DDF87A4800687A494860A9
:101CD0007A48006808607A48006848612C2000F063
:101CE000C4F878480068C0F340106B4991F8681058
:101CF000C1F300114840C1436F48006B61F38E305F
:101D00006D4908636F480068C0F30010624991F89C
:101D10006810C1F340114840C1436748006B61F34C
:101D2000CF306549086310BD01B5FFF7C1FF0098CA
:101D300007F097FA604900980860604900980860C9
:101D400000231A460099084600F0C4FA684600F0DD
:101D5000C1F8022000F0C8FA684600F0BBF8FFF7AF
:101D60009FFF08BD5448006A032827D14A4890F8CD
:101D70006800C0F3C01050B152480068C0F3401072
:101D8000454991F86810C1F30011884210D14248CA
:101D900090F86800C0F3C01080B94A480068C0F3EA
:101DA00000103D4991F86810C1F34011884205D0F8
:101DB00042480068404988600420086270472DE965
:101DC000F04707F04AFA4049C96900FB01F83B486F
:101DD0000068A0EB08003A4908603848C0F8008065
:101DE000344800F077F8064632490968334A1268E9
:101DF000881AFFF7E1FE3449C96900FB01F733494E
:101E0000098807FB01F0C11700EB5141C9130FFA14
:101E100081FA2948008EC0F3002010B9504601F025
:101E2000D1FE25480761C66016F0010F05D0006B92
:101E300020F00100401C2049086300240FE01E48E8
:101E4000343000EB04152868012807D1C6F3800957
:101E500005F1080252F8290069688847641C022CC1
:101E6000EDDBFFF77FFFBDE8F08700F01F020121E7
:101E7000914042094FF0E02303EB8202C2F80011C7
:101E8000704700F01F0201219140114A430942F8B6
:101E90002310704724000020E802002028000020C2
:101EA000340000203C000020380000202C000020DE
:101EB0003000002044000020A0030020400000204B
:101EC0004800002010040240F4030020C801002054
:101ED00080E100E02DE9F0470746FC48436984466D
:101EE000DCE90E564068012804D0022878D0032887
:101EF00077D1C8E0F5480068012857D1F448006858
:101F0000DFF8C8C3CCF82000F1488068CCF81C008A
:101F1000EF48C068CCF81800ED484068DFF8B0C35F
:101F2000DCF800C0A0EB0C00DFF8A0C3CCF8100078
:101F300060460069002811DD604600694FEAE07CD8
:101F40004FEA4C4C4CEAD03C4004DFF88083C8E9AF
:101F50000C0C0020C446CCF8080011E0DB480069F6
:101F600040424FEAE07C4FEA4C4C4CEAD03C400403
:101F7000DFF85883C8E90C0C0120C446CCF80800EF
:101F80000020DFF848C3CCF81400E046C8F8280069
:101F9000C8F82C008446C8F838C0C8F83CC0C4460D
:101FA000CCF80C000220CCF800005DE0C848406886
:101FB000DFF818C3DCF820C0A0EB0C00DFF80CC37E
:101FC000CCF810006046806860B16046006940420D
:101FD0004FEAE07C4FEA4C4C4CEAD03241040AE034
:101FE00048E059E0B94800694FEAE07C4FEA4C4CC0
:101FF0004CEAD0324104B548D0E90E90DFF8CCC2AB
:10200000DCF814C04FEAEC7819EB0C0C40EB08003C
:10201000DFF8B892D9E90A89B1EB080A62EB09083E
:10202000BCEB0A0C70EB080016DAA848C0E90C12E9
:10203000A748C068DFF894C2CCF818006046406931
:10204000DCF818C0604501DA022000E04020DFF82B
:102050007CC2CCF8000007E08020DFF870C2CCF82A
:102060000C001020CCF800000020DFF860C2CCF893
:10207000040011E01020DFF854C2CCF8000000206A
:10208000CCF8040008E02020DFF840C2CCF80000C3
:102090000020CCF8040000BF00BF8C480068102866
:1020A00077D006DC022809D0042830D008282DD1AA
:1020B0002EE020286ED04028F9D150E083484069B6
:1020C000DFF808C2DCF81CC06044DFF800C2CCF8BE
:1020D000140060464069DCF818C0604507DD7B48A5
:1020E00043610420DFF8E4C1CCF800000EE077483B
:1020F000D0E90E9C406918444FEAE07819EB0000E3
:102100004CEB080CDFF8C481C8E90E0C7FE07EE0E0
:102110006E484069DFF8B4C1DCF81CC0A0EB0C00CD
:10212000DFF8A8C1CCF8140060464069002806DA40
:102130000020CCF814000120CCF800000EE0634829
:10214000D0E90E9C406918444FEAE078B9EB0000F2
:102150006CEB080CDFF87481C8E90E0C57E05B48A3
:102160004069DFF868C1DCF81CC0A0EB0C00DFF8A8
:102170005CC1CCF8140060464069DCF818C06045CA
:1021800009DA524843610420DFF840C1CCF800006E
:1021900010E010E024E04D48D0E90E9C406918445E
:1021A0004FEAE078B9EB00006CEB080CDFF81C811B
:1021B000C8E90E0C2BE04548D0E90A9C406919EBB0
:1021C000000A4CEBE070DFF80491D9E90E891AEBB4
:1021D000080C40EB0900DFF8F480C8E90CC016E0F9
:1021E0000020DFF8E8C0CCF8140000236046D0E9F6
:1021F0000AC0DFF8D880C8E90CC09C46C8F838C0CF
:10220000C8F83CC00120C446CCF8000000BF00BFA5
:102210002E48D0E90A80DFF8B4C0DCF814C09C4432
:102220004FEAEC7918EB0C0C40EB0900DFF89C80CE
:10223000C8E90AC04046D0E90CC0C146D9E90A8ABB
:10224000BCEB080960EB0A00DFF88080D8E90EC813
:10225000B9EB0C0C70EB080012DA1C484361D0E9B2
:102260000CC0BCEB050C60EB0600DFF86080C8E931
:102270000AC04046C0E90E560820C446CCF800000B
:102280001248D0E90AC04FEAC03848EA5C440F4817
:10229000806838B10D48006A001BDFF830C0CCF808
:1022A000400006E00948006A2044DFF820C0CCF86E
:1022B00040000648006C386004480068DFF80CC035
:1022C000DCF80CC040EA0C00BDE8F08750000020AC
:1022D0001002002030B5094C20606160A260E3600C
:1022E0000124074D6C6030BD012803D10221044A4E
:1022F000516002E00321024A516070471002002041
:1023000050000020704700210160AFF207014160DA
:102310000022C26000218160704700B57F48006BD9
:1023200020F008007D4908630846006B20F010008B
:1023300008630846006B20F0040008630020C861B1
:1023400088610846006B20F0400008630846006B77
:1023500020F020000863002008620846006B20F08F
:102360000200801C08630846006B20F4806008634C
:102370000846006B20F4803008630020C8620846DD
:10238000006B20F4807008630846006B20F4007036
:1023900008630846006B20F4803008630846006B31
:1023A00020F4003008630846006B20F400500863F6
:1023B000002306E05949343101EB0310FFF7A3FF76
:1023C0005B1C022BF6DB0020544988620320486224
:1023D000012053498860C86010205249C86201201A
:1023E000A1F84400886300204F490860B7EE000A56
:1023F000084680ED0A0AB7EE000A80ED0B0AB7EE38
:10240000000A80ED0C0A9FED490A80ED110A9FED4C
:10241000480A80ED120A0120486000200873AFF2DC
:102420001B10444948600020886008628861C860C9
:102430004861C864486288620120C862002008655B
:102440000846806E20F0400088660846806E20F0C6
:10245000800088660020486648654FF40040886523
:102460000846806E20F0020088660846806E20F0E4
:10247000040088660846806E20F0100088660846D2
:10248000806E20F00100401C88660020086388638D
:10249000C8630864886448640846806E20F48070CD
:1024A00088660846806E20F4007088663C202249C9
:1024B000086041F27070486002208860002305E0E7
:1024C00000211D480C3040F823105B1C022BF7DB69
:1024D000012019494861C8610A2117488161012119
:1024E0000162002014494862002113488162C162E0
:1024F0000163416381631149C163002101640121CA
:10250000816400BD024692FBF1F001FB1020002A1D
:1025100001DA0B4600E0002318447047A0030020B6
:10252000AC040020E8020020F403002000007A44FC
:1025300000401C464004002054030020A0860100F7
:1025400010B50446002010BD2DE9F04F87B00920DA
:102550000090F9480068C0F34010F84991F86810FD
:10256000C1F30011484080F00107F3480068C0F350
:102570000010F24991F86810C1F34011484080F012
:1025800001083FB1ED4890F8680010F0010F01D04C
:10259000012000E000200490B8F1000F07D0E748C8
:1025A00090F86800C0F3400008B1012000E000206E
:1025B0000390E34890F83000C0F3801048B1DF4842
:1025C000406E022803D0DD48406E032801D101206F
:1025D00000E000200290029838B1D9480068D7493D
:1025E000896C884201DB012000E0002082460298CD
:1025F00038B1D3480068D149C96C884201DC012058
:1026000000E000200190049810B9BAF1000F01D049
:10261000012000E000200590039808B9019808B156
:10262000012000E000208346C448406E03280BD1FF
:10263000BAF1000F01D1019830B1049820B9039884
:1026400010B90820009001E009200090BC48006A01
:10265000012824D1B94890F86800C0F3C01050B1E7
:10266000B5480068C0F34010B44991F86810C1F350
:102670000011884210D0B14890F86800C0F3C01033
:1026800068B9AD480068C0F30010AC4991F8681013
:10269000C1F34011884202D10220A9490862A8482A
:1026A000806A012804D0022810D003281FD118E026
:1026B000A348406A022802D0A148406A10B901200C
:1026C0009F49486200209E49886210E09C48406A09
:1026D000022802D108209A4948620020984988625D
:1026E00005E00920964948620020886200BF00BFCB
:1026F0009348406A0D2871D2DFE800F07007A1FC12
:10270000FBFADCF9F8F7F6F5D8008D4890F83000C0
:10271000C0F3801078B38948406E04282BD18948D3
:1027200000688649896C88420DDD854800688349C8
:10273000896C884202DD8248006801E07F48806C35
:102740008049086017E07F4800687E494968401A60
:102750007A49C96C88420EDA794800687749C96CB1
:10276000884202DA7648006801E07448C06C754916
:102770000860002048607348006871490968884211
:1027800001DA012100E000216D48006B61F3C71000
:102790006B490863084690F83000C0F3C01010B1D0
:1027A000BBF1000F07D1664890F83000C0F3C010AD
:1027B00040B9059830B103206149486262A0FFF733
:1027C000BFFE3BE05E4890F83000C0F3C01030B16F
:1027D0005C4800685B494968401A02E089E1594851
:1027E000006881465749CB688A6855490868494658
:1027F000FFF770FD52484A46016856A0FFF7A0FE59
:102800004F48006B20F002004D4908630846006BFA
:1028100020F4806000F5806008630846006B20F4B7
:10282000006008630846006B20F001000863022086
:1028300048620846006B20F48050086359E1404824
:1028400090F83000C0F3C01010B1BBF1000F07D1F9
:102850003B4890F83000C0F3C01068B9059858B1F3
:102860003748008EC0F3003030B9354900984862CF
:1028700000203449486018E0314890F8300010F0EA
:10288000010F12D02E48007B10F0800F03D00C20D7
:102890002B49486209E02B48406818B106202849B6
:1028A000486202E004202649486222E101202449CE
:1028B00048621EE10020234948602148006B20F057
:1028C00080001F490863022048620846006B20F020
:1028D00001000863DFF86CC0DCF80C30DCF808207D
:1028E000DCF8001007E0FBE0EAE0A9E087E00CE09C
:1028F00040E014E05FE0DFF848C0DCF80000FFF7DC
:10290000E9FC07200E494862F3E00D4890F83000DA
:1029100010F0010F02D0042009494862E9E001F0FB
:10292000E7F9124908800648006811490860052047
:1029300003494862DDE0000010040240E802002084
:10294000A0030020AC0400200D0A4D6F7665496E8F
:10295000680000000D0A4D6F76652066726F6D206D
:10296000256C6420746F20256C64000098000020A2
:102970009C000020F7480068F74909680E1A022EEB
:1029800015DA16F1020F12DD01F0B2F9F3490988E8
:10299000401A80B264280DDDEE48006B20F4006020
:1029A00000F50060EB4908630320486202E0042060
:1029B000E84948629DE0E748006B20F48050E54913
:1029C00008630846006B20F00200801C086308467C
:1029D000006B20F4806008630846008EC0F340302E
:1029E00048B108460068DE490860DA48006B20F408
:1029F0000050D84908630020D649486279E0D9A040
:102A0000FFF79EFDD348006B20F4005000F5005006
:102A1000D04908630846006B20F4805000F58050D0
:102A200008630846006B20F0010008630020CC49D1
:102A300048600120FFF758FC0A20C649486258E068
:102A400001F0EAF8CAA0FFF77BFD0020C449486006
:102A5000C048006B20F4805000F58050BD490863E9
:102A60000846006B20F00100401C08630220FFF7BD
:102A70003BFC06A8FFF72EFAB6480068B849086084
:102A8000FFF716F9DFF8D8C2DCF80C30DCF80820C4
:102A9000DFF8C0C2DCF80010DCF80000FFF71AFC19
:102AA00006A8FFF717FAFFF7FBF8AA48008EC0F355
:102AB000402008B101F0A3F80A20A649486218E0B6
:102AC000A44890F8300010F0010F08D0A148006B26
:102AD00020F00400001D9F4908630B20486208E0B5
:102AE0009C48006B20F004009A4908630420486267
:102AF00000BF00BF002546E09648343000EB0514C7
:102B00002068022806D0032813D004281DD00528E9
:102B100037D127E08F4A128EC2F3802282F0010261
:102B200082F0010304F1080252F82300616888472B
:102B300027E0012F01D1012300E0002304F1080266
:102B400052F82300616888471BE0B8F1010F01D1FA
:102B5000012300E0002304F1080252F82300616819
:102B600088470EE0012F02D0B8F1010F01D10123F7
:102B700000E0002304F1080252F82300616888474E
:102B800000BF00BF6D1C022DB6DB7248406A07B063
:102B9000BDE8F08F1FB572489DE81E001EC00120E1
:102BA0006C4988621FBD6B49886270476C49086038
:102BB00000216B4A516070471FB56648C069012803
:102BC00002D0022811D10AE06248806910B90120C0
:102BD0006049886100205F49C861086205E0002003
:102BE0005C498861C861086200BF00BF59488069BC
:102BF0000C287BD2DFE800F0060D606B7BA3C6D10A
:102C0000F8F6F5F45348006B20F0200051490863B2
:102C100019E15048006B20F0200020304D49086336
:102C2000002001905448C06A02905348806A039083
:102C3000514890F86800C0F38010E0B14F48006838
:102C4000C0F340104C4991F86810C1F3001188425C
:102C500008D14FF04040009003203E490862052013
:102C6000886124E04FF080400090012039490862DB
:102C7000022088611BE041480068C0F300103E4913
:102C800091F86810C1F34011884208D14FF080409C
:102C9000009003202F4908620520886107E04FF06B
:102CA0004040009001202B490862022088619DE885
:102CB0000F00FFF76FFFC6E02648006A022805D123
:102CC0000320FFF770FF032022498861BBE0214801
:102CD000406A50B91F48806A012806D001F008F800
:102CE0002749088004201B498861ACE0AAE000F075
:102CF000FFFF23490988401A80B2B0F5C87F1DDD67
:102D00001D4890F86800C0F3801018B14FF04040A3
:102D1000009002E04FF080400090002001901648A3
:102D2000C06A02901448806A03909DE80F00FFF784
:102D300031FF0320074908620520886183E00548C8
:102D4000006A042805D10320FFF72DFF0620014962
:102D5000886178E0A00300209C00002098000020FB
:102D6000AC0400200D0A53746F702E2E2E0000004C
:102D70000D0A53746F702100E80200201004024015
:102D8000A0000020F748406A30B9F648806A012860
:102D900002D00720F349886155E000200190F248F5
:102DA000C06A0290F048806A0390EF4890F868008B
:102DB000C0F3801030B1EB488068EB49096B401AD2
:102DC000009005E0E7488068E749096B08440090F7
:102DD0009DE80F00FFF7DEFE0820E249886132E03F
:102DE00029E023E00FE0FFE7DE48406A50B9DD4804
:102DF000806A012806D000F07BFFDC4908800920AA
:102E0000D84988611FE000F073FFD8490988401A4B
:102E100080B2B0F5C87F08DD0020FEF785FF0020F6
:102E2000FFF7C4FE0A20CF4988610CE00020CD499D
:102E30000862886107E0CB48006B20F02000C94998
:102E4000086300E000BF00BFC6488069C849096840
:102E500088422CD0C3488069C5490860C148806950
:102E60000B2823D2DFE800F022060A0E22161A12DF
:102E700022221E00BFA0FFF763FB17E0C0A0FFF7F0
:102E80005FFB13E0C1A0FFF75BFB0FE0C3A0FFF700
:102E900057FB0BE0C4A0FFF753FB07E0C7A0FFF709
:102EA0004FFB03E0CAA0FFF74BFB00BF00BFAD48DC
:102EB000806904B010BD10B5C948006A50B101283E
:102EC00016D1A848006B20F04000A64908630120F5
:102ED000C8610EE00020FEF727FF0020FFF766FE26
:102EE000A048006B20F0400040309E49086300E09D
:102EF00000BF00BF10BD02209A49C86170471FB5CE
:102F00000446012C24D19748008EC0F34020F8B924
:102F100094490868FFF74AFE924800680090012033
:102F200003900290002001909DE80F00FFF732FE11
:102F300000F065FE8B48006B20F4007000F5007017
:102F4000884908630846006B20F40030086313E0EA
:102F5000022C11D18348008EC0F3402060B181481B
:102F6000006B20F400707F4908630220C8610320D1
:102F7000FFF719FE00F050FE1FBD2DE9F04F2DEDBB
:102F8000028B87B004460E4600200690754890F8E4
:102F90003000C0F3401040B97248008EC0F34020AA
:102FA00018B17148B0F8440028B9002007B0BDEC52
:102FB000028BBDE8F08F00F09BFE8046201E01DBF7
:102FC000014600E04142192900DA00246548C06A40
:102FD00002280CD06348C06A48B16248C06A02281F
:102FE00007D0604890F83000C0F3C00008B9012055
:102FF00000E000200746012E04D0022E7ED0032ED2
:103000007DD152E184B97748006868B10320FFF7A9
:10301000CAFD5448006B20F00800524908630020A4
:10302000C8627048046079E06E480068B4EB00093B
:1030300001D4484601E0C9F1000005286EDD6A4868
:103040000188404600F058FE642867D9002F65D0FB
:103050004448006B20F00800083042490863022011
:10306000C862002C01DD204600E0604208EE100A34
:103070003C4880690A2814D1002C01DD012000E0C1
:1030800000203949B1F84410012900D100E00021A5
:10309000884202D13448006801E033484068054660
:1030A00013E0002C01DD012000E000202E49B1F8E2
:1030B0004410012900D100E00021884202D14FF0E4
:1030C000804001E04FF040400546274890ED0F0A50
:1030D000B8EEC00AF8EE480A20EE200ADFED430AF7
:1030E00080EE201A11EE109A484609F084FA0590F5
:1030F0001D48006C03900598049001E00FE03CE14E
:1031000001950020029001A80FC8FFF743FD0120A0
:103110000690344804603448A0F800802DE134481B
:103120000068022802D00F4800680190201E01DBD1
:10313000014600E041422A296DDD2A48D0F800B05E
:10314000BBF1000F01DB584601E0CBF100002A285B
:103150005CDD2448D0F80090B9F1000F4ADB484606
:103160004AE00000A0030020E8020020A0000020A8
:10317000A40000200D0A485374617274000000001E
:103180000D0A48476F546F4C696D00000D0A485393
:10319000746F7041744C696D000000000D0A484F57
:1031A00066667365740000000D0A484D6F76654FC2
:1031B00075744F664C696D69740000000D0A4853C0
:1031C000746F704F7574736964654C696D697400D0
:1031D0000D0A48436F6D706C6574656400000000F3
:1031E000F4030020A8000020B000002000000043ED
:1031F000AC000020C9F100002A2809DDB64801888A
:10320000404600F079FDB0F57A7F01D9012000E059
:10321000002082460BE04FF0000AB048006B20F01F
:103220000800AE49086300F063FDAB490880BAF1BD
:10323000010F37D1B7B3A948006B20F00800083060
:10324000A64908630220C8620846008EC0F38020A9
:1032500040BBA3480168002C02DDA248406902E09F
:10326000A048406940420D189E480068A84219DBFA
:103270009C484068A84215DC9848006B20F0080084
:103280000830964908639748806903909548C0695B
:10329000049001950020029001A80FC8FFF77AFC66
:1032A000012006909048046067E0201E01DB014683
:1032B00000E041422A2952DD884890F83000C0F3EE
:1032C0008010E8B388490868002801DB014600E067
:1032D00041422A294EDCA7B3002C03DD012083499B
:1032E000886304E0002C02DA0020804988637F486C
:1032F000816B7F4850F821507C482A46816B7DA025
:1033000005F0C0F87548008EC0F38020C8B9744835
:103310000068A8422ED07148006B20F008000830E9
:103320006E4908630220C8626E48806903906D4848
:10333000C069049001950020029001A80FC801E027
:1033400005E017E0FFF726FC0120069012E0634835
:10335000006B20F010001030604908630AE05F48FD
:10336000006B20F008005D4908630846006B20F000
:10337000100008635C48046000BF00BF634806603B
:10338000069813E67FB504460025022C04D0032CD2
:103390003BD0042C05D16CE05048008EC0F3402097
:1033A00000B995E04D48C06A28B94C4890F8300003
:1033B000C0F3C00000B18BE04848006B20F008006B
:1033C000083046490863464800684849496C084443
:1033D0000090424900980968884202DA4148406AF0
:1033E00000E0002001903F48806802903D48C0689E
:1033F00003909DE80F00FFF7CDFB03203749C8621B
:10340000022543A005F03EF862E03448008EC0F388
:10341000402000B95CE03148C06A28B92F4890F8D4
:103420003000C0F3C00000B152E02C48006B20F027
:1034300008000830294908630320C8622B48806CC3
:10344000009000980968884202DA2648406A00E045
:10345000002001902348806802902248C0680390B1
:103460009DE80F00FFF796FB032530A005F00AF852
:103470002EE01A48008EC0F3402000B928E017481B
:10348000C06A28B9154890F83000C0F3C00000B1F8
:103490001EE01248008EC0F3802010B90F488069EA
:1034A00000B115E00D48006B20F0080008300B4912
:1034B00008630846006B20F040000863FFF7FBFC40
:1034C00003200649C86204251FA004F0DBFF00BFEB
:1034D00000BF284604B070BDB0000020A00300204B
:1034E000AC040020E8020020A800002040040020D6
:1034F000600300200D0A4D6F766520746F20706F99
:1035000073202564203D202564000000AC000020CD
:103510000D0A5472696767657265642072656C6133
:1035200074697665206D6F76650000000D0A54722F
:1035300069676765726564206162736F6C75746535
:10354000206D6F76650000000D0A5472696767652B
:1035500072656420686F6D65206D6F766500000090
:10356000FB48006840F00100F9490860F94800682C
:1035700020F00C00F74908600846C06820F00C00F5
:10358000C860C80088610846006840F48070086020
:103590000846006820F4007008600846806860F4FF
:1035A00040708860202088610846006840F4806090
:1035B00008600846006820F40060086008468068DB
:1035C00060F440608860402088610846006840F4EC
:1035D000805008600846006820F4005008600846E3
:1035E000406840F0400048600846806860F4405001
:1035F00088600846C06820F44050C8608020886118
:103600000846006840F4804008600846006820F4DE
:10361000004008600846406840F080004860084666
:10362000806860F4404088600846C06820F44040EC
:10363000C860C80188610846006840F480300860AE
:103640000846006820F4003008600846806860F48E
:1036500040308860BE48006840F00200BC49086005
:103660004FF48030BC490860BB481838006840F00F
:103670000100B949183908600846006820F00200C6
:103680000860B5481038006820F00300B2491039CE
:103690000860B1481838006820F00C00AE491839AD
:1036A0000860AD480C38006820F00C00AA490C39BD
:1036B00008604FF48020A8490860A74818380068BF
:1036C00040F01000A449183908600846006820F04E
:1036D00020000860A0481038006820F030009E49A3
:1036E000103908609C481838006820F47C509A49CA
:1036F0001839086098480C38006820F47C509649C6
:103700000C39086094481838006820F040709249DD
:103710001839086090480C38006820F040708E49D5
:103720000C39086048078C4908608B4818380068D5
:1037300040F080408849183908600846006820F049
:103740000040086084481038006820F040408249FA
:1037500010390860081D006820F04040091D08600D
:103760007B48006840F00400794908607B480068A5
:1037700020F003007949086078480C30006820F098
:10378000030076490C310860042074491831086040
:103790007248006840F010007049086008460068F0
:1037A00020F0200008606D480830006820F03000EC
:1037B0006A4908310860082068491831086067487C
:1037C000006840F04000654908600846006820F045
:1037D0008000086061480830006820F0C0005F4940
:1037E000083108604FF480105C49183108605B486C
:1037F000006840F48070594908600846006820F469
:103800000070086055480830006820F44070534943
:103810000831086048055149183108604F48006870
:1038200040F480304D4908600846006820F40030BC
:1038300008604A480830006820F4403047490831A1
:1038400008604648006820F04060444908604348EA
:103850000C30006820F0406040490C3108603F485F
:10386000006820F040503D4908603C480C3000683A
:1038700020F0805039490C3108600846006840F05B
:10388000005008604FF40040344918310860334854
:10389000006840F08040314908600846006820F028
:1038A000004008602D480830006820F040402B4957
:1038B00008310860704708B1402101E04FF48001F1
:1038C000244A9161704708B1102101E04FF4801142
:1038D000204A91617047204808380068C0F30030E2
:1038E000704704211D4A183211601C49086820F0F5
:1038F000300040F0100020F02000086070471648AB
:103900001838006820F00C001349183908600420AA
:10391000124918310860BFF35F8F0F4808380068FC
:10392000C0F3400070474FF480210C4A18321160F8
:1039300008B1022101E04FF40031074A1160064945
:103940001839096841F00401034A183A11607047B8
:1039500030380240000002401804024000080240D3
:103960001048006820F00C000E4908604FF4004039
:103970000D490860BFF35F8F0A480069C0F340003B
:1039800070474FF00041084A116008B1022101E080
:103990004FF40031034A91611146096841F0040176
:1039A00011607047000002401808024070B50446DC
:1039B0000126D4F80001022801D0022070BD2FE0BA
:1039C000384802680068401C364B1860A5541846F9
:1039D0000068062817D1207910F0800F01D0A07858
:1039E00000E00020801D30490860207900F07F0051
:1039F000502806D16079012803D108460068802844
:103A000001D99020DAE727480068274909688842E9
:103A100006D10020234908600120C4F800010326D4
:103A2000D4F80001012806D005F058FE0546A0F59F
:103A30007F41FF39C4D13046C0E730B5D0F80031FE
:103A400002461A4C24681A4D2D686119184C2468D6
:103A50001C44174D2C6003E012F8014B01F8014B98
:103A60001C00A3F10103F7D130BD10B51048006868
:103A7000B0B105F071FE98B10D4801680B480068BF
:103A800005F048FE094800680A49884202D101F55C
:103A9000807000E00748054908600020044908607C
:103AA00010BD0000C0010020C4010020B8010020AA
:103AB000BC010020C00500206448006840F00400FC
:103AC000624908606248006820F4A04060490860CC
:103AD0000846006840F420400860081D006820F097
:103AE000C000091D08605A480C30006820F470407E
:103AF00057490C310860081F006820F47040091F06
:103B0000086053482030006820F0706040F040703A
:103B10004F49203108600846006820F0704040F0AE
:103B20004050086049481430006840F0020047499E
:103B3000143108600020474908804814464908802D
:103B4000401E4449091D08604348008841490C3122
:103B5000086041480088091D08603E481438008804
:103B600040F001003B4914390880081D008846F2E6
:103B70006001084337491039088036480838008802
:103B800040F0110033490839088032481C30008861
:103B900040F400402F491C31088006202D4908318F
:103BA00008802C482838008840F00100294928392D
:103BB000088028481C38008840F0010025491C393D
:103BC00008807047414208B2B0F5005F02DD4FF453
:103BD000005003E010F5005F00DA2048002806DD01
:103BE00000211C4A10321160111F086006E041429A
:103BF000184A103211600021121F11607047102006
:103C000013491831086013481C30008840F4004004
:103C100010491C31088070474FF480100C4918314E
:103C200008600C481C30008820F4004009491C3111
:103C30000880704710B507481838008820F0010048
:103C4000044918390880FEF7BAF810BD3038024030
:103C50000008024028040140C801002000E0FFFFE6
:103C6000F748006840F40030F5490860A720F5499E
:103C7000088040F2E730091D08604010F1490C311E
:103C80000860F0480838008840F00100ED49083924
:103C90000880EC481038008840F06000E94910398D
:103CA0000880081F008840F00100091F0880E548CF
:103CB0002838008840F00100E24928390880E048AF
:103CC000006840F48030DE4908602020DE49088129
:103CD0000846008940F007000881002008854FF65B
:103CE000FF70C8620846008840F0010008807047F5
:103CF000D548406A80B270470246501A80B2704779
:103D0000CF48001F006840F01000CD49091F08602F
:103D10005320CE4908854FF6FF704862C8620846B6
:103D2000008840F0080008800846008840F0010044
:103D3000088070474142C5484162018841F0010155
:103D400001800188C907FCD17047BD48001F006889
:103D500040F00800BA49091F0860B94824380068D3
:103D600040F00800B6492439086000E000BFB448BC
:103D70002438006810F0080FF8D0B14824380068E3
:103D800020F00800AE49243908600020B0490880BE
:103D9000091F0860AA481438006840F00100A849CB
:103DA00014390860AB48006820F00100A949086098
:103DB0000846006840F0020008600846006A20F0EB
:103DC0000F00801C08624FF0FF30A149091D0860F8
:103DD00057209F49203908809D481038008840F0BE
:103DE00001009B4910390880081F008840F001003D
:103DF000091F088096482838008840F0010094493F
:103E0000283908808E48001F006840F002008C4965
:103E1000091F0860002090490880091F08608F482A
:103E2000006820F0F00040F020008C49086041F26A
:103E300067008949091D08604010874914310860EE
:103E400008460068091D086047F2700082490C3975
:103E5000088081481438008840F001007E491439F8
:103E60000880704730B50346FFF742FF044600E084
:103E700000BFFFF73DFF05462146FFF73DFF984293
:103E8000F6DB30BD0246764850434FF47A73B0FB00
:103E9000F3F1B1F1807F01D3012070474FF0E020B2
:103EA000006940F001004FF0E023186118464161BD
:103EB0000020F2E74FF0E020006900F48030704706
:103EC0000CB558B9674909680191664928390968EC
:103ED000654A116063492439096800915849091FEE
:103EE000096841F08051564A121F11605F49096804
:103EF00041F480715D4A116051492C31096841F4E7
:103F000080314F4A2C3211601146096821F480310A
:103F100011601146096841F4407111601146096849
:103F200041F400411160CA214E4A121F1160532111
:103F300011604C491C39096841F08001494A1C3A1A
:103F4000116000E000BF47491C39096811F0400FBB
:103F5000F8D04449183909686FF30E0142F20F7224
:103F60001144404A183A11601146096821F4FE01D3
:103F700041F4C60111603C4909683A4A283A116087
:103F80003B49121D116037491C39096821F0800135
:103F9000344A1C3A116000E000BF32491C390968FC
:103FA00011F0800FF8D1FF212E4A121F11602D4908
:103FB0001C39096821F020012A4A1C3A11600CBD05
:103FC0001F49091F096841F080511D4A121F1160E5
:103FD0002649096841F48071244A116018492C313E
:103FE000096841F48031164A2C3211601146096883
:103FF00021F4803111601146096840F20512114325
:104000000F4A2C3211601146096841F400411160D9
:1040100038B111492839098841F001010E4A283A7E
:104020001180CA210F4A121F1160532111600D49DE
:104030001C39096841F080010A4A1C3A11601AE0F3
:104040004438024028440140004001400010004034
:10405000280C0040000002402804004020040240D8
:10406000406F400128280040CC0100200070004033
:104070000244130000BF7949096811F0400FF9D0DC
:104080007649091D09686FF30E0142F20F7211445F
:10409000724A121D11601146096821F4FE0141F4B3
:1040A000803111606E4909686C4A0C3A11606D49A3
:1040B000121D11606949096821F08001674A116089
:1040C00000E000BF6549096811F0800FF9D1FF21B8
:1040D000624A183211606149096821F020015F4A83
:1040E00011607047604901405D4A11607047CA2104
:1040F0005A4A18321160532111605849096841F039
:104100008001564A116000E000BF5449096811F06F
:10411000400FF9D054490140504A0C3A11604F49C0
:10412000096821F080014D4A1160FF214B4A183285
:104130001160704730B50246CA20484B18331860EA
:10414000532018604548001F006820F48070434BDE
:104150001B1F1860181D006840F001001B1D18602F
:1041600000E000BF3D48006810F0010FF9D03E4864
:10417000104040F00040394B10331860C1F30E007E
:1041800040F07060354B383318603448006820F0D8
:104190000100324B18601846006820F480701860E7
:1041A000181F006840F488501B1F1860181D006815
:1041B00020F001001B1D1860FF20284B18331860E9
:1041C0002A48006840F40030284B18602748083817
:1041D000006840F40030254B083B186023480C3041
:1041E000006840F40030214B0C331860292000F0A7
:1041F0001F040123A34044094FF0E02505EB84048C
:10420000C4F8003100BF30BD10B51448006820F478
:1042100080701249086000E000BF1048006810F488
:10422000807FF9D111480C30006840F400300F490C
:104230000C3108600E4A90685168884710BD0EB571
:1042400006481C300068009004480C380068029052
:10425000024808380068019002980EBD0C28004002
:10426000CC010020024413007F7F3F00083C014046
:1042700040040020002100205E4A126842F480328F
:104280005C4B1A6000BF5B4A126802F40030491CA4
:1042900010B9B1F5705FF6D1564A1268C2F34040CA
:1042A000002879D0534A4032126842F08052514B74
:1042B00040331A60504A126842F480424E4B1A60F2
:1042C00040F205624D4B1A604A4A08321268494B67
:1042D00008331A601A46126842F400421A601A46FD
:1042E000126842F4A0521A601A46126822F4F812B8
:1042F00042F440221A601A46126822F07C521A6078
:104300001A46126842F080621A601A46126842F039
:1043100060521A601A46126822F040421A601A4629
:10432000126842F080421A60354A1B1F1A601A1F39
:10433000126842F080721B1F1A6000E000BF2D4A15
:10434000126812F0007FF9D02A4A0832126822F06F
:104350000302284B08331A601A46126842F0020220
:104360001A6000E000BF234A0832126802F00C0213
:10437000082AF7D1234A1F4B84331A601D4A12685A
:1043800042F080621B4B1A6001E005E000BF194A51
:10439000126812F0006FF9D0704710B51A48006823
:1043A00040F47000184908601248006840F00100AD
:1043B0001049086000200F49083108600D48006866
:1043C000124908400B4908601148091D0860081F80
:1043D000006820F48020091F0860002005490C3186
:1043E0000860FFF747FF4FF0006007498039086019
:1043F00010BD00000038024000700040003C024048
:104400000C5440070040005088ED00E0FFFFF6FE2E
:104410001030002404462146F6A004F033F801E0F1
:1044200004F0B0F8FCE70FB47FB509A80390BDF81D
:104430002000009000200190F4A00290BDF8200020
:10444000812818D1039810C80390039820C80390BE
:1044500000200090EE48806DA0420CD0B4F5004FD3
:1044600007D081200090019402952946E9A004F02C
:1044700009F8E748846500200390E548406E02286B
:104480000ED1EA4A6946002000F0CFF80646012E18
:1044900006D1E648FFF7D1FA0021E44803F0C4F959
:1044A0007FBC5DF814FB10B54C22E149E14805F0F2
:1044B0003EFC6C22E049DF484C3005F038FCD44823
:1044C0000068DC490C3948604FF001108860C82250
:1044D0000021D8480C3802F000F90446012C05D020
:1044E000D6A248F2D0418120FFF79DFF0123C822C8
:1044F0000021D0480C3802F0ADF804462CB1D1A20E
:1045000048F2D0418120FFF78EFF10BD70B5D04C2E
:10451000D048008EC0F34020F0B144F00044CD48B4
:104520004068CC490968451A4FF40000CA498861BF
:104530004020886142F21070854202DC4042854290
:104540000ADA44F08044C5A003F09CFF4FF48000D9
:10455000C149886180208861BE48006BC0F300407B
:1045600038B144F080444FF48000BB49886180201A
:104570008861B848008EC0F3802048B1B5484069D2
:10458000002801DD102000E0202040F0005004430E
:10459000B04890F83000C0F3801010B144F480644B
:1045A00007E0AC4890F83000C0F3401008B144F484
:1045B0000074A848008EC0F3803008B144F00204B3
:1045C000A448008EC0F3C03008B144F00104A148F3
:1045D00000689949896C884201DB44F008049D48D1
:1045E00000689549C96C884201DC44F0040488489D
:1045F00090F86800C0F3401038B196484069002830
:1046000001DD402000E0802004439A480068C0F3A8
:10461000400008B144F480148F480069C0F34000A2
:1046200008B144F40014204670BD2DE9F74F9AB04C
:1046300093461A9878B1DDF86890DDF86890B9F87B
:10464000000080B21990DDF8689009F1060602209A
:104650006F49486608E01B9830B14FF0000900260A
:104660001B98008880B219905C46A51D0020E07060
:10467000012020715020607100201890CBF80001BB
:1046800040F257421998811A90427DD06BDC40F27B
:104690001642A0EB0201904277D03BDC40F213229D
:1046A000A0EB0201904271D01BDC142801F069825A
:1046B00009DC02286BD005286AD0112869D012289D
:1046C00041F0F28292E1152801F0D782812801F0B1
:1046D0004082B0F5047F77D0A0F500701138EFD19B
:1046E000B7E140F2FD12881A91426ED00BDC01292D
:1046F0006CD010296BD0B1F5FB7F69D0A1F580712A
:10470000F739DDD1B6E1012863D0032862D004284F
:10471000D6D138E22B295ED012DC13295CD008DC1C
:1047200001295AD0022959D00D2958D00E29C7D1B4
:104730005DE3242954D0252953D02A29C0D1C5E3CB
:1047400032294FD008DC2D294DD02E294CD02F29CD
:104750004BD03029B4D1F6E33A2947D03B2946D093
:104760003D29ADD1F0E3CF2900F08F8740DC492906
:104770003FD01BDC14297FD00FDC0D297DD00E2902
:104780007CD00F297BD005E0F2E315E2F1E334E1C0
:10479000C6E01EE1132993D1ECE3152970D0392925
:1047A0006FD03A296ED03B298AD1CEE1CA296AD08E
:1047B0006CDC4A2969D0622901F0AF819C2901F0A3
:1047C000B781C9298BD1FDE329E166E1FBE3FCE078
:1047D00064E175E1CFE199E3BBE1FAE1F8E117E2C9
:1047E000F2E3F2E3F2E3BDE3F1E3F1E3F1E3F1E35A
:1047F00053E0F0E30D0A4578697420776974682006
:104800006572726F723A202573000000000000008C
:10481000400400200D0A415054206E6F746966698F
:10482000636174696F6E3A2025730000BC04002038
:10483000540300202C020020E80200204545577256
:104840006974650045455665726966790000000027
:1048500000010010A0030020000002400D0A2050BB
:104860006F736974696F6E206572726F722E0D0AB4
:104870000000000010040240FBE334E1FAE333E1FE
:10488000F9E33EE131E1F7E300E0F6E3CB297DD047
:10489000CC297CD0CD2987D1F0E340F2BD52881AD3
:1048A000914200F0D48720DC40F2AD52A1EB02002F
:1048B000914200F08F870EDCD02900F0FC86A1F534
:1048C000A061A93900F02E87012900F04E87032945
:1048D000E1D100F064BF0C2800F088870D2800F0BB
:1048E0009D870F28D7D100F0A5BF1D2801F0B0800B
:1048F0000CDC022800F0BE87032800F0E0870C28BB
:1049000000F0F4871C28C6D100F0F6BF3C2801F067
:10491000C4803D2801F0D2804E28BCD101F0DFB820
:10492000062020805420A070207940F08000207163
:104930005422FC49284605F0B5F9FB480068286078
:10494000FA480089A5F84C00F94800680E2804D1FF
:10495000F8A1281D04F026FF03E0F8A1281D04F0AB
:1049600021FFF8A0007885F84200F6A041784320A6
:104970004155F4A0C17844204155F2A00179452069
:104980004155F3A00079202804D101E0DFE3F3E3EF
:10499000302001E0EEA0007946214855ECA0417995
:1049A00047204155EAA0017848204155E8A04178C8
:1049B00049204155E6A081784A20415500214B20ED
:1049C00041550120189001F072B94020D84908657E
:1049D000F9E7D748806E20F010001030D44988667F
:1049E00000204865FA20FFF73DFAECE7D048806EDA
:1049F00020F01000CE498866E5E70020CC494866E3
:104A00000846806E20F0100088661B9830B10220A6
:104A100020800020A070E07001201890D3E799F862
:104A2000030001280CD1C003C14988650120FEF7AD
:104A300066FA4FF40000C94988614020886107E0A8
:104A40000220FEF75CFA8020C4498861402088611A
:104A5000B9E740F2122020800120A070C048008EEB
:104A6000C0F3402008B1012000E00220E0700120E6
:104A70001890A8E740F20B4020800620A070207913
:104A800040F08000207101202880B548D0F80080D7
:104A9000C5F802800120189095E700BF1998A0F58D
:104AA0008061093902D1D6F8020001E0D6F802008F
:104AB00080464046FDF738F94046FEF777F882E732
:104AC00040F2124020800620A070207940F0800043
:104AD000207101202880A248D0F80080C5F802800B
:104AE000012018906FE700BF00BF914890F8680060
:104AF000C0F3001020B18E48406D322800DD62E71F
:104B000000BF1998B0F5926F02D140F2914000E0D9
:104B1000199800B220800E20A0700020E07020794B
:104B200040F080002071012028808D480068C5F881
:104B300002008B48808AE88000202881FFF7E6FC8D
:104B4000C5F80A00012018903DE700207849486523
:104B500039E740F22A4020800620A070207940F0FA
:104B60008000207101202880FFF7D0FCC5F80200EA
:104B70000120189027E7D6F806007A498860D6F811
:104B80000A00C8601FE740F2154020800E20A07088
:104B9000207940F080002071012028800020C5F895
:104BA000020070488068C5F806006E48C068C5F805
:104BB0000A000120189006E770886A490861706849
:104BC0004861F06888613069C861B08A0862FAE6B5
:104BD00000BF4FF4836020801620A070207940F041
:104BE00080002071012028805E48008A68805D482E
:104BF000406968600020A8605A488069E8605948A8
:104C0000C06928615748008CA88201201890DAE614
:104C1000B08806285CD2DFE800F05B030F2336493A
:104C20005048806E20F001004E4988660846806E2C
:104C300020F0040088664BE04A48806E20F00100B6
:104C4000401C484988660846806E20F00400001D1C
:104C500088660846806E20F010001030886637E0C5
:104C60004048806E20F00100401C3E49886608469E
:104C7000806E20F00400001D88660846806E20F0DB
:104C80001000886624E03748806E20F00100354926
:104C900088660846806E20F00400001D886608467D
:104CA000806E20F010001030886611E02D48806E74
:104CB00020F001002B4988660846806E20F0040031
:104CC000001D88660846806E20F01000886600BFD0
:104CD00000BF708806287FD2DFE800F07E030F4611
:104CE000596C2048806E20F002001E4988660846F4
:104CF000806E20F0080088666EE01A48806E20F012
:104D00000200801C174988660846806E20F0080063
:104D1000083088660846806E20F0200020308866C3
:104D20005AE00000A4C7000820020020F40300207D
:104D3000400400204B565333302F4D004B56533315
:104D40003000000031323A31343A34320000000091
:104D50004E6F762020322032303137000000024082
:104D6000A0030020E8020020F948806E20F0020035
:104D7000801CF74988660846806E20F008000830DD
:104D800088660846806E20F02000886624E0F0489F
:104D9000806E20F00200EE4988660846806E20F0A2
:104DA0000800083088660846806E20F02000203019
:104DB000886611E0E648806E20F00200E4498866CB
:104DC0000846806E20F00800083088660846806E2D
:104DD00020F02000886600BF00BFD6F80600DC493E
:104DE0008864D6F80A00C864F0894866EBE540F2AA
:104DF000254020801020A070207940F08000207194
:104E000001202880D24890F86800C007400FD049A0
:104E100091F86810C1F3800140EA4100CC4991F853
:104E20006810C1F30011084302280ED0032809D0EE
:104E3000062804D007280BD10220A8800BE003200D
:104E4000A88008E00420A88005E00520A88002E0F2
:104E50000120A88000BF00BFBD4890F86800C0F3E3
:104E600040008000BA4991F86810C1F3C00140EADF
:104E70004100B74991F86810C1F340110843022876
:104E80000ED0032809D0062804D007280BD1022011
:104E900068800BE00320688008E00420688005E05B
:104EA0000520688002E00120688000BF00BFA8489C
:104EB000C06CC5F80A00A648806CC5F80600A44876
:104EC000B0F86400E881012018907CE5D6F806006F
:104ED0009F498862D6F80A0008637088012801D1CA
:104EE000012100E000219A48806E61F38610984904
:104EF0008866B088042801D1012100E0002194488F
:104F0000806E61F3C710924988665CE540F24240CA
:104F100020800E20A070207940F0800020710120B8
:104F200028808B4890F86800C0F3801008B10120F9
:104F300000E002206880864890F86800C0F3C01046
:104F400018B1042002E082E0FBE00120A880804844
:104F5000806AC5F806007E48006BC5F80A0001208B
:104F6000189030E57B48008EC0F3402018B92AE540
:104F700035E160E293E17748C06A012809D07548BD
:104F8000C06A30B1734890F83000C0F3C00000B17F
:104F900019E57048008EC0F3802010B96D48806913
:104FA00000B110E56B48006B20F00800083069493B
:104FB00008630846006B20F040000863FDF77BFFA4
:104FC000012009E074E25EE21FE029E057E012E010
:104FD00038E09FE0A3E0E0E15E49C8625E48806E91
:104FE00020F0080008305C4988660846806E20F092
:104FF00002008866E7E440F2444020800120A0706F
:105000000020E07001201890DDE4D6F8020050493D
:1050100048620846406A002801DA00204862D2E46B
:1050200040F23C4020800620A070207940F08000B3
:105030002071012028804648406AC5F802000120FE
:105040001890C0E4D6F8020043494864BBE440F23B
:10505000474020800620A070207940F08000207119
:10506000012028803C48406CC5F8020001201890BF
:10507000A9E483E1F1E088E17BE2B4E1E0E23548D4
:10508000008EC0F3402000B99DE43248C06A012878
:1050900009D03048C06A30B12E4890F83000C0F3D3
:1050A000C00000B18FE42B48006B20F008000830EE
:1050B000284908630846D0F8008099F8040010F0E9
:1050C000800F03D0D6F80200804402E02248406CF2
:1050D0008044CDF81C801F4907980968884202DA8D
:1050E0001B48406A00E00020089019488068099039
:1050F0001748C0680A9007A80FC8FDF74BFD0120AC
:105100001449C8621448806E20F00200801C1249C5
:10511000886658E4D6F802000F49886453E440F2E8
:10512000524020800620A070207940F0800020713D
:10513000012028800848806CC5F8020001201890E2
:1051400041E40448008EC0F3402038B93BE40FE24C
:10515000E8020020A003002040040020F848C06AB4
:1051600001280AD0F648C06A38B1F54890F83000F6
:10517000C0F3C00008B126E43FE2F148006B20F024
:1051800008000830EE4908630120C86299F804005D
:1051900010F0800F02D0D6F8028002E0E948D0F883
:1051A0004880CDF81C80E64907980968884202DAF1
:1051B000E548406A00E000200890E34880680990D4
:1051C000E148C0680A9007A80FC8FDF7E3FCDD4876
:1051D000806E20F00200801CDA49886605E4D84819
:1051E000008EC0F3402000B906E4D548C06A01280B
:1051F00009D0D348C06A30B1D14890F83000C0F32C
:10520000C00000B10AE499F80300022803D1CE4897
:10521000D0F8008002E0CC48D0F80480C848006B89
:1052200020F008000830C6490863CDF81C80002033
:105230000890C54880680990C348C0680A9007A8CC
:105240000FC8FDF7A7FC0120BD49C862BD48806EAC
:1052500020F00200BB4988660BE4B948008EC0F319
:10526000802000B905E499F80310012901D1032138
:1052700000E002210846FDF796FCFDF73CFEB14830
:10528000806E20F00200AF4988660846806E20F0EC
:105290000400001D88660120A949C8620FE4A848DF
:1052A000008EC0F3402000B909E4A548C06A012877
:1052B00009D0A348C06A30B1A14890F83000C0F3CB
:1052C000C00000B10EE49F48806E20F02000203026
:1052D0009C4988669C480069012811D199F803000F
:1052E000022803D19848D0F8008002E09648D0F810
:1052F00004809448806E20F002009249886625E080
:1053000099F8030002280DD18D4800688E4949693B
:1053100000EB01088C480068404510DA8A48D0F854
:1053200000800CE08648006887494969A0EB0108C5
:1053300085484068404502DD8348D0F804808148B4
:10534000806E20F00200801C7E4988667C48006BDD
:1053500020F0080008307A4908630120C862CDF8BF
:105360001C80002008907848806909907648C069C0
:105370000A9007A80FC8FDF70DFC1CE47148806E69
:1053800020F001006F49886615E46E48806E20F0B9
:105390000100401C6B4988660DE40020708A10F003
:1053A000010F03D0D6F80E206749CA6510F0080F28
:1053B00003D0D6F80210644A116510F0040F03D030
:1053C000D6F8062060494A6510F0020F03D0D6F8DF
:1053D0000A205D498A65C0F307225B490A66C1B2AB
:1053E0005A4A116013E440F2A24020801420A070B9
:1053F000207940F080002071012005F1020525F898
:10540000020C5148C06DE8604F48006D28604E485E
:10541000406D68604C48806DA8604B4890F8600013
:105420004A49098841EA00202882A5F102054FF087
:1054300001001890DAE499F802004249896E60F39D
:1054400086114048816699F80200C0F340013D484A
:10545000806E61F3C7103B4988663D4840690A2861
:1054600005D191F86810C1F38010FEF75CFA384856
:1054700080690A2806D1334991F86810C1F3C01039
:10548000FEF77FFAB2E440F2152020802D4890F814
:105490006800C0F380102B4991F86810C1F3C01167
:1054A00000EB4100A0700020E07001201890FEE3A6
:1054B0007088254988637068C863B0680864B089DB
:1054C00000B2A1F84400D6F80E002149C860D6F811
:1054D00012101F480161006815901D484068149023
:1054E0001B4880681390F08A19490860308B38B9DE
:1054F000708B28B941F270704860022088600EE01D
:10550000708B13498860308B18B96FF00040486089
:1055100005E0308B4FF4167148430D4948600C4844
:1055200001681598814209D109484168149881425F
:1055300004D107488168139881420BD001200AE00A
:10554000A003002040040020E8020020D001002039
:1055500054030020002012901B9840B9129830B1DB
:105560000020FB498861FB490868FCF778F99EE355
:1055700000BF40F2225020802420A070207940F00B
:105580008000207101202880F348008F6880F24855
:10559000C06B6860F048006CA860EF48B0F8440049
:1055A000A881EC48C068C5F80E00EA480069C5F853
:1055B0001200E8480088E882E64840686FF0004141
:1055C000884202D10020288306E0E24840684FF478
:1055D000167190FBF1F02883DE480089688300276C
:1055E00006E0002105F11C0000EB470001807F1C54
:1055F000042FF6DB0120189059E37088D5494861E3
:10560000B088C861F188D34881613189016203F0B3
:10561000BDFCD048C26941690120FCF733F91790FD
:10562000CC48026A81690220FCF72CF91690179881
:10563000012802D01698012801D103F09FFC36E31F
:1056400040F2255020801620A070207940F0800084
:10565000207101202880BF48808A6880BD48808BE7
:10566000A880BC48008BE880BA48008C28810027BD
:1056700006E0002105F10A0000EB470001807F1CD5
:10568000062FF6DB0120189011E356F8020FB149FE
:1056900048627168AF488162B168C162F1680163B4
:1056A0003169416371698163B169C163F169A6F1CF
:1056B00002060164FBE24FF4A56020802E20A0705A
:1056C000207940F080002071012005F1020525F8C5
:1056D000020CA048406A28609E48806A68609D4825
:1056E000C06AA8609B48006BE8609A48406B2861DC
:1056F0009848806B68619748C06BA8619548006CBA
:10570000E861A5F102054FF0000706E0002105F170
:10571000220000EB470001807F1C062FF6DB0120F2
:105720001890C4E230888D49086070888860B0881D
:10573000C860F08808610846017A0B9861F315404B
:105740000B908648017B0B9861F30E200B908348E9
:10575000017C0B9861F306000B900B98FEF7C2FCDE
:105760007E490868FBF7D4FFA1E240F602202080C2
:105770000A20A070207940F08000207177480088CE
:10578000288076480089688074488089A88073489A
:10579000008AE880002028810120189087E299F88B
:1057A00002006E4948604968012900D100E00021EB
:1057B0000846FEF705FC69484068012801D168A049
:1057C00000E069A001466AA002F05CFE0120634986
:1057D00048616CE240F60520208060480079A070A6
:1057E0005E48007DE0700120189060E299F80200A8
:1057F0005A490864096C012900D100E000210846DB
:10580000FEF761F85548006C012801D15FA000E067
:105810005FA001465FA002F035FE48E240F612208C
:1058200020804E4890F84000A0700020E0700120D9
:1058300018903CE23088C0F30A0048498861084665
:10584000008BC0F30A015AA002F01CFE2FE240F6C2
:10585000152020800420A070207940F08000207165
:105860003E48008BC0F30A00288000206880012099
:1058700018901CE23088C0F30A0010903748C06BC3
:10588000082815D235491098CA6BC96B491C334B8F
:10589000D96303F11C0141F822000021109803F0A4
:1058A0006CF82E48C16B48A0109A02F0EBFD05E0A1
:1058B0002A48C16B51A0109A02F0E4FDF7E140F6CE
:1058C000182020800420A070207940F080002071F2
:1058D00099F80200119021491C31119831F82000EB
:1058E00028800020688001201890E0E103F02FF864
:1058F0004FA002F0C7FDDAE130880F900F988028A2
:1059000024D21422314602A804F0CCF91348006FC7
:1059100000EBC01000EB80011048743000EB810AEE
:105920000F9901EB81020AF1140101EB82001422AC
:1059300002A904F0FCF943A00F9902F0A3FD069818
:10594000009002A80FC802F0FFF800BFAFE100000E
:105950004004002054030020E802002064190020C5
:105960006D61737465720000736C61766500000090
:105970000D0A525443206E6F772073796E63686509
:105980006420617320612025730000006F6E0000A9
:105990006F6666000D0A43414E207465726D696E34
:1059A0006174696F6E2069732025730D0A00000011
:1059B0000D0A43414E204D7367204944207365749E
:1059C00020746F20256400000D0A43414E20527858
:1059D0002066696C746572206E756D626572202533
:1059E000642C20776974682076616C756520256465
:1059F0002061646465642E0D0A0000000D0A496E82
:105A000076616C69642043414E2052782066696C4F
:105A1000746572206E756D626572202564206F72E8
:105A20002076616C75652025642E0D0A000000004B
:105A30000D0A43414E20737461727465642E0D0A21
:105A4000000000000D0A4C696E652025643A2000B4
:105A500040F6322020801420A070207940F0800091
:105A6000207199F802000F90F848006F00EBC01009
:105A700000EB8001F548743000EB810006900F9830
:105A800000EB80020698143000EB820114222846B5
:105A900004F008F90120189009E1EC48006F00EBD0
:105AA000C01000EB8001E948743000EB810A01204E
:105AB000CAF80C00E6A002F0E5FCF8E0E348006F4D
:105AC00000EBC01000EB8001E048743000EB810A6D
:105AD0000220CAF80C00E3A002F0D4FCE7E040F694
