:020000040800F2
:1000000000660120890B0108A70B0108A90B010854
:10001000AB0B0108AD0B0108AF0B0108000000009D
:10002000000000000000000000000000B10B01080B
:10003000B30B010800000000B50B0108B70B010865
:10004000B90B0108B90B0108B90B0108B90B01087C
:10005000B90B0108B90B0108B90B0108B90B01086C
:10006000B90B0108B90B0108B90B0108B90B01085C
:10007000B90B0108B90B0108B90B0108B90B01084C
:10008000B90B0108B90B0108B90B0108B90B01083C
:10009000B90B0108B90B0108B90B0108B90B01082C
:1000A000B90B0108B90B0108B90B0108B90B01081C
:1000B00089080108C96000084F6B0008B90B0108E6
:1000C000B90B0108B90B0108B90B0108B90B0108FC
:1000D000B90B0108B90B0108B90B0108B90B0108EC
:1000E000B90B0108B90B0108B90B0108B90B0108DC
:1000F000B90B0108B90B0108B90B0108B90B0108CC
:10010000B90B0108B90B0108B90B0108B90B0108BB
:10011000B90B0108B90B0108B90B0108B3080108B4
:10012000B90B0108B90B0108B90B0108B90B01089B
:10013000B90B0108B90B0108B90B0108B90B01088B
:10014000B90B0108B90B0108B90B0108B90B01087B
:10015000B90B0108B90B0108B90B0108B90B01086B
:10016000B90B0108B90B0108B90B0108B90B01085B
:10017000B90B0108B90B0108B90B0108B90B01084B
:10018000B90B0108B90B010800F002F800F0B2F851
:100190000AA090E8000C82448344AAF10107DA45E2
:1001A00001D100F0A7F8AFF2090EBAE80F0013F082
:1001B000010F18BFFB1A43F001031847447C0100EC
:1001C000747C01000A444FF0000C10F8013B13F05E
:1001D000070408BF10F8014B1D1108BF10F8015BA0
:1001E000641E05D010F8016B641E01F8016BF9D193
:1001F00013F0080F1EBF10F8014BAD1C0C1B09D1EA
:100200006D1E58BF01F801CBFAD505E014F8016B5B
:1002100001F8016B6D1EF9D59142D6D370470000ED
:100220000023002400250026103A28BF78C1FBD8FF
:10023000520728BF30C148BF0B6070476E2913F0CA
:100240002181702913F07181662916F0BB8165291F
:1002500016F0B881672916F0B581612916F0B481CE
:1002600003681B0A28BF41F08001692913F0CE8082
:10027000642913F0CB80752913F0C8806F2913F01F
:10028000C586782913F03D81E92913F05F86E429BA
:1002900013F05C86F52913F05986EF2913F0C28616
:1002A000F82913F03C810368DB0928BF41F0800185
:1002B000632913F0E085732913F0E585E32914F031
:1002C0000F81F32914F01481002070471FB516F038
:1002D0006FF913F0E7FE04000020002115F04EFC3A
:1002E000401C60600020002115F032FCE0601FBD62
:1002F00010B510BD14F04CFB1146FFF7E7FF04F0FA
:10030000CBFC14F073FB03B4FFF7F2FF03BC14F053
:10031000B7FB0000BFF34F8FFE48006800F4E060B9
:10032000FD490843001DFB490860BFF34F8F00E003
:1003300000BFFDE710B50446B4F5886F20D011DC8E
:1003400040F22341A4EB01008C421FD005DCA4F253
:10035000134090B1032833D110E0032829D0172887
:100360002ED10CE0B4F5966F17D0A4F2B340A8B12B
:10037000032811D04D2823D121E022E021E020E004
:100380004AF65521E548C0F8EC101AE04AF6552126
:10039000E248C0F8041114E013E012E0E048B0F8BD
:1003A0007810DE48C0F8F0114AF65521C0F8F41173
:1003B00007E04AF65521D948C0F8141201E000E0E0
:1003C00000BF00BF4FF00110D449486007F0DDFBCB
:1003D00010BD1FB504460E20D24988700020C87099
:1003E00081200871012C0BD10120ADF80000CE480E
:1003F0000068CDF802000020CDF80600CDF80A0014
:10040000022C0BD10220ADF80000C7484068CDF89F
:1004100002000020CDF80600CDF80A00042C0BD114
:100420000420ADF80000C0488068CDF8020000202C
:10043000CDF80600CDF80A00082C0BD10820ADF845
:100440000000B948C068CDF802000020CDF80600D1
:10045000CDF80A000621B34805F015FC0E216846C8
:1004600005F011FC1FBD2DE9F04701460020844630
:1004700000228046AD4CDFF8B89299F80230172B75
:100480007ED010DC0B2B7CD006DC032B23D0052B7D
:100490002CD0072B76D1E5E00F2B74D0132B73D023
:1004A000152BF7D1AFE2302B6FD006DC192B6DD0B6
:1004B0002B2B07D02D2BEDD140E0322B67D0342BE6
:1004C000E8D185E104200B80DFF86892B9F89090BC
:1004D000A1F802907FE308200B804FF00109A1F8FA
:1004E00002904FF06409C1F8049074E3DFF8409281
:1004F00099F803200C200B804A80012A04D1DFF8F0
:100500003892D9F8005013E0022A04D1DFF82C9277
:10051000D9F800500CE0042A04D1DFF81C92D9F875
:10052000045005E0082A03D1DFF81092D9F80450EE
:100530004D604FF00009C1F808904CE3DFF8F091EE
:1005400099F8032016200B804A80012A27D1DFF872
:10055000E891B9F86090A1F80490DFF8DC91D9F83F
:100560007090C1F80690DFF8D091D9F87890C1F872
:100570000A90DFF8C491D9F85890C1F80E9007E0BE
:10058000A5E26DE126E34EE1A5E1DEE0D8E2F4E08C
:10059000DFF8A491D9F85090C1F8129061E0022AD6
:1005A0001ED1DFF89891B9F86090A1F80490DFF8B7
:1005B0008C91D9F87090C1F80690DFF88091D9F845
:1005C0007890C1F80A90DFF87491D9F85890C1F882
:1005D0000E90DFF86891D9F85090C1F8129040E081
:1005E000042A1ED1DFF85091B9F86490A1F8049064
:1005F000DFF84491D9F87490C1F80690DFF838918B
:10060000D9F87C90C1F80A90DFF82C91D9F85C9069
:10061000C1F80E90DFF82091D9F85490C1F81290EB
:100620001FE0082A1DD1DFF81491B9F86490A1F8F1
:100630000490DFF80891D9F87490C1F80690DFF8BB
:10064000FC90D9F87C90C1F80A90DFF8F090D9F8C6
:100650005C90C1F80E90DFF8E490D9F85490C1F89E
:100660001290B8E2DFF8C89099F803200E200B80B2
:100670004A80012A12D1DFF8C090B9F8BC90A1F8E5
:100680000490DFF8B490D9F84890C1F80690DFF8EC
:10069000A890D9F83890C1F80A9055E0022A12D1F2
:1006A000DFF89890B9F8BC90A1F80490DFF88C902E
:1006B000D9F84890C1F80690DFF88090D9F83890C2
:1006C000C1F80A9040E0042A12D1DFF86C90B9F822
:1006D000C090A1F80490DFF86090D9F84C90C1F870
:1006E0000690DFF85490D9F83C90C1F80A902BE0BE
:1006F000082A29D1DFF84490B9F8C090A1F80490F5
:10070000DFF83890D9F84C90C1F80690DFF82C90BB
:1007100016E000000CED00E00000FA05985C0120F6
:10072000C404002071000020B4080020EC5801200F
:10073000B00F0020705A0120F4050020540700205B
:10074000D9F83C90C1F80A9045E2DFF8849899F80E
:10075000032012200B804A804FF00109A1F8049079
:100760004FF00009C1F80690A1F80A90A1F80A908C
:10077000A1F80A90A1F80A902DE2DFF8549899F8B0
:1007800003200820012A06D1DFF84898D9F83090D4
:10079000C1F8049019E0022A06D1DFF83898D9F898
:1007A0003090C1F8049010E0042A06D1DFF82498B4
:1007B000D9F83490C1F8049007E0082A05D1DFF891
:1007C0001498D9F83490C1F804900B804A8002E262
:1007D000DFF8FC9799F8032008200B804A80012A53
:1007E00006D1DFF8F097D9F82890C1F8049019E005
:1007F000022A06D1DFF8DC97D9F82890C1F80490D6
:1008000010E0042A06D1DFF8CC97D9F82C90C1F873
:10081000049007E0082A05D1DFF8B897D9F82C90A2
:10082000C1F80490D7E110200B804FF00109A1F826
:100830000290012A08D1A1F80490A1F8069032276D
:100840008F600A26CE600AE0022A08D19146A1F8FC
:100850000490A1F8069032278F600C26CE60BAE192
:10086000DFF86C9799F803200A200B804A80012A50
:1008700008D1B4F88C90A1F80490B4F89090A1F845
:10088000069023E0022A0CD1B4F89490A1F80490C9
:10089000B4F89890A1F806904FF00109A1F80890DB
:1008A00014E0042A08D1B4F89C90A1F80490B4F89C
:1008B000A090A1F8069009E0082A07D1B4F8A49006
:1008C000A1F80490B4F8A890A1F806904FF001099F
:1008D000A1F808907FE1DFF8F89699F8032012203C
:1008E0000B804A80012A22D14FF00109A1F8029021
:1008F000DFF8E496B9F88890A1F80490DFF8D8966C
:10090000D9F89090C1F80690DFF8CC96D9F8989075
:10091000C1F80A90DFF8C096B9F8A090A1F80E903F
:10092000DFF8B496B9F8A890A1F810906AE0022A0E
:1009300021D19146A1F80290DFF89C96B9F88C90ED
:10094000A1F80490DFF89096D9F89490C1F8069039
:10095000DFF88496D9F89C90C1F80A90DFF8789671
:10096000B9F8A490A1F80E90DFF86C96B9F8AC90A5
:10097000A1F8109046E0042A21D19146A1F80290F6
:10098000DFF85496B9F89090A1F80490DFF84896F3
:10099000D9F89890C1F80690DFF83C96D9F8A09065
:1009A000C1F80A90DFF83096B9F8A890A1F80E9037
:1009B000DFF82496B9F8B090A1F8109022E0082A48
:1009C00020D19146A1F80290DFF80C96B9F89490E6
:1009D000A1F80490DFF80096D9F89C90C1F8069031
:1009E000DFF8F495D9F8A490C1F80A90DFF8E895FB
:1009F000B9F8AC90A1F80E90DFF8DC95B9F8B49096
:100A0000A1F81090E7E0DFF8C89599F803201E20C0
:100A10000B804A80012A0CD1DFF8C095D9F8BC912F
:100A2000C1F80C90DFF8B495D9F8C091C1F81090D6
:100A30002BE0022A0CD1DFF8A495D9F8C491C1F8B3
:100A40000C90DFF89895D9F8C891C1F810901CE087
:100A5000042A0CD1DFF88495D9F8CC91C1F80C9018
:100A6000DFF87895D9F8D091C1F810900DE0012AFF
:100A70000BD1DFF86895D9F8D491C1F80C90DFF864
:100A80005C95D9F8D891C1F81090B4F8209009F18C
:100A90000109A1F80490D4F87090C1F80690B4F858
:100AA0007C90A1F80A90DFF83495B9F80090A1F88D
:100AB00014904FF00009A1F81690CA4601F11609EA
:100AC000A1F818A0A1F81AA0A1F81CA083E01A2090
:100AD0000B80DFF80C95B9F83890A1F80290DFF898
:100AE0000095B9F83C90A1F80490DFF8F494B9F8B7
:100AF0001090A1F80690DFF8E894B9F80890A1F8F2
:100B00000890DFF8DC94B9F81490A1F80A90DFF8A7
:100B1000D094B9F80C90A1F80C904FF00009A1F80E
:100B20000E904FF0000A01F10E09A1F810A0A1F8F3
:100B300012A0A1F814A0A1F816A0A1F818A04AE0EC
:100B4000DFF88C9499F8032030200B804A80DFF87E
:100B50009494D9F80090C1F80490DFF88894D9F8FB
:100B60000490C1F80890DFF87C94D9F80890C1F897
:100B70000C90DFF87094D9F81090C1F81090DFF85D
:100B80006494D9F81490C1F81490DFF85894D9F807
:100B90001890C1F81890DFF84C94D9F80C90C1F86F
:100BA0001C90DFF84094D9F82090C1F820904FF0C5
:100BB0000009A1F824904FF0000A01F12409A1F8DE
:100BC00026A0A1F828A0A1F82AA0A1F82CA0A1F89D
:100BD0002EA000E000BF00BFBDE8F087014601295C
:100BE00000DA0121012904DB022902DC4CF2503039
:100BF00041E0022904DB052902DC44F620603AE0EA
:100C0000052903DB0A2901DCF74834E00A2904DB63
:100C1000142902DC4CF250302DE0142904DB322977
:100C200002DC44F6206026E0322904DB642902DC81
:100C300042F210701FE0642904DBC82902DC42F292
:100C4000107018E0C82905DBB1F5FA7F02DC42F22A
:100C5000107010E0B1F5FA7F05DBB1F57A7F02DCA8
:100C600041F2883007E0B1F57A7F04DBB1F5FA6F25
:100C700001DC4FF4FA6070472DE9F047D74D70352D
:100C8000D34CA41DA01FC0881FFA80F9B9F1190F19
:100C90007DD014DCB9F1130F7AD009DCB9F1050F5E
:100CA00077D0B9F1070F75D0B9F10B0F73D118E0F8
:100CB000B9F1150F70D0B9F1170FF7D156E3B9F1AB
:100CC000300F6AD006DCB9F12B0F33D0B9F12D0FFC
:100CD000ECD1F8E1B9F1320F7AD0B9F1340FE5D1A6
:100CE000BAE26688012E06D0022E0BD0042E10D058
:100CF000082E1CD114E0A088C5F88C00E088C5F847
:100D0000900015E0A088C5F89400E088C5F8980028
:100D10000EE0A088C5F89C00E088C5F8A00007E0B8
:100D2000A088C5F8A400E088C5F8A80000E000BFCE
:100D300000BF3CE3B4F80280B8F1070F76D2DFE8D9
:100D400008F004134876A3D0FE000020A749C1F89C
:100D50008C004FF40060A649886140108861002033
:100D6000A249C1F8900018E10120A049C1F88C0007
:100D7000C1F89000C1F89000432081F894006821E8
:100D80009A4880F89510312180F8961006E0FBE231
:100D9000ECE104E130E109E37BE2DDE14FF40060E6
:100DA0009349886140108861400488610020894926
:100DB000C1F8FC008F49C1F8FC008648D0F8BC009F
:100DC0008649C1F8A401D1F8A4010BF032FEE4E099
:100DD00025E201208549C1F88C000220C1F890006D
:100DE000C1F89000432081F8940068217F4880F882
:100DF0009510322180F896104FF400607C4988618C
:100E0000401088614004886100207249C1F8FC00EC
:100E10007849C1F8FC000846D0F8BC006F49C1F819
:100E2000A401D1F8A4010BF004FEB6E0B4E0012067
:100E30006E49C1F88C000420C1F89000C1F8900000
:100E4000432081F894006821684880F89510332188
:100E500080F896104FF40060654988614010886101
:100E60000004886101205B49C1F8FC006149C1F8B8
:100E7000FC005848D0F8C0005849C1F8A401D1F886
:100E8000A4010BF0D6FD88E001205849C1F88C0080
:100E90000820C1F89000C1F89000432081F8940028
:100EA0006821524880F89510342180F896104FF44C
:100EB00000604F498861401088610004886101200A
:100EC0004449C1F8FC004B49C1F8FC004148D0F846
:100ED000C0004249C1F8A401D1F8A4010BF0A9FD5A
:100EE0005BE002204149C1F88C000320C1F890006A
:100EF000C1F89000312081F894002B213B4880F804
:100F00009510322180F896104FF4006038498861BE
:100F1000401088614004886100202E49C1F8FC001F
:100F20003449C1F8FC002B48D0F8BC002B49C1F86B
:100F3000A401D1F8A4010BF07CFD2EE0FFE7022014
:100F40002A49C1F88C000C20C1F89000C1F890002B
:100F5000332081F894002B21244880F89510342107
:100F600080F896104FF40060214988614010886134
:100F70000004886101201749C1F8FC001D49C1F82F
:100F8000FC001448D0F8C0001449C1F8A401D1F8FD
:100F9000A4010BF04EFD00E000BF00BF07E2668831
:100FA000012E03D100200B49086010E0022E03D16E
:100FB0000020104908600AE0042E03D100200549F2
:100FC000486004E0082E02D100200A494860EEE1A2
:100FD000B00F0020F4050020B40800207C58012048
:100FE0000800002024040020A0860100705A01207F
:100FF000001002405407002067880120FE49C1F814
:10100000D000012F06D0022F1AD0042F2ED0082F87
:1010100056D140E0A088F949C1F8BC000846D0F894
:10102000BC00F749C1F8A401D1F8A4010BF001FDFF
:10103000D4F80600F1498864D4F80A00886340E0D7
:10104000A088F049C1F8BC000846D0F8BC00EC49C3
:10105000C1F8A401D1F8A4010BF0EBFCD4F8060010
:10106000E8498864D4F80A0088632AE0A188E34844
:10107000C0F8C010D0F8C000E149C1F8A401D1F80F
:10108000A4010BF0D6FCD4F80610DC48C164D4F8F7
:101090000A10C16315E0A188DA48C0F8C010D0F882
:1010A000C000D749C1F8A401D1F8A4010BF0C1FCDC
:1010B000D4F80610D348C164D4F80A10C16300E024
:1010C00000BF00BF73E16788012F06D0022F13D045
:1010D000042F20D0082F3CD12CE0A41D34F8020CA2
:1010E000C64908662068086760688867A0688865E0
:1010F000E068A41F08652DE0A41D34F8020CC14966
:1011000008662068086760688867A0688865E06886
:10111000A41F08651EE0A41D34F8021CB7484166F0
:10112000216841676168C167A168C165E168A41F62
:1011300041650FE0A41D34F8021CB24841662168E5
:1011400041676168C167A168C165E168A41F416525
:1011500000E000BF00BF2AE16788A088A849C1F865
:10116000A801D4F80600C1F8AC0120E16788012F7E
:1011700006D0022F17D0042F28D0082F4CD138E0EA
:10118000A0889E49C1F88800D4F80600C1F89000F4
:10119000D4F80A00C1F89800E089C1F8A000208ABC
:1011A000C1F8A80039E0A0889649C1F88800D4F8B1
:1011B0000600C1F89000D4F80A00C1F89800E08950
:1011C000C1F8A000208AC1F8A80026E0A1888B48B9
:1011D000C0F88C10D4F80610C0F89410D4F80A1097
:1011E000C0F89C10E189C0F8A410218AC0F8AC10A6
:1011F00013E0A1888348C0F88C10D4F80610C0F81A
:101200009410D4F80A10C0F89C10E189C0F8A4101A
:10121000218AC0F8AC1000E000BF00BFC7E06788BB
:10122000012F06D0022F08D0042F0AD0082F10D18A
:101230000BE06068714908630CE060686F49886280
:1012400008E061686D48C16204E061686B48C16292
:1012500000E000BF00BFAAE06788012F06D0022F80
:1012600008D0042F0AD0082F10D10BE06068634922
:1012700088620CE060686149886208E061685F48E4
:10128000C16204E061685D48C16200E000BF00BF68
:101290008DE06688012E08D15948D0F8BC01E06085
:1012A0005748D0F8C00120611FE0022E08D15448F1
:1012B000D0F8C401E0605248D0F8C801206114E0C1
:1012C000042E08D14E48D0F8CC01E0604C48D0F84C
:1012D000D001206109E0012E07D14948D0F8D4019E
:1012E000E0604748D0F8D8012061A088401E2862FD
:1012F000D4F8060028676089E867A08A404908603A
:101300004FF47A71286F91FBF0F03C49C1F8B800B6
:101310004FF47A71286F91FBF0F03A49C1F8B800A8
:101320003648D0F8B800B0F57A7F08DD4FF47A700F
:101330003249C1F8B8003349C1F8B8000BE02F4872
:10134000D0F8B800012806DA01202C49C1F8B8000D
:101350002C49C1F8B800286FFFF740FC2A49886281
:10136000286FFFF73BFC2949886220E06088284904
:101370008863A088C863E0880861208988606089E4
:101380004861A089C86012E0606822490860A068CE
:101390004860E06888602069086160694861A06908
:1013A0008861E069C860206A086200E000BF00BF91
:1013B000BDE8F0872DE9F04F2DED048BABB0002098
:1013C0000C909FED150AB0EE409A0B909FED130A1A
:1013D000F0EE409ADFF8288008F170081048089075
:1013E000104809901048008880B2139014AEB51DC3
:1013F0000D4CA41D002019E0B4080020F4050020C5
:101400007C58012054070020900A00200C0B00207B
:1014100008000020240400200000803D000000009F
:101420009C050020EC5E0120B00F0020F070012030
:101430003071502070710020129011901398B0F507
:10144000A46F7DD02EDC40F21122A0EB020190426D
:1014500077D014DC122875D007DC022873D0052859
:1014600050D0112842F08681A2E0142801F0A98210
:10147000152802F0F880B0F5047FF3D130E140F296
:101480003F22881A91427DD007DC02297BD01229A5
:101490007AD0B1F50D7FE5D1FEE3422875D0B028B2
:1014A000E0D1DFE140F6C102811A904201F0E18013
:1014B00017DC40F22652A0EB0201904266D008DC15
:1014C000A0F22150002870D002286FD00328C9D183
:1014D000F6E301296BD0A1F29A310029C2D101F0C3
:1014E000C3B8A1F10F000A2882F04481DFE810F0B0
:1014F000D20842114211840685050B0742113106BC
:1015000042117407062030805420B070307940F0CA
:10151000800030715422FD49284612F087F9FCA062
:10152000007885F84200FAA0417843204155F8A0A0
:10153000C17844204155F6A001794520415503E08A
:10154000F2E352E040E04AE0F4A00079202801D123
:10155000302001E0F1A0007946214855EFA0417903
:1015600047204155EDA0017848204155EBA0417836
:1015700049204155E9A081784A20415500214B205E
:10158000415504E0E4E355E108E024E0E1E3012013
:1015900012900220E449086002F0ECB80120E3490F
:1015A000C1F89800A1F87800F6E7D3E35BE1D2E355
:1015B0000898406A20F4806000F5806008994862CD
:1015C000002108984164E7E70898406A20F48061A8
:1015D00008984162E0E7002108984164DCE70420B4
:1015E000D149086000201290D6E740F212203080E6
:1015F0000020B070F0700120307150207071012017
:10160000129000201190CA4890F802A0BAF1040F7D
:101610002BD009DCBAF1010F0DD0BAF1020F17D0AF
:10162000BAF1030F59D13CE0BAF1080F2BD0BAF14F
:101630000C0F52D143E0BF48D0F89000012802D1EE
:10164000B070F07003E00120B0700220F07045E04F
:10165000B848D0F89000022803D1B0700120F07093
:1016600002E00220B070F07038E0B248D0F890008C
:10167000042803D1B0700120F07003E00420B070A2
:101680000220F0702AE0AB48D0F89000082803D17F
:10169000B0700120F07003E00820B0700220F070FC
:1016A0001CE0A448D0F89000032803D1B0700120BA
:1016B000F07003E00320B0700220F0700EE09D484F
:1016C000D0F890000C2803D1B0700120F07003E036
:1016D0000C20B0700220F07000E000BF00BF5BE79C
:1016E000934890F802A0BAF1010F09D0BAF1020FA5
:1016F0002CD0BAF1040F4FD0BAF1080F71D171E0BC
:1017000000208D49C1F8FC008C49C1F8FC004FF461
:1017100080608B4988614004886101208549C1F857
:101720009000432081F894006821824880F8951049
:10173000312180F896108048D0F8BC008149C1F86A
:10174000A401D1F8A4010BF074F971E000207A49EA
:10175000C1F8FC007949C1F8FC004FF48060784979
:1017600088614004886102207249C1F890004320DA
:1017700081F8940068216F4880F89510322180F834
:1017800096106E48D0F8BC006E49C1F8A401D1F89B
:10179000A4010BF04EF94BE001206749C1F8FC00B1
:1017A0006649C1F8FC00C00265498861C0038861D0
:1017B00004206049C1F89000432081F8940068211A
:1017C0005C4880F89510332180F896105A48D0F87C
:1017D000C0005C49C1F8A401D1F8A4010BF029F9BB
:1017E00026E024E001205449C1F8FC005349C1F827
:1017F000FC00C00252498861C003886108204D493D
:10180000C1F89000432081F894006821494880F88D
:101810009510342180F896104848D0F8C000494906
:10182000C1F8A401D1F8A4010BF003F900E000BF56
:1018300000BFB1E63E4890F802A00AF0010018B1DE
:101840000120C8F8CC0002E00020C8F8CC000AF063
:10185000020018B10120C8F8D00002E00020C8F84A
:10186000D00099E698E6608937498863A089C86303
:1018700060880861E0884861A08888602089C86025
:1018800008460069132840D2DFE800F00A131A3036
:101890006F3F3F3F3F3F858CA5BEDBF5F4F3F20081
:1018A000012004F028F800202849486228480860F0
:1018B00023E1012004F01FF82648244908601CE1B8
:1018C000012004F018F802201F49886100200862F6
:1018D00008468068012802D11C49086102E0022004
:1018E0001A4908611C481949086006E1012004F002
:1018F00002F80420144988610020086208468068C4
:1019000001282BD1114908612BE0F5E0B00300203C
:1019100030383A31373A3238000000004E6F7620C6
:101920003133203230313700845C0120C404002080
:10193000B00F0020705A0120F40500205407002049
:10194000001002407C580120080000205C040020A8
:10195000DFEE000847EF0008AFEF00080220FE4965
:101960000861FE48FC490860C7E0012003F0C3FF9E
:101970000820FB4988610020086208468068012829
:1019800002D1F549086102E00220F3490861F548F7
:10199000F1490860B1E0022003F0ADFFF248EE49E2
:1019A0008860AAE0022003F0A6FF0120EA4948620D
:1019B0002020EB49086200208861084680680128E1
:1019C00002D1E549486102E00220E3494861E74865
:1019D000E149886091E0022003F08DFF0120DE499B
:1019E00048628020DE4908620020886108468068DD
:1019F000012802D1D849486102E00220D649486155
:101A0000DB48D549886078E0022003F074FFD448B1
:101A10008068012805D1D748D749886201204862EB
:101A200004E0D648D449886200204862D2480EF0CB
:101A300006FF0EF0CCFD0020CF4908620120C862ED
:101A40005BE0022003F057FFCB480069CA490860F9
:101A50000846406940424860084680698860C0483E
:101A60008068012808D1C34888620120486208E0E4
:101A70003BE033E02BE00FE0C048BF498862002024
:101A80004862BD480EF0DBFE0EF0A1FD0020BA4911
:101A900008620120C86230E0022003F02CFFB04849
:101AA0008068012805D1B348B349886201204862A3
:101AB00004E0B248B049886200204862AE480EF0A7
:101AC000BEFE0EF084FD0120AB49C86215E0022085
:101AD00003F011FFAA48A04988600EE0022003F03D
:101AE0000AFFA8489C49886007E0022003F003FF32
:101AF000A5489949886000E000BF00BF9848406948
:101B0000132876D2DFE800F00A131A30467575758F
:101B100075755C637D96B3DDFBF9F800012003F079
:101B2000BFFE9A488C49486000208862FEE0012090
:101B300003F0B6FE964888494860F7E0012003F0BC
:101B4000AFFE02208649C861002048620846C0688E
:101B5000012802D18049886102E002207E49886123
:101B60008C487D494860E1E0012003F099FE0420A3
:101B70007B49C861002048620846C068012802D13C
:101B80007549886102E00220734988618248724980
:101B90004860CBE0012003F083FE08207049C86153
:101BA000002048620846C068012802D16A4988615D
:101BB00002E0022068498861784867494860B5E0DA
:101BC000022003F06DFE76486349C860AEE0022053
:101BD00003F066FE01206049886220206049486267
:101BE0000020C8610846C068012803D15A49C8616D
:101BF00003E09AE002205849C8616A485649C86023
:101C000094E0022003F04CFE0120534988628020BA
:101C1000534948620020C8610846C068012802D1C3
:101C20004D49C86102E002204B49C8615E484A49FB
:101C3000C8607BE0022003F033FE4948C0680128F9
:101C400005D15A484C4988620120486204E058484E
:101C5000494988620020486247480EF0F0FD0EF0C6
:101C6000B6FC0020444908620120C8625EE0022000
:101C700003F016FE404800693F4908600846406985
:101C8000404248600846806988603548C06801283D
:101C900006D14648886200E09DE10120486204E0E8
:101CA0004348354988620020486233480EF0C7FD3A
:101CB0000EF08DFC0020304908620120C86235E03A
:101CC00036E0022003F0ECFD2548C068012805D16C
:101CD0003648294988620120486204E03448264990
:101CE00088620020486224480EF0A9FD0EF06FFCC7
:101CF00001202149C86219E00FE007E0FFE7022058
:101D000003F0CEFD2B481449C8600FE0022003F019
:101D1000C7FD29481049C86008E0022003F0C0FD53
:101D200026480D49C86001E064E000BF00BF33E40D
:101D300040F2255030601620B070307940F08000BD
:101D400030710748008F28800548008F688137E090
:101D50004AE1F2E099E006E15C040020D7F10008D6
:101D6000080000207FF5000807EF00086FF6000864
:101D7000CDF8000851050108240400206105010880
:101D80007103010849020108AF000108DFEE0008F5
:101D900069EF0008D5F00008C7F30008F7F5000860
:101DA00029EF000895F70008D9F900087105010826
:101DB000810501089DFF000867FE0008CDFC0008B2
:101DC000FE48808FA881FD48008A6880FB48808A91
:101DD000E880FA480089A880F84880892881002096
:101DE000E881002105F10E0029826982A982012083
:101DF000129074E4F24890F802A06088401EC8F87F
:101E000020006068C8F86C00A068C8F87400A08959
:101E1000C8F87C00BAF1010F08D1D4F80E10E948D7
:101E2000C0F8BC11D4F81210C0F8C011BAF1020FFA
:101E300008D1D4F80E10E348C0F8C411D4F8121039
:101E4000C0F8C811BAF1040F08D1D4F80E10DD485B
:101E5000C0F8CC11D4F81210C0F8D011BAF1010FAB
:101E600008D1D4F80E10D748C0F8D411D4F8121005
:101E7000C0F8D8117F21D8F86C0090FBF1F0D2495E
:101E80000867E08ACF49086029E440F222503060B8
:101E90002420B070307940F080003071C84890F84C
:101EA00002A0A5F800A0B8F82000401E6880D8F86D
:101EB0006C006860D8F87400A860B8F87C00A8814D
:101EC000C0480088E882BAF1010F09D1BD48D0F8B6
:101ED000BC01C5F80E00BB48D0F8C001C5F80E0023
:101EE000BAF1020F09D1B748D0F8C401C5F80E0005
:101EF000B448D0F8C801C5F80E00BAF1040F09D1F2
:101F0000B048D0F8CC01C5F80E00AE48D0F8D001EA
:101F1000C5F80E00BAF1080F09D1AA48D0F8C401DB
:101F2000C5F80E00A748D0F8C401C5F80E0000207F
:101F300068832883012012907BE454F8020FA349A0
:101F4000086060684860A0688860A069C860E06850
:101F500008612069486160698861A069C861E069B9
:101F6000A41E086265E44FF4A56030602E20B070B6
:101F7000307940F0800030710120AD1C25F8020C52
:101F80009248006828609148406868608F4880687F
:101F9000A8608E48C068A8618C48006AE8618B48D8
:101FA000006944F80E0F894840696060874880697D
:101FB000A0608648C069A0600E3C00202884AD1E49
:101FC000002105F12200A984E98429856985A98574
:101FD000012012902DE4B4F800B0D4F802000E9065
:101FE0007B490E98086024E4B4F800B0D4F80200ED
:101FF0000E9077490E9848601BE4B4F800B0D4F80E
:1020000002000E907348806A28B100BF002008F0DB
:1020100094FD0028FAD16F48C06A28B100BF0020A3
:1020200008F0ABFD0028FAD16A48006B28B100BF68
:10203000012008F082FD0028FAD16648406B28B1E3
:1020400000BF002008F099FD0028FAD10BF0010034
:10205000E0B100206049C1F8FC000E988860084695
:1020600080680968401A5C49C1F8D4000121002049
:1020700008F0B0FB0D900D98B0F5807F03D10020E3
:102080005449886202E00120524988620BF0020044
:10209000E0B100205149C1F8FC000E988860084664
:1020A00080680968401A4D49C1F8D4000121002018
:1020B00008F092FA0D900D98B0F5807F03D10021C1
:1020C0004448C16202E001214248C1620BF00400B1
:1020D000E0B101204049C1F8FC000E98C8600846F4
:1020E000C0684968411A3C48C0F8D8100121084628
:1020F00008F070FB0D900D98B0F5807F03D10021A2
:102100003448016302E00121324801630BF008000A
:10211000E0B101203149C1F8FC000E98C8600846C2
:10212000C0684968411A2D48C0F8D81001210846F6
:1021300008F052FA0D900D98B0F5807F03D1002180
:102140002448416302E001212248416300201290AB
:10215000EDE51B4890F802B00BF0010058B11D48A6
:10216000806A28B100BF002008F0E7FC0028FAD1FF
:102170000120FEF72EF90BF0020058B11548C06A95
:1021800028B100BF002008F0F8FC0028FAD1022096
:10219000FEF71FF90BF0040058B10E48006B28B190
:1021A00000BF012008F0C9FC0028FAD10420FEF786
:1021B00010F90BF00800F0B1064811E0080000200B
:1021C000B00F00207C580120C4040020240400200B
:1021D000000000209C050020F4050020540700208A
:1021E000406B28B100BF012008F0C7FC0028FAD1DD
:1021F0000820FEF7EEF89AE5B4F800B0D4F8020033
:102200000E90F848806A28B100BF002008F095FCC5
:102210000028FAD1F348C06A28B100BF002008F0B6
:10222000ACFC0028FAD1EF48006B28B100BF0120B8
:1022300008F083FC0028FAD1EA48406B28B100BFBF
:10224000002008F09AFC0028FAD10BF0010098B1A8
:10225000E5490E98C1F8D4000121002008F0BAFA2F
:102260000D900D98B0F5807F03D10020DD49886284
:1022700002E00120DB4988620BF0020098B1DB49E3
:102280000E98C1F8D4000121002008F0A5F90D90A6
:102290000D98B0F5807F03D10021D248C16202E0E1
:1022A0000121D048C1620BF0040098B1CE490E98CC
:1022B000C1F8D8000121084608F08CFA0D900D985D
:1022C000B0F5807F03D10021C648016302E00121FF
:1022D000C44801630BF0080090B1C4490E98C1F8DE
:1022E000D8000121084608F077F90D98B0F5807FF5
:1022F00003D10021BB48416302E00121B948416399
:102300000020129013E5BA48C0780A90B84890F8B7
:1023100002B00BF00100A0B10A98012808D1B5481D
:10232000B149C1F8D4000121002008F053FA08E0B7
:10233000B0484042AC49C1F8D4000121002008F067
:1023400049FA0BF00200A0B10A98012808D1A94867
:10235000A649C1F8D4000121002008F03DF908E0A9
:10236000A4484042A149C1F8D4000121002008F04E
:1023700033F90BF00400A0B10A98012808D19D4957
:102380009948C0F8D8100121084608F023FA08E05F
:10239000984949429448C0F8D8100121084608F0ED
:1023A00019FA0BF00800A0B10A98012808D1914948
:1023B0008E48C0F8D8100121002008F00DF908E07F
:1023C0008C4840428949C1F8D4000121002008F01E
:1023D00003F900201290AAE4854890F802B0C07872
:1023E0000A908048806A28B100BF002008F0A5FB51
:1023F0000028FAD17B48C06A28B100BF002008F04D
:10240000BCFB0028FAD17748006B28B100BF01203F
:1024100008F093FB0028FAD17248406B28B100BF46
:10242000012008F0AAFB0028FAD10BF0010088B3C4
:102430006D48006E022821D10A98012805D16A480A
:10244000006F6949C1F8D40008E00A98022805D154
:102450006548806F40426449C1F8D40002210020E1
:1024600008F0B8F90D900D98B0F5807F03D10020E9
:102470005C49886202E002205A4988625A48006E2C
:10248000012817D10A98012805D15A485649C1F8A0
:10249000D40008E00EE00A98022804D155484042D2
:1024A0005149C1F8D4000221002008F093F902201C
:1024B0004C4988620BF0020088B34C48006E022839
:1024C00021D10A98012805D14848006F4749C1F831
:1024D000D40008E00A98022805D14448806F4042A1
:1024E0004249C1F8D4000221002008F075F80D908F
:1024F0000D98B0F5807F03D100213A48C16202E017
:1025000002213848C1623948006E012817D10A9863
:10251000012805D137483549C1F8D40008E00EE05C
:102520000A98022804D1334840423049C1F8D40007
:102530000221002008F050F802212A48C1620BF065
:10254000040080B32848406E022820D10A98012850
:1025500004D12548416FC0F8D81008E00A98022835
:1025600005D12148C06F41421F48C0F8D810022150
:10257000012008F02FF90D900D98B0F5807F03D160
:1025800000211848016302E0022116480163164841
:10259000406E012817D10A98012805D11549124823
:1025A000C0F8D81008E00EE00A98022804D11149BA
:1025B00049420D48C0F8D8100221012008F00AF95C
:1025C0000221084801630BF00800D0B30748406EB1
:1025D00002282AD10A9801280ED10448416FC0F878
:1025E000D81012E09C050020F405002054070020BC
:1025F000B00F002078FDFF7F0A98022805D1FE4821
:10260000C06F4142FC48C0F8D8100221012007F0F9
:10261000E3FF0D900D98B0F5807F03D10021F748BE
:10262000416302E00221F5484163F348406E01280E
:1026300017D10A98012805D1F149EF48C0F8D81000
:1026400008E00EE00A98022804D1ED494942EA4820
:10265000C0F8D8100221012007F0BEFF0221E74890
:102660004163002012900FE4FEF706FB0020129059
:102670000AE42846FDF7F7FE1190C22030700820CA
:1026800070701198B070307940F080003071012086
:10269000129051E420881390139819287ED008DCFA
:1026A00007281BD00B287AD0152879D0172878D185
:1026B0002EE1212804D02D2848D0302871D1D0E037
:1026C000D048D0F88C00D0494861CE48D0F890105E
:1026D000CD4881614AF65521016270E1CB48D0F8BE
:1026E000BC10C9488162C948816BC7488163C7482B
:1026F000816CC5488164C048D0F8BC10C248C16232
:10270000BD48816BC048C163BB48816CBE48C16491
:10271000BE48D0F8C010BC480163BC48C16BBA4881
:102720000164BA48C16CB8480165B348D0F8C0101C
:10273000B5484163B048C16BB3484164AE48C16C11
:10274000B14841654AF65521816538E1AF48016ECF
:10275000AD48C165A848016EAB480166AB48416E03
:10276000A9484166A448416EA7488166A748016F01
:10277000A548C166A048016FA3480167A348416FFF
:10278000A14841679C48416F9F4881679F48816F7E
:102790009D48C1679848816F9B4803E0E1E03AE0BB
:1027A00070E00BE1C0F880109848C16F9648C0F8FF
:1027B00084109148C16F9448C0F888109348016D07
:1027C0009148C0F88C108C48016D8F48C0F890106B
:1027D0008E48416D8C48C0F894108748416D8A48F6
:1027E000C0F898108948816D8748C0F89C108248CD
:1027F000816D8548C0F8A0108448C16D8248C0F83A
:10280000A4107D48C16D8048C0F8A8104AF6552133
:10281000C0F8C010D3E07C48D8F88C10C0F808117C
:10282000D8F89010C0F80C11D8F89410C0F8201106
:10283000D8F89810C0F82411D8F89C10C0F83811B6
:10284000D8F8A010C0F83C11D8F8A410C0F8501166
:10285000D8F8A810C0F854114AF65521C0F8041150
:10286000ADE06B48D0F8A8116748C0F8D0106848B0
:10287000D0F8AC116448C0F8D4104AF65521C0F81D
:10288000D8109CE06248D0F8BC115F48C0F8BC1179
:102890005F48D0F8C0115C48C0F8C0115C48D0F85F
:1028A000C4115948C0F8C4115948D0F8C811564845
:1028B000C0F8C8115648D0F8CC115348C0F8CC1114
:1028C0005348D0F8D0115048C0F8D0115048D0F833
:1028D000D4114D48C0F8D4114D48D0F8D8114A4809
:1028E000C0F8D811D8F87010C0F8DC11D8F8201052
:1028F000C0F8E011D8F87C10C0F8E4114448016831
:102900004148C0F8E8114AF65521C0F8EC1156E0EC
:102910004048008F81B23C48A0F820123D48808F8B
:1029200081B23948A0F822123A48008A81B236486A
:10293000A0F824123748808A81B23348A0F82812C0
:102940003448008981B23048A0F826123148808985
:1029500081B22D48A0F82A124AF65521C0F82C124F
:102960002DE02D4801682848C0F830122A484168F7
:102970002548C0F83412284881682348C0F8381226
:10298000254801692048C0F83C12234841691E4887
:10299000C0F84012204881691B48C0F844121E4804
:1029A000C1681948C0F848121B48016A1648C0F8A7
:1029B0004C124AF65521C0F8501200E000BF00BF8B
:1029C00019E4206807906768D4F80890E0680690DA
:1029D0002069059060690490A0690390E069029005
:1029E000206A0190606A00900798292871D031DC34
:1029F00020286FD025DC11E0540700209C05002022
:102A000078FDFF7F705A0120985C0120F4050020BA
:102A10007C58012008000020240400200F2875D0D5
:102A200008DC022873D0042872D00C2871D00D283D
:102A300070D194E010287CD011286DD01228F7D1E5
:102A40007CE02138082865D2DFE800F096FEFDFC26
:102A5000FBFAF9F8322870D009DCA0F12A00082826
:102A6000F1D2DFE800F05EF7F662F5F4F3F240F23F
:102A70002352811A90426FD00CDC33286DD0B0F510
:102A8000C87F6BD0A0F2132068B3A0F2ED2000281D
:102A9000CED1F5E303296ED0B1F56D7F1BD0A1F245
:102AA000B6310029C4D10A970A9F012F04D1F848F2
:102AB000F849C1F8D40007E00A98022804D1F44884
:102AC0004042F449C1F8D4000221002007F082FE00
:102AD00008E24BE281E20421002007F07BFE0120A6
:102AE000FDF777FCF4E7BA4657460AF0010018B143
:102AF0000120C8F8CC0002E00020C8F8CC000AF0A1
:102B0000020050B10120C8F8D00009E053E22AE0E9
:102B10001AE01DE0C9E30CE013E00020C8F8D00083
:102B2000D6E73846FDF706FCD2E7384609F04AFEFC
:102B3000CEE7D948C0F82871CAE74EE1D748076008
:102B4000C6E709F0C0FBC3E76068C8F8B800BFE794
:102B50006068C8F84C00BBE757E24AE1F4E36068FC
:102B6000C8F84800B4E76068CD49086005F00DF882
:102B700000201290ACE734E24FF40060C94988614C
:102B800040108861B7F57A7F2BD1400488614014EA
:102B900088610020BF49C1F8FC000846D0F8FC005D
:102BA000C149486011200860012048610F20C861B8
:102BB0000846C0F83490069888600020BB49C1F8E8
:102BC000FC000846D0F8FC00B949486011200860B4
:102BD000012048610F20C8610846C0F8349006986B
:102BE000886017F57A7F3BD14FF00060AD4988616E
:102BF000401488610020A749C1F8FC000846D0F8BD
:102C0000FC00A949486012200860012048610520A5
:102C1000C8610846C0F83490069888600020A3492F
:102C2000C1F8FC000846D0F8FC00A1494860122019
:102C30000860012048610520C8610CE0B0E05BE15C
:102C400055E150E13EE1FDE0EEE0BAE0ADE0E7E065
:102C5000E1E0DDE0D9E00846C0F8349006988860ED
:102C6000B7F5FA6F0BD11120914908600120486136
:102C70000F20C8610846C0F834900698886017F5A0
:102C8000FA6F0BD112208A490860012048610520A3
:102C9000C8610846C0F834900698886040F6B8309D
:102CA00087422DD14FF400607E498861C00388615E
:102CB00001207849C1F8FC000846D0F8FC007A49A8
:102CC000486011200860012048610F20C861084653
:102CD000C0F834900698886001207449C1F8FC005F
:102CE0000846D0F8FC0072494860112008600120B5
:102CF00048610F20C8610846C0F834900698886083
:102D00006C4887422DD14FF4006066498861C0034A
:102D1000886101205F49C1F8FC000846D0F8FC003A
:102D20006149486012200860012048610F20C86195
:102D30000846C0F834900698886001205B49C1F8C5
:102D4000FC000846D0F8FC00594948601220086091
:102D5000012048610F20C8610846C0F834900698E9
:102D60008860B7F57A6F0BD11120514908600120B6
:102D700048610F20C8610846C0F834900698886002
:102D800017F57A6F0BD1122049490860012048617C
:102D90000520C8610846C0F834900698886097E618
:102DA0003D488763C0F8489092E63F48C763C0F843
:102DB00040903D4906984864059888640498C86422
:102DC00086E639480765C0F8549037490698886503
:102DD0000598C865049808667AE635480765C0F81E
:102DE00054903349069888650598C8650498086624
:102DF0006EE62F480765C0F854902D4906988865FF
:102E00000598C8650498086662E609F03EFD5FE62D
:102E100009F018FD5CE6384609F00BFE824661E0D9
:102E20002548C0F8C0715DE0B7F57A7F02D123482C
:102E3000C0F8689017F57A7F03D14FF0FF301F4933
:102E400008604FE0B7F57A7F03D14FF080601C49EE
:102E50000860B7F5FA6F03D14FF480601849086035
:102E600040F6B830874202D101201449C866B7F550
:102E70007A6F03D101201049C1F8AC0041F28830CB
:102E8000874203D1AA200C49C1F8C400E9E300003D
:102E900078FDFF7FF4050020B4080020281C0040C6
:102EA000985C012000100240900A00205407002086
:102EB0000C0B002048F4FFFF705A0120140A002078
:102EC000180C02400FB9F9480767012F01D1F748E4
:102ED0000767B9F1000F05DDB9F5FA6F02DAF348BB
:102EE000C0F80890BDE3F248C0F82C71B9E3F0488F
:102EF000C764C0F83C90B4E3012F0BD1B9F1000FC7
:102F000002D13804EB498861B9F1010F02D10120E7
:102F1000E8498861022F0BD1B9F1000F02D13804C2
:102F2000E4498861B9F1010F02D10220E1498861C9
:102F3000032F0CD1B9F1000F03D14FF48020DD49EC
:102F40008861B9F1010F02D10420DA498861042FA8
:102F50000BD1B9F1000F02D17804D6498861B9F1DB
:102F6000010F02D10820D34988617AE337B1012FDC
:102F70000BD0022F0FD0032F1AD113E04FF4001003
:102F8000CD4908604000086013E02020CA4908606D
:102F9000400408600DE04FF40010C749086040206D
:102FA000086006E02020C44908604020086000E076
:102FB00000BF00BF55E36168C048C0F818124AF668
:102FC0005521C0F81C1204F0E0FDBC48D0F81802EE
:102FD000C8F8C0000020129043E3B948A0F8D070B0
:102FE0003FE36068B7490860A0684860E0688860AF
:102FF0002069C86060690861A0694861E06988610A
:10300000206AC861606A08622BE36068AE49886321
:10301000A068C863E06808612069486160698860E9
:10302000A069C860E069A9490860206A4860A648AC
:1030300000690D2807D0A44800690E2803D0A248D3
:1030400000690F2812D1A048806B9F490864084688
:1030500040690D2807D0084640690E2803D008466D
:1030600040690F2802D1002097494861964840697D
:103070000D2807D0944840690E2803D09248406933
:103080000F2812D19048C06B8F4908640846006928
:103090000D2807D0084600690E2803D008460069AD
:1030A0000F2802D100208849086187480069132849
:1030B00073D2DFE800F00A13243A5072727272720F
:1030C000667790A9CAE9E8E7E600012002F013FC60
:1030D00000207F4948627F48086045E1012002F0F6
:1030E0000AFC79488068012802D17949086102E028
:1030F00000207749086178487549086034E101206B
:1031000002F0F9FB0220704988610020086208463D
:103110008068012802D16E49086102E002206C49F2
:1031200008616E486A4908601EE1012002F0E3FB75
:1031300004206549886100200862084680680128EB
:1031400002D16349086102E00220614908616448D4
:103150005F49086008E1012002F0CDFB08205A49D0
:1031600088610020086208468068012802D1584919
:10317000086102E00220564908615A485449086033
:10318000F2E0022002F0B7FB5748514988604E48F0
:103190008068012802D1086103E0E4E000204C4986
:1031A0000861E1E0022002F0A6FB012048494862E4
:1031B000202045490862002088610846806801286F
:1031C00002D14349486102E0022041494861474831
:1031D0003F498860C8E0022002F08DFB01203C4995
:1031E000486280203849086200208861084680686B
:1031F000012802D13649486102E002203449486181
:103200003B4833498860AFE0022002F074FB2E484F
:10321000806B2D49086408468068012805D135482F
:10322000284988620120486204E0334825498862C1
:103230000020486223480DF002FB0DF0C8F9002081
:10324000204908620120C8628EE0022002F053FB90
:103250001D48806B1C4908641A48006919490860B8
:1032600008464069404248600846806988601648C0
:103270008068012809D11F4888620120486209E05E
:10328000A9E169E061E058E038E01B480D49886237
:10329000002048620B480DF0D2FA0DF098F900209A
:1032A000084908620120C8625EE0D9E1140A0020E2
:1032B000B40800200000024018040240985C01207D
:1032C000C404002024040020080000200000002086
:1032D0005C040020DFEE000847EF0008AFEF0008B5
:1032E000D7F100087FF5000807EF00086FF6000827
:1032F000CDF800085105010861050108022002F01F
:10330000FAFAFE48806BFD49086408468068012887
:1033100005D1FB48FB4988620120486204E0FA4875
:10332000F849886200204862F6480DF088FA0DF0EE
:103330004EF90120F349C86216E0022002F0DBFAE0
:10334000F248F34988600FE06EE1022002F0D3FA00
:10335000F048EF49886007E0022002F0CCFAEE481E
:10336000EB49886000E000BF00BFE44840691328D3
:1033700073D2DFE800F00A13243A5072727272724C
:10338000667790A9CAF9F7F6F500012002F088FAED
:10339000E248DF494860002088621AE1012002F01B
:1033A0007FFAD648C068012802D1D949886102E075
:1033B0000020D7498861DA48D549486009E10120F1
:1033C00002F06EFA0220CD49C8610020486208462A
:1033D000C068012802D1CE49886102E00220CC49B0
:1033E0008861D048CA494860F3E0012002F058FAE9
:1033F0000420C249C861002048620846C06801280C
:1034000002D1C349886102E00220C1498861C648EF
:10341000BF494860DDE0012002F042FA0820B749C8
:10342000C861002048620846C068012802D1B84936
:10343000886102E00220B6498861BC48B44948600E
:10344000C7E0022002F02CFAB948B149C860AB4885
:10345000C068012802D1886103E0B9E00020AC49CE
:103460008861B6E0022002F01BFA0120A8498862B8
:103470002020A24948620020C8610846C06801288F
:1034800002D1A349C86102E00220A149C861A9484C
:103490009F49C8609DE0022002F002FA01209C4989
:1034A00088628020954948620020C8610846C0684B
:1034B000012802D19649C86102E002209449C861FE
:1034C0009D489349C86084E0022002F0E9F98B48E6
:1034D000C06B8A4908640846C068012805D197482E
:1034E000884988620120486204E0954885498862DD
:1034F0000020486283480DF0A2F90DF068F8002022
:10350000804908620120C86263E0022002F0C8F925
:103510007A48C06B794908647A480069794908603B
:1035200008464069404248600846806988607348A0
:10353000C068012804D1814888620120486204E003
:103540007F4870498862002048626E480DF077F924
:103550000DF03DF800206B4908620120C86238E098
:103560002FE027E01FE0FFE7022002F099F963480F
:10357000C06B624908640846C068012805D16F48DD
:10358000604988620120486204E06D485D498862B4
:10359000002048625B480DF052F90DF018F8012048
:1035A0005849C86215E0022002F07AF96548584986
:1035B000C8600EE0022002F073F963485449C86005
:1035C00007E0022002F06CF960485149C86000E051
:1035D00000BF00BF45E060681090A0680F90109891
:1035E000012802D14549886002E0002043498860F3
:1035F0000F9830B1022808D004280AD0082810D12A
:103600000BE000203D4988610CE002203B498861C5
:1036100008E004203949886104E0082037498861BE
:1036200000E000BF00BF1CE040F2C570874216D129
:10363000B9F1000F13D1642002F059FA72B6444870
:10364000006820F48000424908600846006820F4C1
:10365000001008603F4840490860FCF75BFE00E04E
:1036600000BF00BF86E01620307000207070282058
:10367000B070307940F080003071384890ED000A29
:10368000D0ED010A30EE200AD0ED020A30EE208A99
:10369000B0EE080AC8EE008A90ED000ABDEEC00A3E
:1036A00010EE100A28602D4890ED010ABDEEC00A08
:1036B00010EE100A6860294890ED020ABDEEC00ABB
:1036C00010EE100AA860254890ED030ABDEEC00A6E
:1036D00010EE100AE8602248D0F8280128611F483F
:1036E000C06D68611D48D0F8C800A8611B48D0F8BB
:1036F000CC00E8611948D0F8D00033E00800002081
:103700005105010824040020610501087103010826
:103710005C04002049020108AF000108DFEE000848
:1037200069EF0008D5F00008C7F30008F7F50008B6
:1037300029EF000895F70008D9F90008710501087C
:10374000810501089DFF000867FE0008CDFC000808
:1037500030380240EFBEADDEF01F0020705A01206D
:10376000B40800202862FE48D0F8D4006862012026
:10377000129000BF00BF129870B19DF8540000F085
:10378000800018B19DF85200801D00E006201190C5
:1037900014A8119902F077FA2BB0BDEC048BBDE8A8
:1037A000F08F10B503460020EE49EF4A00BF012B11
:1037B00006D0022B28D0042B4AD0082B7ED16BE0F8
:1037C0008C6A012C07D08C6A022C04D091F83C4002
:1037D00004F001041CB140F0100040F02000E34C64
:1037E000A46B012C05D1D2F8C440012C01D140F4C6
:1037F0008010DE4CE46B012C05D1D2F8C840012CBE
:1038000001D140F400106EE0CC6A012C07D0CC6AE4
:10381000022C04D091F83C4004F001041CB140F0AB
:10382000100040F02000D14CA46B022C05D1D2F83E
:10383000C440012C01D140F48010CC4CE46B022C2C
:1038400005D1D2F8C840012C01D140F400104AE063
:103850000C6B012C07D00C6B022C04D091F83C406F
:1038600004F001041CB140F0100040F02000BF4CF7
:10387000A46B042C05D1D2F8C440012C01D140F432
:103880008010BA4CE46B042C05D1D2F8C840012C4E
:1038900001D140F4001026E04C6B012C07D04C6B9A
:1038A000022C04D091F83C4004F001041CB140F01B
:1038B000100040F02000AD4CA46B00E012E0082C9A
:1038C00005D1D2F8C440012C01D140F48010A74C9E
:1038D000E46B082C05D1D2F8C840012C01D140F48A
:1038E000001000E000BF00BF10BD70B59E4C00236B
:1038F0004FF4157219469E4804F0A8F805469C48F6
:10390000006A4AF65521884216D19948406994497F
:10391000C1F88C0096488069C1F890009448007FF7
:1039200081F894009248417F8D4880F89510904826
:10393000817F8B4880F896108D48806D4AF655211E
:10394000884233D18A48806C8A4988648848C06C30
:10395000894988648648016D8648C1648448416D00
:103960008548C1648248806B824988638048C06B07
:10397000814988637E48016C7E48C1637C48416C04
:103980007D48C1637A48806A7A49C1F8BC007848AA
:10399000C06A7949C1F8BC007548016B7548C0F828
:1039A000C0107348416B7448C0F8C0107048D0F81C
:1039B000C0004AF6552188425AD16D48C06D6D4904
:1039C00008666B48006E6C4908666948416E694834
:1039D00041666748816E684841666548C06E6549C2
:1039E00008676348006F644908676148416F614830
:1039F00041675F48816F604841675D48C06F5D49BE
:103A000088675B48D0F880005B4988675848D0F8E1
:103A100084105848C1675648D0F888105648C16786
:103A20005348D0F88C00534908655148D0F89000AD
:103A3000514908654E48D0F894104E4841654C48AD
:103A4000D0F898104C4841654948D0F89C00494945
:103A500088654748D0F8A000474988654448D0F8B1
:103A6000A4104448C1654248D0F8A8104248C16536
:103A70003F48D0F804014AF65521884221D13C48FC
:103A8000D0F8080144F88C0F3948D0F80C01606078
:103A90003748D0F80801A0603548D0F80C01E06044
:103AA0003348D0F8080120613148D0F80C0160613A
:103AB0002F48D0F80801A0612D48D0F80C01E06132
:103AC0008C3C2B48D0F8EC014AF65521884261D154
:103AD0002748D0F8BC1124487038C0F8BC112448DD
:103AE000D0F8C01120487038C0F8C0112048D0F874
:103AF000C4111D487038C0F8C4111D48D0F8C81151
:103B000019487038C0F8C8111948D0F8CC111648B7
:103B10007038C0F8CC111648D0F8D011124870385F
:103B2000C0F8D0111248D0F8D4110F487038C0F83E
:103B3000D4110F48D0F8D8110B487038C0F8D811FC
:103B40000B48D0F8DC0120670948D0F8E00120627A
:103B50000748D0F8E401E0670548D0F8E8010DE037
:103B6000705A01209C050020EC580120080000201C
:103B7000985C0120F405002054070020FE490860ED
:103B8000206FFDF72BF8FD498862206FFDF726F8BE
:103B9000FB498862FB48D0F850024AF6552188421A
:103BA00020D1F848D0F83002F7490860F548D0F83D
:103BB00034024860F348D0F838028860F148D0F801
:103BC0003C020861EF48D0F840024861ED48D0F867
:103BD00044028861EB48D0F84802C860E948D0F850
:103BE0004C020862E748D0F82C024AF65521884278
:103BF00018D1E448B0F82002E4498863E148B0F8FD
:103C00002202C863DF48B0F824020861DD48B0F83A
:103C100028024861DB48B0F826028860D948B0F82D
:103C20002A02C860D74800694AF65521884211D156
:103C3000D448C0680F2804D1D5A1D7480FF0D2FDD1
:103C40000CE0D048C0681E2808D1D1A1D2480FF09E
:103C5000C9FD03E0CEA1D0480FF0C4FD70BD30B562
:103C60008FB00446CD4D5020CD4948710C70200ACC
:103C70004870382088700020C8708120087140F298
:103C80004440844204D10020C8700120887008712B
:103C90000120ADF80400C3480068CDF806000020FC
:103CA000CDF80A000120FFF77CFDCDF80E000220C0
:103CB000ADF81200BC480068059000200690022074
:103CC000FFF76FFD07900420ADF82000B54840686D
:103CD000CDF822000020CDF826000420FFF761FD7A
:103CE000CDF82A000820ADF82E00AF4840680C90AF
:103CF00000200D900820FFF754FD0E900621A848E3
:103D000001F0C1FF40F24440844203D0382101A8B1
:103D100001F0B9FF0FB030BD10B504460120A34932
:103D2000C870084684700120087106219F4801F080
:103D3000AAFF10BD10B506219D4801F0A4FF10BDDB
:103D400030B589B005468C4C7034012D06D0022D5B
:103D50000DD0042D14D0082D24D11AE08648D0F8B7
:103D6000BC0104908448D0F8C00105901AE0824854
:103D7000D0F8C40104908048D0F8C801059011E043
:103D80007D48D0F8CC0104907B48D0F8D001059054
:103D900008E07948D0F8D40104907748D0F8D801E9
:103DA000059000BF00BF1E20824988700020C870A7
:103DB000812008710120ADF806001520ADF804003F
:103DC000208C401C80B2ADF80800206FCDF80A00AE
:103DD000B4F87C0080B2ADF80E006748008880B26D
:103DE000ADF818000020ADF81A000021ADF81C1045
:103DF000ADF81E10ADF8201006216E4801F043FF0B
:103E00001E2101A801F03FFF09B030BD1CB50446DA
:103E10000620694988700020C8708120087101203F
:103E2000ADF802002120ADF800006448B0F88C0025
:103E300080B2ADF8040006215F4801F024FF06219E
:103E4000684601F020FF1CBD1FB504460E205C49EA
:103E500088700020C87081200871012C0BD10120CE
:103E6000ADF8000057480068CDF802000020CDF8FA
:103E70000600CDF80A00022C0BD10220ADF800009C
:103E800050484068CDF802000020CDF80600CDF87B
:103E90000A00042C0BD10420ADF8000049488068CA
:103EA000CDF802000020CDF80600CDF80A00082C5D
:103EB0000BD10820ADF800004248C068CDF80200E0
:103EC0000020CDF80600CDF80A0006213C4801F09C
:103ED000DAFE0E21684601F0D6FE1FBD70470021B4
:103EE000002200BF05E03548F83050F821000244B8
:103EF000491C0F29F7DB0F2092FBF0F0704770B5DB
:103F00000024002500202749C1F8FC002649C1F8FB
:103F1000FC004FF480602C498861400488614013A4
:103F20008861052001F0E3FD70BD70B50024002517
:103F300000201C49C1F8FC001B49C1F8FC004FF4EB
:103F400080602149886140048861C0138861052030
:103F500001F0CDFD70BD70B5002400250120114990
:103F6000C1F8FC001049C1F8FC00C0021649886184
:103F7000C0038861001329E07C580120900A0020CA
:103F80000C0B0020985C0120240400200800002075
:103F90004B494D3130310000B40300209C05002016
:103FA0004D000020F405002054070020530000209D
:103FB000590000205F00002065000020705A012099
:103FC0006B000020B408002000100240886105202A
:103FD00001F08DFD70BD70B5002400250120FE4963
:103FE000C1F8FC00FD49C1F8FC00C002FC49886131
:103FF000C003886180138861052001F078FD70BDE1
:1040000010B5F848D0F8C400052879D005DC78D27E
:10401000DFE800F0FC1433577E001E2860D004DC7B
:104020000A2815D014286CD136E028287FD0AA2879
:10403000F9D10120EB49C1F8C40082E1FFF75FFF2D
:104040000A20E849C1F8C4000120C1F8AC0078E1B9
:10405000E448D0F8AC0058B94FF48040E04988619A
:104060000220E049C1F8C400642001F040FD03E0F3
:104070000A20DC49C1F8C40063E1FFF730FFD949E9
:10408000C1F8C800FFF751FF0120D649C1F8B000C0
:104090001420C1F8C40054E1D248D0F8B00058B997
:1040A0004FF48050CE4988610320CE49C1F8C40046
:1040B000642001F01CFD03E01420CA49C1F8C400CB
:1040C0003FE1FFF70CFFC749C1F8CC00FFF743FF02
:1040D0000120C449C1F8AC001E20C1F8C40030E181
:1040E000C048D0F8AC0070B94FF48040BC4988613A
:1040F0000420BC49C1F8C400642001F0F8FC06E0CB
:104100003FE01DE113E01E20B649C1F8C40018E1EC
:10411000FFF7E5FEB349C1F8D000FFF75CFF0120CF
:10412000B049C1F8B0002820C1F8C40009E1AD4889
:10413000D0F8B00000BB4FF48050A94988616420DA
:1041400001F0D5FCFFF7DBFE4FF48040A449886105
:104150000520A449C1F8C40000209F49C1F8FC0013
:104160009E49C1F8FC004FF400609D4988614010F1
:1041700088614004886103E028209A49C1F8C4009E
:10418000DFE0FFF7ACFE9749C1F8D4000846D0F84D
:10419000C800122803DA0120C1F8B4001DE09148DC
:1041A000D0F8C800122809DD8E48D0F8C800802851
:1041B00004DA02208B49C1F8B4000EE08948D0F837
:1041C000C800B0F5006F04DB03208649C1F8B400D5
:1041D00003E004208349C1F8B4008248D0F8CC0041
:1041E000122804DA01207F49C1F8B8001EE07D489A
:1041F000D0F8CC0012280ADD7A48D0F8CC0080280C
:1042000005DA02207749C1F8B8000FE096E075485A
:10421000D0F8CC00B0F5006F04DB03207149C1F881
:10422000B80003E004206F49C1F8B8006D48D0F829
:10423000D000122804DA01206A49C1F8BC001DE050
:104240006848D0F8D000122809DD6648D0F8D000C0
:10425000802804DA02206349C1F8BC000EE06148FE
:10426000D0F8D000B0F5006F04DB03205D49C1F841
:10427000BC0003E004205B49C1F8BC005948D0F8F9
:10428000D400122804DA01205649C1F8C0001DE00C
:104290005448D0F8D400122809DD5248D0F8D40090
:1042A000802804DA02204F49C1F8C0000EE04D48D2
:1042B000D0F8D400B0F5006F04DB03204949C1F801
:1042C000C00003E004204749C1F8C0000020454970
:1042D000C1F8A8000846D0F8B400032805D1012091
:1042E000C1F8A8008002404908603E48D0F8B800F4
:1042F000032806D102203B49C1F8A80040023A49F0
:1043000008603848D0F8BC00032806D13549C1F808
:10431000A8004FF48060344908603248D0F8C000EB
:10432000032806D104202F49C1F8A80000022E4915
:10433000086000202B49C1F8C40002E0002400E01E
:1043400000BF00BF2748D0F8C40008B9002010BD46
:104350000120FCE7014601EE901AF8EE611AF0EE3A
:10436000610ADFED221A80EEA12AB0EE420ADFEDEB
:10437000201A60EE211AB0EE611AFDEEC11A11EE9C
:10438000900A70471B48A0F17001D1F8A8211A4982
:10439000C1F8D020A0F17001D1F8AC211649C1F8C4
:1043A000D4204AF65522C1F8D8200E49D1F88C10F5
:1043B000114A51610B49D1F890200F498A6109498E
:1043C00091F894200C490A77064991F895200A49FA
:1043D0004A77044912E00000F40500205407002049
:1043E00000100240705A0120180C0240CA269B445B
:1043F0007D3F7042EC580120985C012091F8962096
:10440000FD498A774AF655220A622C30426BC1F880
:10441000DC20826BC1F8E020C26AC1F8E420C26BE4
:10442000C1F8E8204AF65522C1F8EC20026EC1F826
:104430000821426EC1F80C21826EC1F82021C26EA3
:10444000C1F82421026FC1F83821426FC1F83C2124
:10445000826FC1F85021C26FC1F85421A0F19C01B4
:10446000D1F8BC21E449C1F8BC21A0F19C01D1F8EC
:10447000C021E149C1F8C021A0F19C01D1F8C421BB
:10448000DD49C1F8C421A0F19C01D1F8C821DA4965
:10449000C1F8C821A0F19C01D1F8CC21D649C1F8BE
:1044A000CC21A0F19C01D1F8D021D349C1F8D02171
:1044B000A0F19C01D1F8D421CF49C1F8D421A0F1B9
:1044C0009C01D1F8D821CC49C1F8D821426CC1F85F
:1044D000DC2150F80C2CC1F8E021026D2C38C1F819
:1044E000E421A0F170010A68C349C1F8E8214AF645
:1044F0005522C1F8EC21C149098F8AB2BE49A1F801
:104500002022BE49898F8AB2BB49A1F82222BB4929
:10451000098A8AB2B849A1F82422B84909898AB21D
:10452000B549A1F82622B549098A8AB2B249A1F84B
:104530002822B24989898AB2AF49A1F82A224AF6CB
:104540005522C1F82C22AE490A68AB49C1F8302285
:10455000AB494A68A849C1F83422A9498A68A649E2
:10456000C1F83822A6490A69A349C1F83C22A449E6
:104570004A69A149C1F84022A1498A699E49C1F806
:1045800044229F49CA689C49C1F848229C490A6A4A
:104590009949C1F84C224AF65522C1F8502299494E
:1045A0000A6E9549CA6598490A6E93490A66954903
:1045B0004A6E91494A6694494A6E8F498A66914982
:1045C0000A6F8D49CA6690490A6F8B490A678D49FF
:1045D0004A6F89494A678C494A6F87498A6789497E
:1045E0008A6F8549CA6788498A6F8349C1F88020E4
:1045F0008449CA6F8049C1F884208349CA6F7E49C3
:10460000C1F888207F490A6D7B49C1F88C207E491A
:104610000A6D7949C1F890207A494A6D7649C1F806
:10462000942079494A6D7449C1F8982075498A6D7A
:104630007149C1F89C2074498A6D6F49C1F8A02066
:104640007049CA6D6C49C1F8A4206F49CA6D6A49A6
:10465000C1F8A8204AF65522C1F8C02069498A6CE1
:1046600065498A6468498A6C6349CA646549CA6C49
:1046700061490A656449CA6C5F494A6561498A6B48
:104680005D498A6360498A6B5B49CA635D49CA6B4D
:1046900059490A645C49CA6B57494A645949D1F877
:1046A000BC2055498A625849D1F8BC205249CA6297
:1046B0005449D1F8C02050490A635349D1F8C02069
:1046C0004D494A63A0F17001D1F8BC214A49C1F8B3
:1046D000BC21A0F17001D1F8C0214749C1F8C02127
:1046E000A0F17001D1F8C4214349C1F8C421A0F15F
:1046F0007001D1F8C8214049C1F8C821A0F170016A
:10470000D1F8CC213C49C1F8CC21A0F17001D1F8FD
:10471000D0213949C1F8D021A0F17001D1F8D421BC
:104720003549C1F8D421A0F17001D1F8D82132491E
:10473000C1F8D821026FC1F8DC21026AC1F8E0217A
:10474000C26FC1F8E421A0F170010A682A49C1F8DA
:10475000E8214AF65522C1F8EC21704770B50446AD
:104760002A480068052808D2DFE800F003085677D9
:10477000860014B901202549086087E0FFF702FE92
:104780002348806A48B10421002006F023F8042061
:104790001F4988620120FBF71CFE1D48C06A48B112
:1047A0000421002005F018FF04211948C1620220ED
:1047B000FBF70FFE1648406B48B10421012006F0BC
:1047C00009F80421124841630420FBF702FE104857
:1047D000406B48B10421012005F0FEFE04210C4885
:1047E00041630820FBF7F5FD01F07CF909490880D9
:1047F00002200649086049E0985C0120080000207A
:1048000024040020F405002054070020800000202C
:104810009C0500207C0000201CB10020FE4908609F
:104820001AE001F05FF90546FC480188284601F0CE
:1048300051F9B0F5FA6F0FDDFFF77CFA012001F0B6
:1048400056F903F0A2F9022001F051F9022001F01B
:104850004EF90320F049086018E001F043F90546DD
:10486000EE480188284601F035F9B0F57A6F02DD8F
:104870000420E949086009E04FF48010E849086025
:1048800040F6B83001F033F9FBF744FD00BFE248D1
:10489000006870BD2DE9F04107460E460024A04691
:1048A000002F7DD1002E7BD00125EDE106EA050029
:1048B00020283FD008DC01285FD0042812D0082827
:1048C0005DD010286DD182E140286BD080286AD05D
:1048D000B0F5807F03D0B0F5007FF3D1CAE108F0D6
:1048E000C2F9CFE1CF48D0F8B001072820D2DFE8E5
:1048F00000F01F04080C101415000020CA490860BD
:1049000016E00020C949086012E00020C64948604E
:104910000EE00020C54948600AE000BF0020C249FF
:104920000860C2490860C0494860C049486000BF8B
:1049300000BFA7E1BB48D0F8B001012806D002288B
:1049400009D003280CD0042814D10EE0B548C06962
:10495000B54988640EE0B348C069B449886409E089
:10496000B048C169B048C16404E0AE48C169AF480D
:10497000C16400BF00BF002584E1002582E1AC488E
:10498000D0F89000012821D10020A749C1F8FC00EF
:10499000A448C0688860084680680968401A03E037
:1049A00077E16EE14DE151E19F49C1F8D400012169
:1049B000002005F00FFF0446B4F5807F03D10020EE
:1049C0009C49886202E001209A4988629848D0F8A0
:1049D000900002281CD100209449C1F8FC009148A5
:1049E000C0688860084680680968401A8F49C1F825
:1049F000D4000121002005F0EFFD0446B4F5807FCE
:104A000003D100218B48C16202E001218948C162C3
:104A10008748D0F8900004281DD101208249C1F8B0
:104A2000FC008048C1688048C160C0687E49496810
:104A3000411A7D48C0F8D8100121084605F0CAFE89
:104A40000446B4F5807F03D100217A48016302E077
:104A50000121784801637648D0F8900008281DD1DC
:104A600001207249C1F8FC006E48C1686F48C160FE
:104A7000C0686E494968411A6C48C0F8D8100121D5
:104A8000084605F0A9FD0446B4F5807F03D1002156
:104A90006848416302E00121664841636448D0F8F8
:104AA0009000032843D15F48D0F8B00101281CD101
:104AB00000205D49C1F8FC005A48C068886008467B
:104AC00080680968401A5849C1F8D40001210020C3
:104AD00005F080FE0446B4F5807F03D100205549DF
:104AE000886202E00120534988624E48D0F8B00144
:104AF00002281CD100204D49C1F8FC004948C0687B
:104B00008860084680680968401A4849C1F8D4009E
:104B10000121002005F060FD0446B4F5807F03D13B
:104B200000214448C16202E001214248C16240487C
:104B3000D0F890000C2845D13A48D0F8B0010328AD
:104B40001DD101203849C1F8FC003648C1683648FB
:104B5000C160C06834494968411A3348C0F8D81068
:104B60000121084605F036FE0446B4F5807F03D1E6
:104B700000213048016302E001212E4801632948E9
:104B8000D0F8B00104281DD101202849C1F8FC004B
:104B90002448C1682548C160C06824494968411A51
:104BA0002248C0F8D8100121084605F015FD04463A
:104BB000B4F5807F03D100211E48416302E001214A
:104BC0001C48416300201749C86000255AE0154879
:104BD000D0F8B001012803D1124800691249886653
:104BE0001048D0F8B001022803D10E4800690F49DF
:104BF00088660C48D0F8B001032803D10948016940
:104C00000948C1660748D0F8B001042803D1054817
:104C100001690648C1660FE0800000207C0000208A
:104C2000180C02407C580120F40500205407002095
:104C3000705A01209C05002000250020FE490861D3
:104C400020E00120FFF77CF800251BE0FA48D0F8AF
:104C5000B001012800D100BFF748D0F8B001012809
:104C600000D100BFF448D0F8B001012800D100BF46
:104C7000002507E0F049D1F8A40107F0DAFE00258D
:104C800000E000BF00BF6D00002D7FF40FAE4FF0BD
:104C900001084046BDE8F0811FB500BF00BF00BF5E
:104CA00000BF0024E54DE44E703672B611F080FC72
:104CB00000F0E0FB4FF48060E149086001F09BF9EF
:104CC0000720E049C1F828014FF40060DE498861FF
:104CD000401088611020DA4908600BF0E6FE00F011
:104CE0003FFE00F057FE00F0DBFE642000F00DFFF9
:104CF00005F0CAF909F0D4FC02F014FC02F02EFD14
:104D000000F066FA02F0EAFD07F01AFD01F01AF869
:104D100001F0C4F8FEF7E9FD642000F0E8FE64202D
:104D200000F0E5FE07F0D5FB642000F0E0FE4FF652
:104D3000FF70C6494867002009F093FC0DF088FA1F
:104D40000A2000F0D4FE3C2007F03CFD00200DF0CE
:104D500008FB1F237F22002108460DF011FB0DF0F8
:104D600031F901200DF0FDFA7F231A4620210020A1
:104D70000DF006FB0DF026F9B548D0F80E20B5A1D0
:104D80004FF4FA6003F0CDF902200DF0EAFAB848CA
:104D90000CF010FA0DF016F900200DF0E2FAB4480C
:104DA0000CF008FA0DF00EF901200DF0DAFAB04817
:104DB0000CF000FA7F231A46202100200DF0E0FAC3
:104DC0000DF000F94FF420700DF084FA0DF0FAF8B0
:104DD000012009F046FC62B609F0D7F9192000F06D
:104DE00086FE00209749C1F82801AA209749C1F8FA
:104DF000C40000E00024FFF703F90028FAD193482B
:104E0000D0F8A800002804DD4FF480608C490860C9
:104E100009E0FA2000F06BFE4FF0806088490860DE
:104E2000642000F064FE07F049FEB5E100F0F2FEF8
:104E30009048006820B1FCF7BDFA00208D49086059
:104E400000F036FF00F079FE00287DD08A48006827
:104E5000401C8949086008460068012809D00846B6
:104E60000068022805D0084600680A2801D1002001
:104E70000860A88CC0F3802018B140F6E100FEF76E
:104E8000EEFE7E48006830B901207C4908600420AD
:104E90007B49086006E00020784908604FF48020D4
:104EA000774908607749D1F83C0108F021F8674953
:104EB000C8647549D1F8380108F01AF863490865E3
:104EC0007049D1F83C0108F013F860494865BDF815
:104ED0000800FFF73FFA5D49C8650B46326A596D15
:104EE000186D09F0F8F8664908390968012222EAC4
:104EF000111003F09DF85549886561490839096822
:104F0000012222EA511003F01DF85049C1F8800037
:104F10000846D0F88000202801D107F0F7FE584855
:104F200008380068012121EA901048498867886F95
:104F300002F0AFFF4549C8670B46DA6ED96CD86FEF
:104F40009C3303F0A4F900E030E04049C1F8980038
:104F5000D1F8980003F070FD4C480069012121EA66
:104F600010203A4988660020C1F8A400896E29B152
:104F70003649D1F8A41009B9012100E00021084602
:104F8000FFF7ECFB3149C8660A46D2F89C10D2F80C
:104F90009800FFF77FFC2D49C1F8A0000846D0F823
:104FA000A000012802D10020C1F89C0000F096FD6D
:104FB00037490988401A282828D900F08FFD34493C
:104FC0000880002405E0204602F00BFD2DF81400B7
:104FD000641C072CF7DBBDF802002B49D1F84811FF
:104FE00008442949C1F83801BDF800002549D1F825
:104FF0004C1108442349C1F83C01BDF80400224982
:10500000C1F85001BDF80600C1F8540100F066FD7A
:1050100020490968401A042861D900F05FFD1D4944
:1050200008600548D0F84C010F2858D10748D0F83F
:10503000900001283AD02FE07C5801209C050020E8
:10504000180C0240B408002000100240705A0120E1
:10505000B00300204B696E65736973204B494D3175
:1050600030310A53775265762025303658000000DB
:10507000C07B0108AC0000208C00002088000020CC
:105080001804024054070020F405002000000240EC
:10509000A20000209C0000204048D0F89000022888
:1050A00004D03E48D0F89000032819D13C4800694C
:1050B000C0F3C0303949C1F8D8003A480068C0F39D
:1050C000C000C1F8DC003648006900F00100C1F8FA
:1050D000E00033480069C0F34000C1F8E40027E075
:1050E0002E48D0F89000042809D02C48D0F8900021
:1050F000082804D02948D0F890000C2818D1284856
:105100000069C0F3C0302549C1F8E80025480068AF
:10511000C0F3C000C1F8EC002148006900F00100B4
:10512000C1F8F0001E480069C0F34000C1F8F40067
:1051300000F0D4FC1C490988401A80B204280DDD17
:1051400000F0CCFC184908801849D1F8FC0005F0A3
:1051500035FD1749D1F8FC0005F075FE0F48D0F871
:10516000A800002807DD0D4812A1D0F8A8204FF4B0
:105170007A7003F040F809F09DF9BDF80A0007497C
:105180000866BDF80C00486608F02FFA0AF081FDA9
:105190000AF089FD0BF075F948E60000705A01200D
:1051A0000000024010040240A0000020F40500208E
:1051B000540700204661756C742043682025640AFA
:1051C00052656D6F766520506F7765720000000044
:1051D0009948006840F48020974908609648103844
:1051E000006896490843944910390860944800685B
:1051F00020F48030924908600846006840F400308E
:105200000860081D006820F48070091D08608C4843
:105210000C30006820F4403089490C310860081FC8
:10522000006820F44030091F08608548406A20F07B
:105230000F00C01D824948620846006820F48020A3
:1052400008600846006840F4002008607C480C3084
:10525000006820F440207A490C3108607848406AA0
:1052600020F0F00040F0700175484162006840F0A5
:105270008070734908600846006820F0007008607C
:105280006F480830006840F040706D490831086090
:1052900048066B49183108606948006820F44000EE
:1052A0006749086066480C30006820F400006449D3
:1052B0000C3108600846006840F48000086040F245
:1052C0006D106049086000205E4908310860091DC2
:1052D00008605C48001D006840F400505949091DF1
:1052E000086058480C30006840F0C00055490C3147
:1052F00008605548806D20F001005349886500E042
:1053000000BF5148806D00F001000028F8D14E48E0
:10531000806D20F060604C4988650846806D40F0E3
:10532000006088650846806D40F48860886545485F
:10533000001F08660020C8650846806A20F001004A
:10534000886200E000BF4048806A00F00100002849
:10535000F8D13D48806A20F060603B498862084689
:10536000806A40F0006088620846806A40F4A0606D
:1053700088623448001F0863344848630815C862CF
:1053800030480838006820F040002E49083908608D
:105390002C48001D006840F00C002A49091D0860D7
:1053A0002948806A40F001002749886270472649F1
:1053B000C96AC1F58061264A1268914202D14FF64E
:1053C000FF700FE022490A680968491C204B1960E8
:1053D0001E49885C19460968B1F5806F02D1002129
:1053E0001A4611607047184A926D22F00102164B5E
:1053F0009A6500E000BF144A926D02F00102002A93
:10540000F8D1114A5066D1650E4A083A126822F066
:1054100040020C4B083B1A604FF000620A4B9A6046
:105420001A46926D42F001029A65704705480838A5
:10543000006800F04000704740380240080020003B
:10544000000C02400848004000600240B00B002001
:10545000A400002008B1022101E04FF40031FC4A11
:105460001160704708B1402101E04FF48001F94A12
:1054700091617047F848006840F00100F649086003
:10548000F648006820F44030F44908600846C068D7
:1054900020F48030C8600846C06820F40030C8603E
:1054A0000846006820F4402008600846C06820F4E0
:1054B0008020C8600846C06820F40020C860084604
:1054C000006820F4C01008600846C06820F48020FE
:1054D000C8600846C06820F40020C860DE48006844
:1054E00040F00200DC490860DD480068DD490843FF
:1054F000DB49086008460068DB490840D849086075
:1055000008460068D9490843D5490860084600683C
:10551000D7490840D2490860D1481830006840F4A3
:105520008030CF49183108600846006840F0040018
:1055300008600846006840F40000086008460068FB
:1055400040F0806008600846006840F00060086035
:105550000846006840F480500860C148006820F4A4
:105560004070BF490860BE480C30006820F480706D
:10557000BB490C3108600846006820F400700860E0
:10558000B748006820F44060B5490860B4480C3062
:10559000006820F48060B2490C3108600846006859
:1055A00020F400600860AE48006820F44050AC4928
:1055B0000860AB480C30006820F48050A8490C31DA
:1055C00008600846006820F400500860A44800689D
:1055D00020F44040A2490860A1480C30006820F443
:1055E00080409F490C3108600846006820F4004064
:1055F00008609948006840F00400974908609D4899
:1056000000689D4908439B490860084600689B491B
:105610000840984908600846006899490843954938
:1056200008600846006897490840924908600846A3
:10563000006820F4406008608E480C30006820F458
:1056400080608C490C3108600846006820F40060D6
:1056500008608848006820F04060864908608548F6
:105660000C30006820F0806082490C3108600846E8
:10567000006820F0006008607E481830006840F440
:1056800080107C49183108600846006840F48000AA
:1056900008600846006840F400000860084600689A
:1056A00040F0807008600846006840F000700860B4
:1056B0000846006840F0004008606748006840F015
:1056C00008006549086062481838006840F25511C2
:1056D00008435F49183908600846006840F2AA216B
:1056E00088435B49183908600846006866490843E2
:1056F0005749183908600846006864490840544909
:10570000183908605248006840F0010050490860AC
:105710000846006840F0020008600846006840F44F
:10572000802008600846006840F4002008600846B1
:10573000006840F4801008600846006840F02000CF
:1057400008600846006840F080000860084600686D
:1057500040F4806008600846006840F4005008602B
:105760000846006840F0804008600846006840F045
:10577000004008603848006840F010003649086072
:105780003448006840F25511084332490860084621
:10579000006840F2AA2188432E4908600846006844
:1057A0003B4908432B4908600846006839490840CE
:1057B00028490860084600683749084325490860B9
:1057C0000846006835490840224908600846806953
:1057D00040F4803088610846806940F40030886178
:1057E0000846806940F4802088610846806940F45A
:1057F000002088610846806940F48010886108466E
:10580000806940F4800088610846806940F080002B
:1058100088610846806940F4807088610846806924
:1058200040F4007088610846806940F480608861B7
:105830000846806940F4006088610846806940F04D
:10584000804088610846806940F000408861704768
:10585000180C0240001002403038024000000240A4
:105860000004024014405000D77F5FFF0100000198
:10587000FDFFFFFD0008024000510100FF5DFDFF3C
:1058800000000450FFFFF75F00441054FF77DF571C
:1058900000541500FF57D5FF00004055FFFF7F550E
:1058A000012800D102E0022800D1002008B1042123
:1058B00001E04FF48021274A116058B92649096850
:1058C00041F48061244A11601146096821F40061A5
:1058D00011600FE02049096821F440611E4A1160FF
:1058E0001146C96821F48061D1601146C96821F46C
:1058F0000061D1607047012800D102E0022800D188
:10590000002008B1082101E04FF40021114A116084
:1059100058B91249096841F00401104A1160114652
:10592000096821F00801116012E00C49096821F0B2
:105930000C010A4A116009490C31096821F004017F
:10594000064A0C3211601146096821F00801116005
:1059500070470000180C0240001002400004024092
:10596000A148006840F080009F4908609F48006897
:1059700040F001009D4908604AF20F409B492831E0
:1059800008609A481430006840F0010097491431CB
:10599000086070479448001D006840F480309249C8
:1059A000091D086000209249886248628E481038BC
:1059B000006840F010008C49103908608D4800687C
:1059C00020F480508B4908600846006840F400507D
:1059D00008600846006A20F0706040F0407008627D
:1059E00040F634008449086008460068401E80493B
:1059F000C86241F26700C8630846C06B086447F29A
:105A00007000C8610846006A40F4807008627948F6
:105A1000006820F48050774908600846006840F428
:105A2000005008600846006A20F0706040F0407046
:105A300008627248006840086D49886308468069BA
:105A400020F4E04088610846806940F4C0408861E5
:105A50000846006A40F0100008620846406940F0BD
:105A6000010048610846006840F001000860704786
:105A700010B52DED028BB0EE408A5F4890ED000A24
:105A8000B8EE400A28EE000A10EE101A084610F090
:105A900042FD80F3100056498863BDEC028B10BDB7
:105AA0005148006840F040004F4908605448006881
:105AB00040F00100524908604AF20E405049283136
:105AC00008604F481430006840F001004C49143120
:105AD000086070470246501A80B270474848243028
